:100000000C9405220C9436220C9436220C94362241
:100010000C9436220C9436220C9436220C94362200
:100020000C9436220C9436220C9436220C943622F0
:100030000C9436220C94C3A80C9436220C943622CD
:100040000C9436220D942E590C9436220C943622A0
:100050000C9436220C9436220C94ECD10C945FA8AC
:100060000C9436220C944E420C9444420C9436224A
:100070000C9436220C9436220C9436220C943622A0
:100080000C94EB3A0C9436220C9436220C943622C3
:100090000C9436220C9436220C9436220C94362280
:1000A0000C9436220C9436220C94BD3A0C943622D1
:1000B0000C9436220C9436220C9436220C94362260
:1000C0000C9436220C9436220C9436220C94362250
:1000D0000C9436220C9436220C9436220C94362240
:1000E0000C9436225E511B5054509A515450545027
:1000F00054505450545054505450545054505450E0
:1001000054505450545054505450545054505450CF
:1001100054505450545054505450545054505450BF
:10012000945154505450545054505450545054506E
:1001300054506D5154505450545054505450545085
:100140005450545054505450B1515150F7C6D7C622
:10015000DDC6DAC6E0C6E3C6E6C6F2C6E9C604C72F
:10016000ECC6EFC65001D801DC013201A4022C011B
:1001700036011E01F20138023402F6003C0146024B
:100180002C01FA01BE015602084AD73B3BCE016E54
:1001900084BCBFFDC12F3D6C74319ABD56833DDADE
:1001A0003D00C77F11BED9E4BB4C3E916BAAAABEED
:1001B000000000803F05A84CCDB2D44EB93836A916
:1001C000020C50B9918688083CA6AAAA2ABE000053
:1001D00000803F000C94E2DB0C94E9C60C943E4F87
:1001E0000D941B3E0D94632D0C9429750D945E4E59
:1001F0000C94AE620C9441570C942AC90C94706F05
:100200000C945E510D947B2D0C94419E0D94932E75
:100210000C94B16E0D94720D0D94510D0C94B9DEC9
:100220000D94672D0D9404120C94AA620C94576CD3
:100230000C949EDE0D94DD120C941E9E0D944A4E7D
:100240000C94F7C60C94FFCA0D94110B0D94C90BB6
:100250000C945A5C0C94296C0D94794E0C94A4DB8C
:100260000D946F2D0D94354E0C945B640D94464E99
:100270000C94E0DE0D946B0B0D94624E0C949D6417
:100280000D94EC120D94872D0D94450D0C9404DC07
:100290000D94910D0C9413570C94D1DE0C94906036
:1002A0000D943F4E0D94190E0C94B04F0C94357173
:1002B0000C940EE00D948D2E0C9458570D940E3E18
:1002C0000C94E0C60C941DA60C9414E40D947A2EA4
:1002D0000C94B1510D94B1530C94E96D0C94B44F3E
:1002E0000C94EC6D0C944AC70D946B2D0D945B2B04
:1002F0000D942C0B0C94EDCA0C9401520C940565D2
:100300000C9454500C9442640D94330D0C94E56C91
:100310000C94ECC60D94AB6E0C94459E0C94A8DE28
:100320000C94B14F0D94790E0C94E6C60D94412FA8
:100330000D949D3C0C949D720D94150D0D94772D8C
:100340000D94970B0C94E8DB0C94F9CA0D94DF0A1A
:100350000D94DA0F0D94C96E0D9487560D948A3062
:100360000D943A0E0D941B0D0C9451500C94D7C65D
:100370000C940ACB0C942A570D9431120D94704EA4
:100380000C94E3C60D94D1000D946D0E0D947E0B6C
:100390000D940B2A0D942D0D0C945F640D94193E51
:1003A0000D94DD0B0C94A3DE0C94ACDB0D94992E14
:1003B0000D94424E0D942F120D94314E0D94AF0EAC
:1003C0000D948B2D0D94D80B0C94FFDB0C94BFDE99
:1003D0000D9403530C94439E0C944C6E0C941FDBB1
:1003E0000D94B3440D94504E0C944CDC0C946CCF93
:1003F0000C942CA80D946C4E0C94DAC60C94DDC6AB
:100400000D94390D0D943F0B0C942D6E0D94A43169
:100410000C94E66D0D9483530D94F8290D94B00B54
:100420000D94C22A0D94520B0C9429520C94EBE3B8
:100430000C94BC6E0C946EE10D94F80A0C94EEDBF7
:100440000C9414C70D943F0D0C94DADE0D94173EF6
:100450000C9409DC0C94EFC60D94732D0C949A51F6
:100460000C94FC560D9402120D94584E0D94210DCF
:100470000D94544E0C942ADB0D94880E0C943CDBA6
:100480000D94270D0C9446640D9424510D94664EE2
:100490000D944B0D0D94A60E0C94CD670D947E30EB
:1004A0000C9420CD0D945E0E0C9406C70D94744EE2
:1004B0000D94970E0C941B500C94919E0D940F0D5F
:1004C0000C94A06E0C942FC70D947F2D0D944F0E9D
:1004D0000C942DDC0C946D510C940EDC0C9465C7BF
:1004E0000C9471E20D94C60A0C948A9E0C943B4FB6
:1004F0000C94C5DE0D94400E0C944A640C94FADF03
:100500000C94CC470C94F2C60D94103E0C9402A8A7
:100510000D946E2E0C94FADB0D94242A0D941D3E3E
:100520000C94ADDE0C94ADC70C949BC70C94945105
:100530000D94B00D0C948B520C94A96E0C9480C742
:100540000D94832D0C94F4DB0D943B4E0C9404C756
:100550000C9431A40D9443404E414E494E49545998
:10056000494E46CDCCCC3D0AD7233C17B7D138777E
:10057000CC2B329595E6241FB14F0A000020410094
:1005800000C84200401C4620BCBE4CCA1B0E5AAEDE
:10059000C59D7400407A10F35A00A0724E180900ED
:1005A00010A5D4E80000E87648170000E40B5402D8
:1005B0000000CA9A3B000000E1F505000080969813
:1005C00000000040420F000000A086010000001063
:1005D0002700000000E803000000006400000000A5
:1005E000000A00000000000100000000002C76D886
:1005F00088DC674F0823DFC1DFAE59E1B1B796E56C
:10060000E3E453C63AE651997696E8E6C28426EBCF
:10061000898C9B62ED407C6FFCEFBC9C9F40F2BAE2
:10062000A56FA5F490055A2AF75C936B6CF9676D7A
:10063000C11BFCE0E40D47FEF520E6B500D0ED90CF
:100640002E0300943577050080841E080000204E9C
:100650000A000000C80C333333330F986E12831135
:1006600041EF8D2114893BE65516CFFEE6DB18D10C
:10067000844B381BF77C1D901DA4BBE424203284DE
:10068000725E228100C9F124ECA1E53D27434F4D64
:100690004D554E49434154494F4E004452595255CD
:1006A0004E004552524F525300494E464F0045436B
:1006B000484F0047322F47332062616420706172D7
:1006C000616D65746572730A00536C6565702E2EDA
:1006D0002E005A2050726F62652050617374204260
:1006E00065640A005A2050726F626520506173740D
:1006F0002042656400205A3A200020593A200042E6
:10070000656420583A2000496E76616C69642073F4
:100710006C6F742E20546F74616C3A20330A00524F
:100720006573746F72696E6720706F736974696F37
:100730006E205300496E76616C696420736C6F742F
:100740002E20546F74616C3A20330A004D65736833
:1007500020706F696E74206F7574206F66207261EF
:100760006E67650A00436C69636B20746F20526585
:1007700073756D652E2E2E004E6F204D6F76652E93
:1007800000456E642066696C65206C6973740A00AC
:10079000426567696E2066696C65206C6973740ACE
:1007A000004E6F206D656469610A00286E6F2066D7
:1007B000696C65290043757272656E742066696C98
:1007C000653A20005344207072696E74696E672028
:1007D0006279746520004E6F7420534420707269F2
:1007E0006E74696E670A002569730025696D20259E
:1007F0006973002569682025696D202569730025C6
:100800006964202569682025696D202569730025A4
:10081000697920256964202569682025696D20256E
:100820006973005072696E742074696D653A2000B6
:100830006F6B006F666600AE06A906A2069B068D6A
:100840000644454255473A004D31313220536875D0
:1008500074646F776E004D3131332053004265640C
:1008600020436F6F6C696E672E2E2E0042656420E8
:1008700048656174696E672E2E2E00476565657444
:100880006563682041323054204F46462E002F2F9A
:10089000004D31343520533C696E6465783E206FDD
:1008A0007574206F662072616E67652028302D3167
:1008B000290A003F4A206F7574206F662072616EAE
:1008C00067652028302E303120746F20302E332978
:1008D0000A004D32303620580046523A0020466C0D
:1008E0006F773A2000206F7574206F662072616EFA
:1008F00067650A00536572766F20003A2000205326
:100900006572766F200020643A0020693A002070FA
:100910003A00496E76616C6964206578747275641A
:1009200065720A0020643A0020693A0020703A009B
:1009300064697300656E0043290A0061626C656436
:1009400020286D696E2074656D702000436F6C64A3
:100950002065787472756465732061726520004645
:10096000696C616D656E742072756E6F757420644C
:10097000697374616E636520286D6D293A200046A5
:10098000696C616D656E742072756E6F7574200090
:100990004D34323120696E636F72726563742070FA
:1009A0006172616D657465722075736167650A00B7
:1009B0004D65736820706F696E74206F7574206F59
:1009C000662072616E67650A00454550524F4D20A2
:1009D0004F4B0A00506F7765722D6C6F73732072E6
:1009E00065636F7665727920004D383400446F6E10
:1009F00065207072696E74696E672066696C650A3D
:100A0000004D3737004D3331004572726F722077D9
:100A1000726974696E6720746F20454550524F4D5E
:100A2000210A0053544F505045442E200050726903
:100A30006E7465722073746F707065642064756580
:100A400020746F206572726F72732E204669782051
:100A5000746865206572726F7220616E64207573B0
:100A600065204D39393920746F2072657374617255
:100A7000742E202854656D706572617475726520DE
:100A800069732072657365742E20536574206974D0
:100A90002061667465722072657374617274696E28
:100AA00067290A004E6F20436865636B73756D207C
:100AB00077697468206C696E65206E756D62657209
:100AC0002C204C617374204C696E653A20004E6F87
:100AD00020436865636B73756D2077697468206C5B
:100AE000696E65206E756D6265722C204C61737441
:100AF000204C696E653A2000636865636B73756DA1
:100B0000206D69736D617463682C204C617374206F
:100B10004C696E653A20004C696E65204E756D62B9
:100B20006572206973206E6F74204C617374204C61
:100B3000696E65204E756D6265722B312C204C619B
:100B40007374204C696E653A20004D31313000538A
:100B5000442072656164206572726F720A002121FF
:100B6000204B494C4C206361757365642062792089
:100B7000746F6F206D75636820696E616374697648
:100B8000652074696D65202D2063757272656E74C1
:100B900020636F6D6D616E643A2000627573793AFF
:100BA0002070617573656420666F7220696E707560
:100BB000740A00627573793A2070617573656420F8
:100BC000666F7220757365720A00627573793A20D8
:100BD00070726F63657373696E670A004D6564694F
:100BE000612052656D6F766564004D6564696120B2
:100BF000496E736572746564004D31303030530056
:100C0000506F776572204F7574616765004D36309F
:100C1000300042656400456E636C6F7375726500E9
:100C20002568753A25303268750025303268753A86
:100C30002530326875002020202020202000202030
:100C40002020001FE03FF03FF03FF01FE01FE03F9B
:100C5000F03FF03FF00FC0078003001FE02010209E
:100C600010201010201020201020103030084004D8
:100C700080030001FF000618C0081F20101F9014F9
:100C80001F102E1E082F1C082FB8083FFC083FFF1E
:100C9000F8207FF8203BE82071E820F0E811F050C0
:100CA00013F01009F0200630C001FF0001FF00061C
:100CB00030C009F02011F01010F01020F068203141
:100CC000E82039E8207FF83FFFF83FFC082F38087C
:100CD0002E18082C1E08101E10101F10081F2006AA
:100CE00018C001FF0001FF000600C00901201783A2
:100CF000D01783D02FC7E827C7C821FF08207C085A
:100D0000207C08207C0821FF0827C7C82FC7E817C8
:100D100083D01783D00901200600C001FF00FFFF28
:100D2000C040002020001010000808000404000249
:100D300003FFFF02220004440004440002220001D9
:100D40001100FFFFC04088A02111101222080800E6
:100D50000404000203FFFF4572723A20757466387E
:100D600020666F6E74206E6F7420696E697469619D
:100D70006C697A65642E004572723A207574663823
:100D800020666F6E74206E6F7420696E697469617D
:100D90006C697A65642E004572723A207574663803
:100DA00020666F6E74206E6F7420696E697469615D
:100DB0006C697A65642E00000C0F00FE07022503A3
:100DC000BB017FFE08FE08FE05080806000040F093
:100DD000C88888987810050808060000C0F8888838
:100DE000888888F80505050600012030F8302005C0
:100DF00008080600002070F820202020E0050909DE
:100E00000600FF2070A8A8B888887020070505078D
:100E10000001D86C366CD80509090600FFF8A888CF
:100E200088888888A8F8050A0A0600FE20505050D5
:100E30005088A8A8887003030306000340A040FF61
:100E4000FFFFFFFFFFFFFFFFFFFFFFFFFFFFFFFFB2
:100E5000FFFFFFFFFF0000000605FF010707060276
:100E60000080808080800080030303060105A0A02D
:100E7000A005060606000050F85050F85005090974
:100E80000600FF2070A8A07028A87020050707069C
:100E90000000C8C8102040989805070706000040C9
:100EA000A0A040A89068010303060205808080038B
:100EB00009090601FF20404080808040402003094E
:100EC000090601FF804040202020404080050707A0
:100ED00006000020A8702070A82005050506000166
:100EE0002020F820200203030601FFC040800501F6
:100EF00001060003F8020202060100C0C005070750
:100F0000060000081010204040800507070600007A
:100F1000708898A8C8887003070706010040C04081
:100F2000404040E005070706000070880810204098
:100F3000F8050707060000F8081030088870050754
:100F40000706000010305090F81010050707060043
:100F500000F880F008088870050707060000304098
:100F600080F0888870050707060000F80810102038
:100F700020200507070600007088887088887005A3
:100F800007070600007088887808106002050506CB
:100F90000100C0C000C0C00206060601FFC0C000BC
:100FA000C040800305050601012040804020050364
:100FB00003060002F800F803050506010180402041
:100FC00040800507070600007088102020002005DB
:100FD00007070600007088B8A8B8807005070706E4
:100FE0000000708888F8888888050707060000F0E8
:100FF0004848704848F00507070600007088808060
:10100000808870050707060000F04848484848F007
:10101000050707060000F88080F08080F8050707C4
:10102000060000F88080F080808005070706000039
:101030007088808098887005070706000088888877
:10104000F8888888030707060100E04040404040D8
:10105000E005070706000038101010109060050723
:10106000070600008890A0C0A0908805070706002A
:1010700000808080808080F805070706000088D8FF
:10108000A8888888880507070600008888C8A89867
:10109000888805070706000070888888888870059A
:1010A0000707060000F08888F080808005070706A3
:1010B000000070888888A89068050707060000F07F
:1010C0008888F0A090880507070600007088807067
:1010D000088870050707060000F82020202020203F
:1010E0000507070600008888888888887005070734
:1010F00006000088888888505020050707060000F1
:1011000088888888A8A850050707060000888850A6
:101110002050888805070706000088885020202076
:1011200020050707060000F80810204080F8030992
:10113000090601FFE080808080808080E00507074D
:10114000060000804040201010080309090601FF36
:10115000E020202020202020E005030306000520B9
:1011600050880501010600FEF8030303060105800F
:1011700040200505050600007008788878050707F7
:101180000600008080F0888888F0050505060000CC
:101190007080808870050707060000080878888836
:1011A00088780505050600007088F080700507073F
:1011B000060000304840E04040400507070600FEBA
:1011C000708888887808700507070600008080F01E
:1011D000888888880307070601004000C040404017
:1011E000E00409090601FE10003010101010906094
:1011F00005070706000080808890E09088030707B5
:10120000060100C04040404040E0050505060000E2
:10121000D0A8A8A8A8050505060000B0C888888839
:101220000505050600007088888870050707060018
:10123000FEF0888888F080800507070600FE788821
:101240008888780808050505060000B0C8808080F9
:1012500005050506000078807008F0050707060000
:10126000002020F8202020180505050600008888A9
:1012700088986805050506000088888850200505BF
:10128000050600008888A8A8500505050600008806
:10129000502050880507070600FE888888502040A7
:1012A00080050505060000F8102040F8030909062E
:1012B00001FF2040404080404040200109090602D3
:1012C000FF8080808080808080800309090601FF84
:1012D0008040404020404040800503030600024813
:1012E000A890FF52756E6F75742044697374206DF9
:1012F0006D004C6F6164206D6D00556E6C6F6164A4
:10130000206D6D0046696C2E204469612E004520D9
:10131000696E206D6D5E33004D33303320553120C2
:101320004525692053256900504944204175746F53
:1013300074756E65202A005049442D44202A0050BF
:1013400049442D49202A005049442D50202A00208C
:10135000082046616374002008204D617800200851
:10136000204D696E004F6666004F6E004175746FC8
:1013700074656D70005072696E742041626F727492
:101380006564004D32350050617573696E672E2EAD
:101390002E004D3234006F6F6F00000047414D4505
:1013A000204F56455200107CFEFEFE444024800033
:1013B00000318000002480444004000E000E007FB5
:1013C000C0FFE0FFE0FFE0FFE01FC07FF0DDD8FFDF
:1013D000F87FF006000F001F8036C03FC0090016DE
:1013E00080294006000F001F8036C03FC0168020B5
:1013F000401080104008801FC037607FF05FD050E1
:10140000500D80104048905FD077707FF01FC01063
:101410004020200F007FE0FFF0E670FFF0198036DB
:10142000C0C0300F007FE0FFF0E670FFF01980369B
:10143000C0198047616D657300546865726D69738A
:10144000746F727300426F61726420496E666F0040
:101450005072696E74657220496E666F004D6169E5
:101460006E004D313030300053746F70205072690F
:101470006E7400526573756D65205072696E7400EC
:10148000506F776572204F7574616765003F004249
:1014900061636B0053746F70005072696E742066E4
:1014A000726F6D204D65646961004368616E6765A8
:1014B000204D65646961004D32310041626F757481
:1014C000205072696E746572004368616E676520B2
:1014D00046696C616D656E7400436F6E6669677511
:1014E000726174696F6E004D697865720054656D44
:1014F0007065726174757265004D6F74696F6E000E
:10150000526573756D65205072696E74004E6F2060
:101510004D656469610054756E650053746F702089
:101520005072696E74005061757365205072696EF7
:101530007400496E666F2053637265656E003F00EC
:101540005374617274205072696E740043616E63EB
:10155000656C005072696E740043616E6E6F74202A
:10156000656E746572207375626469723A20000258
:101570002E2E004D61696E002534642E2564206D89
:101580006D002534642E2564206D6D002020456E8D
:1015900064205A3A002534642E2564206D6D005372
:1015A00074617274205A3A00416C69617320562D3F
:1015B000746F6F6C002020456E6420562D746F6F21
:1015C0006C00537461727420562D746F6F6C0047F9
:1015D00032362043616E63656C65640047323620A5
:1015E00048656174696E67204E6F7A7A6C65004752
:1015F00032362048656174696E6720426564005721
:10160000616974696E6720666F72206865617475C0
:10161000702E0A004669786564204C656E677468B0
:10162000205072696D6500446F6E65205072696D5F
:10163000696E67004D616E75616C207072696D69CD
:101640006E672E2E2E004C656176696E67204732DC
:1016500036003F53706563696669656420582C598C
:1016600020636F6F7264696E617465206F7574209A
:101670006F6620626F756E64732E0A003F285229D0
:1016800065706561742076616C7565206E6F74207D
:10169000706C61757369626C653B206D7573742045
:1016A0006265206174206C6561737420312E0A00BC
:1016B0003F537065636966696564206E6F7A7A6C02
:1016C000652074656D7065726174757265206E6FEA
:1016D0007420706C61757369626C652E0A003F53EB
:1016E00070656369666965642066696C616D656EC5
:1016F000742073697A65206E6F7420706C617573E5
:1017000069626C652E0A003F53706563696669659E
:1017100064207072696D65206C656E677468206EF8
:101720006F7420706C61757369626C652E0A003F7E
:10173000537065636966696564206E6F7A7A6C655B
:101740002073697A65206E6F7420706C617573699F
:10175000626C652E0A003F52657472616374696F32
:101760006E204D756C7469706C696572206D75734F
:1017700074206265207370656369666965642E0A0A
:10178000003F5370656369666965642052657472D1
:10179000616374696F6E204D756C7469706C6965F6
:1017A00072206E6F7420706C61757369626C652E47
:1017B0000A003F537065636966696564206C6179EE
:1017C000657220686569676874206E6F7420706C3C
:1017D00061757369626C652E0A0043292E0A003F09
:1017E0005370656369666965642062656420746529
:1017F0006D7065726174757265206E6F7420706CA7
:1018000061757369626C65202834302D004732366B
:10181000207374617274696E672E2E2E0A007C3CF0
:101820003E5E2B3D3F2F5B5D3B2C2A225C004F66CA
:101830006673657473204170706C696564004572ED
:10184000723A20546F6F206661722100546F6F20CE
:101850006661722066726F6D207265666572656E74
:10186000636520706F696E740A004361703A0043CB
:1018700048414D4245525F54454D504552415455A3
:10188000524500424142595354455050494E470039
:1018900041524353004D4F54494F4E5F4D4F4445C5
:1018A0005300544845524D414C5F50524F544543AC
:1018B00054494F4E004C4F4E475F46494C454E41B0
:1018C0004D45004155544F5245504F52545F53447B
:1018D0005F535441545553005245504541540053B1
:1018E00044434152440050524F4D50545F53555061
:1018F000504F525400454D455247454E43595F5055
:10190000415253455200434153455F4C4947485467
:101910005F4252494748544E45535300544F47473E
:101920004C455F4C494748545300534F4654574128
:1019300052455F504F574552004255494C445F5005
:10194000455243454E54004C4556454C494E475F21
:1019500044415441005A5F50524F42450052554E47
:101960004F5554004155544F4C4556454C0050522C
:10197000494E545F4A4F420050524F4752455353CD
:10198000004155544F5245504F52545F54454D50AD
:1019900000564F4C554D4554524943004545505211
:1019A0004F4D0042494E4152595F46494C455F54A4
:1019B00052414E534645520053455249414C5F589F
:1019C0004F4E5F584F4646004649524D574152458B
:1019D0005F4E414D453A4D61726C696E206275678C
:1019E0006669782D322E302E7820284A616E20319B
:1019F0003420323032312030323A31303A333229E9
:101A000020534F555243455F434F44455F55524C19
:101A10003A6769746875622E636F6D2F4D61726CE1
:101A2000696E4669726D776172652F4D61726C697E
:101A30006E2050524F544F434F4C5F5645525349BE
:101A40004F4E3A312E30204D414348494E455F5468
:101A50005950453A47656565746563682041323081
:101A6000542045585452554445525F434F554E54A7
:101A70003A3120555549443A3939393330353237BE
:101A80002D356130302D343237382D386332352DD5
:101A90003763303938616464633332320A0042613B
:101AA000627973746570205A0050726F6265204FBE
:101AB0006666736574205A0050726F6265204F66C7
:101AC00066736574205A00290A0020746F20003F55
:101AD0005A206F7574206F662072616E67652028CA
:101AE00000290A0020746F20003F59206F75742070
:101AF0006F662072616E676520282D00290A00201C
:101B0000746F20003F58206F7574206F66207261DB
:101B10006E676520282D0050726F6265204F6666E3
:101B20007365742058006F6B00526573656E643A7C
:101B30002000436F6F6C696E672E2E2E0048656122
:101B400074696E672E2E2E00452025530023646590
:101B500066696E652044454641554C545F00626598
:101B600064004B6420004B6920004B7020005049FA
:101B700044204175746F74756E652066696E697373
:101B8000686564212050757420746865206C6173E9
:101B900074204B702C204B6920616E64204B6420B4
:101BA000636F6E7374616E74732066726F6D206202
:101BB000656C6F7720696E746F20436F6E6669671E
:101BC00075726174696F6E2E680A00504944204135
:101BD00075746F74756E65206661696C656421202B
:101BE00074696D656F75740A0050494420417574BD
:101BF0006F74756E65206661696C6564212054653B
:101C00006D706572617475726520746F6F2068699C
:101C100067680A00204B643A2000204B693A200094
:101C2000204B703A20000A20436C61737369632073
:101C3000504944200A00204B643A2000204B693A66
:101C40002000204B703A20000A204E6F206F7665EE
:101C50007273686F6F740A002054753A2000204B2D
:101C6000753A2000206D61783A2000206D696E3A47
:101C7000200020643A200020626961733A200050FD
:101C80004944204175746F74756E65207374617278
:101C9000740A00504944204175746F74756E652054
:101CA0006661696C6564212054656D70657261744C
:101CB00075726520746F6F20686967680A00504903
:101CC00044204175746F74756E650050494420411D
:101CD00075746F74756E65206661696C656421202A
:101CE000426164206578747275646572206E756DEA
:101CF0006265720A0041425300504C4100507265C7
:101D000068656174202420456E64005072656865C2
:101D100061742024204265640054656D70657261B1
:101D20007475726500F91CF51C436F6F6C646F77F6
:101D30006E005072656865617420240046616E20F3
:101D40005370656564207E00426564004E6F7A7A48
:101D50006C65004D61696E0050726F6265205A209B
:101D60004F666673657400466C6F770046616E203F
:101D70005370656564207E00426564004E6F7A7A18
:101D80006C65005370656564004D61696E001FFFEE
:101D9000FFFFFFFFFF600000000001FF40000000A8
:101DA0000000FF8000000000007F83CF00000C30A7
:101DB0003F87FF80000C301F867980000C000F8C5D
:101DC00030C7838C30E78C30CFC7CC31F38C30DC1C
:101DD000ECEC33B98C30D86C6C33198C30D06C0C83
:101DE00033198C30D86C0C33198C30DC6C0E3B19E9
:101DF0008C30CF7C079F198C30C77C038F19400033
:101E00000000000002600000000000061FFFFFFF4E
:101E1000FFFFF81FFFFFFFFFFFFF60000000000152
:101E2000FF400000000000FF8000000000007F83F2
:101E3000CF00000C303F87FF80000C301F86798078
:101E4000000C000F8C30C7838C30078C30CFC7CC90
:101E500030038C30DCECEC30018C30D86C6C300111
:101E60008C30D06C0C30018C30D86C0C30018C3044
:101E7000DC6C0E38018C30CF7C079C018C30C77C29
:101E8000038C014000000000000260000000000020
:101E9000061FFFFFFFFFFFF81FFFFFFFFFFFFF60B1
:101EA0000000000001FF400000000000FF80000073
:101EB0000000007F83CF00000C003F87FF80000CF4
:101EC000001F867980000C000F8C30C7838C0007C0
:101ED0008C30CFC7CC00038C30DCECEC00018C30B4
:101EE000D86C6C00018C30D06C0C00018C30D86C3C
:101EF0000C00018C30DC6C0E00018C30CF7C078034
:101F0000018C30C77C0380014000000000000260AB
:101F10000000000000061FFFFFFFFFFFF81FFFFF8C
:101F2000FFFFFFFF600000000001FF400000000015
:101F300000FF8000000000007F83CF000000003F12
:101F400087FF800000001F8679800000000F8C3022
:101F5000C7838000078C30CFC7C000038C30DCEC17
:101F6000E000018C30D86C6000018C30D06C000037
:101F7000018C30D86C0000018C30DC6C0000018CCE
:101F800030CF7C0000018C30C77C00000140000095
:101F900000000002600000000000061FFFFFFFFFBE
:101FA000FFF81FFFFFFFFFFFFF600000000001FFC1
:101FB000400000000000FF8000000000007F83CF91
:101FC000000000003F87FF800000001F867980002E
:101FD00000000F8C30C7800000078C30CFC000009D
:101FE000038C30DCE00000018C30D8600000018CF4
:101FF00030D0600000018C30D8600000018C30DCF3
:10200000600000018C30CF700000018C30C7700080
:102010000001400000000000026000000000000617
:102020001FFFFFFFFFFFF81FFFFFFFFFFFFF600025
:1020300000000001FF400000000000FF80000000E1
:1020400000007F83CF000000003F87FF800000007A
:102050001F8679800000000F8C30C0000000078CC4
:1020600030C0000000038C30C0000000018C30C084
:10207000000000018C30C0000000018C30C0000066
:1020800000018C30C0000000018C30C00000000155
:102090008C30C00000000140000000000002600021
:1020A00000000000061FFFFFFFFFFFF81FFFFFFFFC
:1020B000FFFFFF600000000001FF40000000000083
:1020C000FF8000000000007F8000000000003F80D3
:1020D00000000000001F8000000000000F800000D2
:1020E00000000007800000000000038000000000E6
:1020F00000018000000000000180000000000001DD
:10210000800000000000018000000000000180004D
:1021100000000000018000000000000140000000FD
:10212000000002600000000000061FFFFFFFFFFF2D
:10213000F8026D61726C696E66772E6F726700626D
:1021400075676669782D322E302E7800AC202720F6
:10215000A21F1D1F981E131E8E1D70012C019001C1
:102160002701B0012201C0011D01F0011801100278
:10217000130130020E016002090190020401C00245
:10218000FF000003FA004003F5008003F000D003D5
:10219000EB002004E6007004E100E004DC004005F0
:1021A000D700C005D2004006CD00D006C800800789
:1021B000C3003008BE00F008B900C009B400B00A7E
:1021C000AF00B00BAA00D00CA500000EA000500F6D
:1021D0009B00C01096005012910000148C00C01596
:1021E0008700B0178200B0197D00D01B7800001E58
:1021F000730040206E0090226900F02464004027A4
:102200005F0090295A00E02B5500102E500020301E
:102210004B0010324600E033410090353C0010374F
:10222000370070383200A0392D00B03A2800A03BAA
:102230002300603C1E00103D1900903D1400103E2C
:102240000F00703E0A00C03E0500003F0000403F06
:10225000FBFF803FF6FFC03FF1FF2020506C616E16
:102260006E657242756666657242797465733A206E
:10227000002046726565204D656D6F72793A2000C9
:10228000436F6D70696C65643A204A616E20313429
:1022900020323032310A00204C6173742055706452
:1022A000617465643A20323032312D30312D313055
:1022B000207C20417574686F723A20546F6D204CF9
:1022C0007578746F6E0A006275676669782D322EB4
:1022D000302E780A004D61726C696E0020536F6673
:1022E00074776172652052657365740A00205761C6
:1022F000746368646F672052657365740A002042D6
:10230000726F776E206F75742052657365740A0062
:102310002045787465726E616C2052657365740A2D
:1023200000506F77657255700A0073746172740A99
:1023300000473237004D31303031006572726F72B4
:102340002077726974696E6720746F2066696C65A6
:102350000A00446F6E6520736176696E6720666956
:102360006C652E0A004D323900456E6473746F70CF
:1023700073002553202563202563202563202563D2
:1023800000205A3A0020593A0020583A00656E64FD
:1023900073746F7073206869743A200024F4D43029
:1023A00050C38E20C2A24017828B7011127A910DF9
:1023B000816CD90AA861E108C758660761514306D4
:1023C0001E4B5D05C145A7041A411104093D980340
:1023D000713931034036DB0265339102D430540247
:1023E000802E1D02632CEE01752AC501B028A001C4
:1023F000102781018F2564012B244B01E022340139
:10240000AC211F018D200D01801FFC00841EED00FA
:10241000971DDF00B81CD200E61BC600201BBC00C5
:10242000641AB200B219A8000A19A0006A1899002B
:10243000D117910040178B00B516840031167E002D
:10244000B31579003A157300C7146F0058146A0069
:10245000EE1366008813630025135E00C7125B004D
:102460006C12570015125400C111510070114F0029
:1024700021114B00D61049008D1047004610440032
:1024800002104200C00F4000800F3E00420F3C008F
:10249000060F3B00CB0E3800930E37005C0E350064
:1024A000270E3400F30D3200C10D3100900D3000C5
:1024B000600D2E00320D2D00050D2C00D90C2B00C7
:1024C000AE0C2900850C29005C0C2700350C270078
:1024D0000E0C2600E80B2400C40B2400A00B2300E4
:1024E0007D0B23005A0B2100390B2100180B200013
:1024F000F80A1F00D90A1E00BB0A1E009D0A1D0013
:10250000800A1D00630A1C00470A1B002C0A1B00DE
:10251000110A1A00F7091A00DD091900C409190087
:10252000AB091900920917007B091800630917000D
:102530004C09160036091600200916000A09150074
:10254000F5081500E0081400CC081400B8081400C1
:10255000A4081400900813007D0812006B081300F3
:102560005808120046081200340811002308110010
:102570001208110001081100F0071000E007100018
:10258000D0071000C0071000B0070F00A10710000F
:1025900091070E0083070F0074070F0065070E00F8
:1025A00057070E0049070E003B070D002E070E00CF
:1025B00020070D0013070D0006070D00F9060C009B
:1025C000ED060D00E0060C00D4060C00C8060C0059
:1025D000BC060C00B0060C00A4060B0099060C000B
:1025E0008D060B0082060B0077060B006C060B00B5
:1025F00061060A0057060B004C060A0042060A0054
:1026000038060A002E060A0024060A001A060A00E6
:102610001006090007060A00FD050900F405090077
:10262000EB050900E2050900D9050900D0050900FC
:10263000C7050900BE050900B5050800AD0508007D
:10264000A50509009C050800940508008C050800F4
:10265000840508007C050800740508006C05070067
:10266000650508005D050700560508004E050700D2
:102670004705070040050800380507003105070039
:102680002A050700230507001C050600160507009C
:102690000F0507000805060002050700FB040600F9
:1026A000F5040700EE040600E8040600E204070053
:1026B000DB040600D5040600CF040600C9040600AA
:1026C000C3040600BD040600B7040600B1040500FB
:1026D000AC040600A6040600A00405009B04060046
:1026E00095040500900406008A0405008504050091
:1026F000800406007A0405007504050070040500D6
:102700006B04050066040500610405005C04050017
:1027100057040500520405004D0405004804050057
:10272000430405003E0404003A0405003504050096
:10273000300404002C0405002704040023040500D1
:102740001E0404001A040400160405001104040009
:102750000D0404000904050004040400000404003E
:10276000FC030400F8030400F4030400F003040075
:10277000EC030400E8030400E4030400E0030400A5
:10278000DC030400D8030400D4030400D0030400D5
:10279000CC030400C8030300C503030024F404D9D8
:1027A000201BC40C5C0E9804C4095F02650771010C
:1027B000F405F900FB04B30048048700C103690075
:1027C0005803550003034500BE023A00840231005D
:1027D00053022A002902250004022000E4011C0003
:1027E000C8011900AF0117009801140084011300FB
:1027F000710110006101100051010E0043010D0034
:1028000036010B002B010B0020010B001501090004
:102810000C01090003010800FB000800F300080098
:10282000EB000700E4000600DE000600D80006000A
:10283000D2000600CC000500C7000500C20005005C
:10284000BD000400B9000400B5000400B10004009C
:10285000AD000400A9000400A5000300A2000300CD
:102860009F0004009B0003009800030095000200F5
:1028700093000300900003008D0002008B00030012
:10288000880002008600020084000300810002002C
:102890007F0002007D0002007B0002007900020040
:1028A000770001007600020074000200720001004F
:1028B000710002006F0002006D0001006C00020058
:1028C0006A00010069000200670001006600010063
:1028D0006500010064000200620001006100010067
:1028E000600001005F0002005D0001005C0001006B
:1028F0005B0001005A00010059000100580001006E
:10290000570001005600010055000100540001006D
:10291000530000005300010052000100510001006B
:10292000500001004F0001004E0000004E00010069
:102930004D0001004C0001004B0000004B00010065
:102940004A00010049000100480000004800010061
:10295000470001004600000046000100450000005D
:102960004500010044000100430000004300010055
:10297000420000004200010041000000410001004F
:10298000400001003F0000003F0001003E00000049
:102990003E0001003D0000003D0001003C00000041
:1029A0003C0000003C0001003B0000003B00010037
:1029B0003A0000003A00010039000000390001002F
:1029C0003800000038000000380001003700000027
:1029D000370001003600000036000000360001001C
:1029E0003500000035000000350001003400000013
:1029F0003400000034000100330000003300000008
:102A000033000100320000003200000032000100FB
:102A100031000000310000003100010030000000F2
:102A200030000000300001002F0000002F000000E7
:102A30002F0000002F0001002E0000002E000000DB
:102A40002E0001002D0000002D0000002D000000D0
:102A50002D0001002C0000002C0000002C000000C4
:102A60002C0001002B0000002B0000002B000000B8
:102A70002B0001002A0000002A0000002A000000AC
:102A80002A000100290000002900000029000000A0
:102A90002900000029000100280000002800000093
:102AA0002800000028000000280001002700000086
:102AB0002700000027000000270000002700010079
:102AC000260000002600000026000000260000006E
:102AD0002600010025000000250000002500000060
:102AE0002500000025000000250001002400000052
:102AF0002400000024000000240000002400010045
:102B00002300000023000000230000002300000039
:102B10002300000023000000230001002200000029
:102B2000220000002200000022000000220000001D
:102B3000220001002100000021000000210000000F
:102B40002100000021000000210000002100010000
:102B500020000000200000002000000020000000F5
:102B600020000000200000002000000020000100E4
:102B70001F0000001F0000001F0000001F000000D9
:102B80001F0000001F0000001F0001001E000000C9
:102B90001E0000001E0000001E00000010280000A3
:102BA0004E1C0000D6110000400A00008A050000FB
:102BB000E302000079010000BE00000020436F75B1
:102BC0006E7420583A00496E76616C6964206578AD
:102BD0007472756465720A00220A00556E6B6E6F1E
:102BE000776E20636F6D6D616E643A202200DB0F9B
:102BF000C93F45BCDA3F8FB30240FCF027405694F2
:102C00006140FE4B9B4084A5D840E0231841346AC4
:102C10005641E859974164DBD5416E271742B4B756
:102C20005542CE1A9742C8AED542B5885A43D4060B
:102C300084BFA65FA7BF7443E0BF10B11AC01C2CAD
:102C400058C0E8F697C0B849D6C04E4E17C124D335
:102C500055C1802497C1A0B5D5C1121A17C244AE80
:102C600055C2781797C26CACD5C267885AC3207416
:102C70006F6F206C6F6E6720657874727573696F03
:102C80006E2070726576656E7465640A0020636FED
:102C90006C6420657874727573696F6E20707265EC
:102CA00076656E7465640A0053746F7265205365AF
:102CB0007474696E6773004C6F616420536574743B
:102CC000696E6773004C6576656C20436F726E6544
:102CD00072730050726F6265205A204F666673658A
:102CE00074004661646520486569676874004F66D2
:102CF00066004F6E00426564204C6576656C696EB7
:102D0000670045646974204D657368004C6576659D
:102D10006C20426564004732380A47323900473236
:102D200039004175746F20486F6D65004D6F74698F
:102D30006F6E0053746F77004465706C6F79005349
:102D4000572D4D6F64650053656C662D5465737423
:102D500000526573657400426564004E6F7A7A6C48
:102D6000650046616E20537065656400436F6E6652
:102D7000696775726174696F6E004C6F616420538E
:102D8000657474696E677300526573746F72652041
:102D900044656661756C74730053746F726520537B
:102DA000657474696E67730050726568656174203C
:102DB0002420436F6E6600506F776572204F7574E4
:102DC000616765004F6666004F6E0052756E6F75E5
:102DD000742053656E736F7200424C546F75636854
:102DE0000050726F6265205A204F666673657400EA
:102DF000416476616E6365642053657474696E67BF
:102E000073004D61696E0042656400453100626582
:102E100064002C2073797374656D2073746F707007
:102E2000656421204865617465725F49443A2000F9
:102E300048656174696E67204661696C6564004825
:102E4000656174696E67206661696C656400202D38
:102E500020496E76616C696420657874727564656A
:102E600072206E756D62657220210A0054484552C9
:102E70004D414C2052554E4157415900546865729E
:102E80006D616C2052756E61776179004572723A9E
:102E9000204D415854454D50004D415854454D50DA
:102EA00020747269676765726564004572723A20C2
:102EB0004D494E54454D50004D494E54454D5020BE
:102EC00074726967676572656400202F0020424054
:102ED0003A0020403A0020573A00436F6D6D697404
:102EE00020562D746F6F6C204D6978004379636CA8
:102EF00065204D697800436F6D706F6E656E74204C
:102F00003D004D6978657200562D746F6F6C7320AB
:102F100057657265205265736574003F0043616EAA
:102F200063656C00526573657400526576657273F3
:102F300065204772616469656E74005425692D3E91
:102F4000542569004772616469656E740052657347
:102F5000657420562D746F6F6C73004D6978004155
:102F6000637469766520562D746F6F6C004D6169CE
:102F70006E002100486F74656E6420746F6F20636B
:102F80006F6C64004261636B0050726F63656564CF
:102F9000004F6666004F6E00536F667420456E6486
:102FA00073746F7073004D6F74696F6E0044697352
:102FB00061626C65205374657070657273004D3882
:102FC0003400426564204C6576656C696E67004824
:102FD0006F6D65205A004732385A00486F6D652082
:102FE00059004732385900486F6D65205800473204
:102FF0003858004175746F20486F6D65004732384E
:10300000004D61696E0043616E6E6F74206F706574
:103010006E207375626469722000534420496E69A2
:1030200074204661696C0053442063617264206FB0
:103030006B0A006F70656E526F6F74206661696C09
:1030400065640A00766F6C756D652E696E69742013
:103050006661696C65640A004E6F205344206361A9
:1030600072640A000A4D3234004D32332025730059
:103070002E0A006F70656E206661696C65642C2095
:1030800046696C653A200046696C652073656C651D
:10309000637465640A002053697A653A20004669C2
:1030A0006C65206F70656E65643A2000454E442063
:1030B000535542524F5554494E450A002220706FD5
:1030C00073002220706172656E743A22005355427B
:1030D000524F5554494E452043414C4C2074617227
:1030E0006765743A220053756263616C6C204F7699
:1030F0006572666C6F77004578636565646564200A
:103100006D617820535542524F5554494E452064C5
:10311000657074683A002E0A0044656C6574696FC6
:103120006E206661696C65642C2046696C653A2086
:103130000046696C652064656C657465643A002FAF
:103140006175746F25632E670057726974696E67C5
:1031500020746F2066696C653A200066726573683A
:1031600000646F696E67002066696C653A20004EE6
:103170006F77200020453A00205A3A0020593A0043
:10318000583A0000002200250028002B002E0031B4
:1031900000340002010000050108010B01000021BC
:1031A00000240027002A002D003000330001010018
:1031B00000040107010A01050505050705080808BF
:1031C00008020202020A0A080804040404010101B8
:1031D00001010101010303030303030303040707C0
:1031E000070C0C0C0C0C0C0C0C020202020606065E
:1031F00006060606060B0B0B0B0B0B0B0B01021046
:103200002020080810204010204080020102010800
:1032100004020101020408102040808040201008B0
:103220000402018004020180402010080402010809
:103230000402010102040810204080010204081069
:10324000204080252900257C002028004F4646008C
:103250004F4E00203B2043757272656E74205A00F9
:10326000203B20456E6400203B2053746172740043
:10327000202854004772616469656E74204D697836
:10328000200020496E76616C696420452073746566
:1032900070706572200020452073746570706572CF
:1032A000206E6F74207370656369666965640A00D7
:1032B000496E736572742066696C616D656E742009
:1032C000616E6420707265737320627574746F6EC2
:1032D0000A00507265737320627574746F6E207487
:1032E0006F2068656174206E6F7A7A6C650A004998
:1032F0006E736572742066696C616D656E742061B1
:103300006E6420707265737320627574746F6E0AD8
:10331000004D32342053256C642054256C640047E2
:1033200039322E3920452573004731204625640067
:103330004739322E39205A2573004731205A302020
:1033400046323030004731205825732059257320EC
:103350004633303030004D34323020532569205A06
:103360002573004D313036205025692053256900E2
:103370004D3230302044257300473238523058598E
:10338000004739322E39204530205A300A47315A09
:103390002573004D31303920532569004D313930C6
:1033A00020532569004D343230205330205A3000EC
:1033B00020496E76616C6964206578747275646505
:1033C000722000506C6561736520526573657400EE
:1033D0005052494E5445522048414C5445440025D2
:1033E000533A202553004B494C4C45442E20005065
:1033F00072696E7465722068616C7465642E206BEE
:10340000696C6C28292063616C6C6564210A005327
:10341000544F505045442E20005072696E746572AE
:103420002073746F707065642064756520746F20FC
:103430006572726F72732E204669782074686520F9
:103440006572726F7220616E6420757365204D39EC
:10345000393920746F20726573746172742E20285C
:1034600054656D7065726174757265206973207240
:10347000657365742E2053657420697420616674C9
:1034800065722072657374617274696E67290A00CF
:103490006563686F3A004572726F723A0042696CF8
:1034A000696E656172204C6576656C696E67204750
:1034B0007269643A0A0021212053544F50206361FD
:1034C0006C6C65642062656361757365206F66204E
:1034D000424C546F756368206572726F72202D20A4
:1034E000726573746172742077697468204D39391C
:1034F000390A0021212053544F502063616C6C65C0
:10350000642062656361757365206F6620424C5468
:103510006F756368206572726F72202D20726573FB
:10352000746172742077697468204D3939390A00E2
:10353000486F74656E6420746F6F20636F6C640AEB
:10354000002A2053746570732F6D6D005A205374D8
:103550006570732F6D6D00592053746570732F6DF6
:103560006D00582053746570732F6D6D0041647643
:10357000616E6365642053657474696E6773003FA0
:103580000043616E63656C00496E6974004D3432AE
:103590003800496E697469616C697A6520454550E7
:1035A000524F4D0046696C616D656E740054656DD7
:1035B00070657261747572650053746570732F6DF8
:1035C0006D0050726F6265204F666673657473009C
:1035D0004A756E6374696F6E20446576004163635B
:1035E000656C65726174696F6E0056656C6F6369B6
:1035F00074790053657420486F6D65204F6666735B
:1036000065747300436F6E66696775726174696F84
:103610006E003F004E65787420506F696E740044F0
:103620006F6E65004E65787400486F6D696E672037
:1036300058595A005A2056616C756500496E646588
:1036400078205900496E646578205800486F6D698C
:103650006E67204661696C6564006F70656E00542A
:103660005249474745524544003A20000000200097
:103670002300260029002C002F003200000100004A
:1036800003010601090166696C616D656E74007A5B
:103690005F6D696E00795F6D696E00785F6D696E50
:1036A000005265706F7274696E6720656E64737422
:1036B0006F70207374617475730A0020746F6F20CB
:1036C0006C6F6E6720657874727573696F6E2070A9
:1036D000726576656E7465640A0020636F6C6420A1
:1036E000657874727573696F6E2070726576656E39
:1036F0007465640A00486F6D652025732573257312
:103700002046697273740000007F4300007F43000D
:10371000007A430000A0C000000000000000005339
:10372000657474696E67732053746F7265640055B5
:103730004E4C4F41442046494C414D454E54004C5F
:103740004F41442046494C414D454E540046494C5A
:10375000414D454E54204348414E4745004D37307A
:103760003220542564004D3630302042302054251C
:1037700064004D373032203B2564004D3730312016
:10378000542564004368616E67652046696C616D0D
:10379000656E74005072656865617420437573745A
:1037A0006F6D00507265686561742024004261632A
:1037B0006B004D363030204230205425690043687C
:1037C000616E67652046696C616D656E74202A00C4
:1037D0004D61696E00436F6E74696E7565004F666A
:1037E00066004F6E0052756E6F75742053656E7370
:1037F0006F72005075726765206D6F72650052457B
:1038000053554D45204F5054494F4E533A00505256
:10381000494E54205041555345440020204E6F7A64
:103820007A6C653A20005061726B696E672E2E2E9D
:103830000000005761697420666F720066696C61F0
:103840006D656E74206368616E676500746F2073C8
:1038500074617274005761697420666F72006669E2
:103860006C616D656E7420756E6C6F616400004EE6
:103870006F7A7A6C652068656174696E6700506C58
:103880006561736520776169742E2E2E0000507279
:1038900065737320627574746F6E00746F20686551
:1038A0006174206E6F7A7A6C650000496E73657280
:1038B000742066696C616D656E7400616E64207061
:1038C0007265737320627574746F6E00746F206319
:1038D0006F6E74696E7565005761697420666F72EA
:1038E0000066696C616D656E74206C6F61640000C8
:1038F000507265737320427574746F6E00746F201C
:10390000726573756D65207072696E740000576121
:10391000697420666F72207072696E7400746F2013
:10392000726573756D652E2E2E00005761697420C7
:10393000666F720066696C616D656E742070757279
:1039400067650000536E346B3300496E76616465C1
:10395000727300427269636B6F75740041626F75B8
:1039600074205072696E7465720028323630202FD0
:103970002032202D203130290030004245443A20A9
:103980004550434F53203130304B0052756E6177B4
:1039900061792057617463683A204F4E004D617819
:1039A0002054656D700028323630202B20313529A7
:1039B000004D696E2054656D7000300045313A202D
:1039C0004550434F53203130304B00505355004742
:1039D000656E657269630050726F746F636F6C001F
:1039E000312E3000426175640032353030303000A5
:1039F0004754323536302056332E300042696C69D8
:103A00006E656172204C6576656C696E67004578FD
:103A1000747275646572730031006D61726C696EE9
:103A200066772E6F72670047656565746563682009
:103A30004132305400323032312D30312D313000AE
:103A40006275676669782D322E302E78004D61726E
:103A50006C696E004F46460A004661646520486501
:103A6000696768742000426564204C6576656C69FE
:103A70006E6720004661696C656420746F20656E16
:103A800061626C6520426564204C6576656C696E88
:103A9000670A00496E76616C6964206D6573682EF3
:103AA0000A0050726F62696E6720506F696E740011
:103AB00025532025692F2569002E0A002F005072FA
:103AC0006F62696E67206D65736820706F696E74D0
:103AD0002000202844525952554E2900473239209F
:103AE0004175746F20426564204C6576656C696E23
:103AF00067003F20284C2C522C462C4229206F7501
:103B000074206F6620626F756E64732E0A003F2802
:103B100056296572626F7365206C6576656C2069E5
:103B20006D706C61757369626C652028302D342965
:103B30002E0A00426164205A2076616C75650A0085
:103B40004E6F2062696C696E65617220677269648C
:103B50000A00205200416363656C65726174696F8D
:103B60006E3A205000204D3932205400204D393219
:103B700020580020580020204D61783A2000200075
:103B800020204D696E3A2000536F667420656E6484
:103B900073746F70733A20005654726176204D69C9
:103BA0006E00566D696E00566D6178202A00566D64
:103BB0006178204500566D6178205A00566D617815
:103BC000205900566D6178205800416D6178202A97
:103BD00000416D6178204500416D6178205A0041B7
:103BE0006D6178205900416D6178205800412D5455
:103BF000726176656C00412D526574726163740068
:103C0000416363656C0050726F6265205A204F6695
:103C1000667365740050726F62652059204F666646
:103C20007365740050726F62652058204F6666732A
:103C30006574000000A0C0000000000000000057F4
:103C400061726E696E673A20486F6D696E672042D7
:103C5000756D702044697669736F72203C20310A5B
:103C6000000202040000824300007F4300007A4308
:103C70000000A0400000A04000000040FFFFFF0047
:103C800000000100000001000080005555550000B3
:103C900000400033333300AAAA2A004992240000CE
:103CA000002000C7711C0099991900D145170055D3
:103CB0005515003BB11300244912001111110000E9
:103CC0000010000F0F0F00E3380E0043790D00CCF9
:103CD000CC0C00C3300C00E8A20B0064210B00AA3E
:103CE000AA0A00703D0A009DD80900427B09009293
:103CF000240900DCD308008888080010420800006E
:103D0000000800F0C10700878707007550070071A1
:103D10001C07003EEB0600A1BC0600699006006689
:103D2000660600703E06006118060017F405007470
:103D3000D105005BB00500B2900500627205005528
:103D400055050078390500B81E0500050505004E2B
:103D5000EC040087D40400A1BD040090A70400492E
:103D6000920400C17D0400EE690400C756040044BB
:103D70004404005C320400082104004110040000E7
:103D80000004003FF00300F8E0030026D20300C364
:103D9000C30300CCB503003AA803000A9B03003814
:103DA0008E0300C08103009F750300D0690300509B
:103DB0005E03001D53030034480300913D030033AC
:103DC00033030016290300381F0300971503003042
:103DD0000C0300030303000BFA020049F10200BACE
:103DE000E802005CE002002DD802002DD00200594C
:103DF000C80200B0C0020031B90200DAB10200AA64
:103E0000AA0200A0A30200BC9C0200FA9502005C7A
:103E10008F0200DF88020082820200457C020027B8
:103E200076020027700200436A02007C640200D020
:103E30005E02003F590200C8530200FFFDFCFAF881
:103E4000F6F4F2F0EEECEAE9E7E5E3E1E0DEDCDAF5
:103E5000D9D7D5D4D2D0CFCDCBCAC8C7C5C3C2C09D
:103E6000BFBDBCBAB9B7B6B4B3B2B0AFADACAAA916
:103E7000A8A6A5A4A2A1A09E9D9C9A999897959466
:103E80009392908F8E8D8B8A898887868483828196
:103E9000807F7E7D7B7A79787776757473727170A6
:103EA0006F6E6D6C6B6A696867666564636261609A
:103EB0005F5E5D5C5B5A5958585756555453525182
:103EC00050504F4E4D4C4B4A4A4948474646454450
:103ED00043424241403F3E3E3D3C3B3B3A3938380D
:103EE00037363535343332323130302F2E2E2D2CBB
:103EF0002B2B2A292928272726252524232322215D
:103F00002120201F1E1E1D1C1C1B1B1A19191818EE
:103F1000171616151514131312121111100F0F0E78
:103F20000E0D0D0C0C0B0A0A0909080807070606F6
:103F3000050504040303020201000000000A0B024D
:103F4000090C0D0E0807030401000000000000002A
:103F50000000000000000000000000000000000061
:103F6000000000000000001211100000000000001E
:103F70000000000000000000000000000000000041
:103F800000004D6F76652025736D6D004D6F766571
:103F900020302E316D6D004D6F766520316D6D00D6
:103FA0004D6F76652031306D6D004D6F7665204127
:103FB000786973004578747275646572004D6F7628
:103FC00065205A004D6F76652059004D6F7665204B
:103FD00058005072696E742066726F6D204D656472
:103FE00069610000FE0003FF8007C7C00701E00011
:103FF00000E00000F00000700400700E00701F0070
:10400000703F80F00E00E00F01E007C7C003FF80A3
:1040100000FE0000FE0003FF8007C7C00F01E00E96
:1040200000E03F80F01F00700E0070040070000080
:10403000700000F00000E00701E007C7C003FF8048
:1040400000FE000E000E000E000E000E000E000E10
:10405000000E007FC03F801F000E00040004000E11
:10406000001F003F807FC00E000E000E000E000EED
:10407000000E000E000E00FFFFFF7F80FFC0FFC09C
:10408000FFC07F807F80FFC0FFC0FFC03F001E00D9
:104090000C0050726F6265205A204F66667365741B
:1040A00000454550524F4D20496E697469616C69F5
:1040B0007A65640A000000FA430000FA430000F049
:1040C000410000F0420000A0420000A0420000C8F1
:1040D000430000D743E8030000E803000096000017
:1040E00000401F00003B20003A0A0020204D3630DF
:1040F00033200020440020204D343132205300462C
:10410000696C616D656E742072756E6F7574207365
:10411000656E736F723A002055004C0046696C6101
:104120006D656E74206C6F61642F756E6C6F616469
:10413000206C656E677468733A0020204D38353105
:104140002058005A2D50726F6265204F6666736565
:10415000740020204D343133205300506F77657246
:104160002D4C6F7373205265636F766572793A00D8
:1041700020440020490020204D33303420500020BE
:10418000440020490020204D333031205000504958
:10419000442073657474696E67733A00204600208A
:1041A000420020480020204D3134352053004D611D
:1041B00074657269616C20686561747570207061E6
:1041C00072616D65746572733A00204A0020204761
:1041D0003239205720490020204D343230205300FE
:1041E0004175746F20426564204C6576656C696E1C
:1041F000673A0020204D323036205800486F6D65F8
:10420000206F66667365743A00204A0020530020D0
:10421000204D323035204200416476616E63656422
:104220003A20423C6D696E5F7365676D656E745FC1
:1042300074696D655F75733E20533C6D696E5F6692
:10424000656564726174653E20543C6D696E5F748F
:10425000726176656C5F66656564726174653E2047
:104260004A3C6A756E635F6465763E0020540020A8
:10427000520020204D323034205000416363656C81
:1042800065726174696F6E2028756E6974732F731F
:1042900032293A20503C7072696E745F61636365C5
:1042A0006C3E20523C726574726163745F6163633B
:1042B000656C3E20543C74726176656C5F6163632B
:1042C000656C3E0020204D32303120540020204DBE
:1042D0003230312058004D6178696D756D20416331
:1042E00063656C65726174696F6E2028756E6974A0
:1042F000732F7332293A0020450020204D3230338D
:10430000205400205A0020590020204D3230332004
:1043100058004D6178696D756D20666565647261E0
:104320007465732028756E6974732F73293A00536E
:10433000746570732070657220756E69743A002020
:10434000440020204D3230302053002044697361F6
:10435000626C65640A0046696C616D656E742073F9
:10436000657474696E67733A0020204D31343920CA
:1043700043203B20556E69747320696E2043656C41
:10438000736975730A0020286D6D2900202047325B
:1043900031202020203B20556E69747320696E20E7
:1043A0006D6D0050726F62696E67204661696C6561
:1043B000640A0050726F62696E67204661696C65BD
:1043C0006400205A3A200020593A200042656420B7
:1043D000583A200020573A00476565657465636860
:1043E00020413230542052656164792E0050726948
:1043F0006E74696E672E2E2E005072696E74205096
:10440000617573656400AA018A0111241FBECFEF94
:10441000D1E2DEBFCDBF00E00CBF13E0A0E0B2E010
:10442000EEEEF8E003E00BBF02C007900D92A83754
:10443000B107D9F729E1A8E7B3E001C01D92A83A76
:10444000B207E1F712E2C4E0D2E200E006C0219731
:104450000109802FFE010F94B680C330D10780E0A0
:104460000807A9F70F94F2680D9465840C94000076
:104470002F923F924F925F926F927F928F929F9274
:10448000AF92BF92CF92DF92EF92FF920F931F9362
:10449000CF93DF93CDB7DEB7E5970FB6F894DEBFC5
:1044A0000FBECDBF8DAB209181032CAB81E08093FB
:1044B000810380912B058D3409F489C4843511F46E
:1044C0000C948633873411F00C949633809129052F
:1044D00090912A058C31910509F436C1D8F48430C5
:1044E000910530F42091C00782309105A0F13DC0C4
:1044F0008531910511F40C94983320F4049709F454
:10450000C5C061C48A31910509F4FFC04B9709F415
:1045100000C159C48C33910509F4C1C150F48E31E6
:10452000910509F43FC108F41EC18A9709F46BC3D1
:104530004AC48A35910509F4ACC220F4CD9709F438
:10454000F6C141C48B35910509F4A7C28C3591059C
:1045500009F4A8C238C4213011F00C9498330E9499
:1045600054FD0F9437140C949833213011F00C94AF
:10457000983311E0029709F010E00E9454FD19826F
:104580001A821B821C821D821E821F82188682E56F
:104590000E94B679882309F449C00E9431796B01E1
:1045A0007C0120E030E0A9010F94BB79882309F455
:1045B00053C08091500290915102A0915202B0914B
:1045C000530288A799A7AAA7BBA7209154023091AC
:1045D0005502409156025091570228AB39AB4AAB75
:1045E0005BAB80907A1990907B19A0907C19B09069
:1045F0007D1940907E1950907F19609080197090BD
:104600008119A5019401BC01CD010F94BB798111E1
:104610000C94A133A301920168A979A98AA99BA945
:104620000F94BB798823C1F00C94A13389E40E94D4
:10463000B679882331F00E94317969837A838B833C
:104640009C838AE40E94B679882331F00E943179F4
:104650006D837E838F83988720E030E0A901698194
:104660007A818B819C810F94BB7981110C94553494
:1046700020E030E0A9016D817E818F8198850F94C3
:10468000BB7981110C9455340C94683480E50E94F8
:10469000B679882329F00F94DE336B017C0103C0C7
:1046A000C12CD12C760183E50E94B679882361F074
:1046B0000E94317920E030E04AE754E40F94217AF7
:1046C0000F9444826B017C010F94CB458091770459
:1046D000811105C060E089EC96E00E94F26B0F94B6
:1046E000E34EC60ED71EE81EF91E0F94E34EDC0102
:1046F000CB018C199D09AE09BF09B7FD02C00C940E
:10470000983380E00E94453CF0CF0E94E7790C94FA
:10471000983387E00F94291381110C9498338CE01F
:10472000E0EBF2E0DE01119601900D928A95E1F73F
:1047300060E070E080E50E949DFBBE016F5F7F4FEF
:104740000E94919F0C94983387E00F940D13811170
:104750000C946F3460E08FE40E94D27981110C9444
:1047600098330C946F340F94E34E60938E197093CA
:104770008F19809390199093911987E00F942913C2
:1047800081110C94983380918D12882311F40C942C
:10479000443660E08FE40E94D27981110C94983302
:1047A0000C9444360091471410914814D8012D916F
:1047B0003D914D915C9160915002709151028091B8
:1047C0005202909153020F94D180AB01BC0188E555
:1047D0000E94739169837A838B839C83F80124817F
:1047E00035814681578160915402709155028091C4
:1047F0005602909157020F94D180AB01BC0189E51C
:104800000E9473916D837E838F839887BE016B5F57
:104810007F4FCE0101960F941834882311F40C9425
:10482000983380E00F9498030F94391761E085E482
:104830000E94D279182F21E0482FBE016B5F7F4F75
:10484000CE0101960F9442616B017C019B01AC018A
:104850000F94C383811119C049815A816B817C8176
:104860008FEF96E00F948A084D815E816F81788585
:104870008AEF96E00F948A08B701A60185EF96E0CB
:104880000F948A088AE00E94193B0F942017113078
:1048900011F40F94FD330F9498190C94983360E041
:1048A00083E50F94C735833040F00F94BB0887E051
:1048B00097E00F94E4070C9498334091580250917C
:1048C000590260915A0270915B020091540210915A
:1048D000550220915602309157029CE0899FF001C9
:1048E0001124EE57FC4FC0905002D0905102E0903E
:1048F0005202F0905302C082D182E282F38204839A
:10490000158326833783408751876287738721E029
:1049100030E0D90102C0AA0FBB1F8A95E2F7CD0192
:104920009091A603892B8093A6030C94983360E0A2
:1049300083E50F94C735082F833040F00F94BB08F0
:1049400084E397E00F94E4070C949833682F70E0A9
:104950008091A60390E0A0E0B0E0002E04C0B695E0
:10496000A795979587950A94D2F780FD02C00C947D
:10497000983380912E0587FD06C080912F058370A6
:1049800011F40C9498338FE197E00F949B08BAE7E9
:104990008B2EB9E19B2E10E5C12E12E0D12EBCE08A
:1049A0000B9F80011124E12CF12C88E5782E872DB6
:1049B0000E946879882391F0F801EE0DFF1DEE57F3
:1049C000FC4F20803180428053800E9431799B01CE
:1049D000AC01C201B1010F94D18005C0F601608124
:1049E0007181828193815401D4016D937D938D9364
:1049F0009D934D0180E20E94193B872D0E94193B37
:104A0000F501608171818281938142E00E94A93B1E
:104A10007394F4E0EF0EF11C24E0C20ED11C3CE0D4
:104A2000E316F10421F68AE00E94193B80904C02C3
:104A300090904D02A0904E02B0904F0240E050E0A6
:104A4000BA0186E40E9473916B017C0120E030E0A2
:104A5000A9010F943183181684F420E030E040E778
:104A600052E4C701B6010F94CB8160934C0270935E
:104A70004D0280934E0290934F020F943714809210
:104A80004C0290924D02A0924E02B0924F020C94B2
:104A90009833109288120C9498338FE08093881288
:104AA0000C94983380912805882349F1893009F0C6
:104AB000A6C0FCEBAF2EF2E0BF2EA0E5EA2EA2E0EE
:104AC000FA2ED12C00E010E0D5018D915D010E94FD
:104AD000B679882369F00E943179F7016083718388
:104AE00082839383133011F401E002C0DD24D39458
:104AF0001F5FF4E0EF0EF11C143031F775C06CEB62
:104B0000262E62E0362E7DEAE72E72E1F72E20E5B2
:104B100032E039A728A7EDE8CE2EE3E1DE2E00E053
:104B200010E0D1018D911D010E94B679882309F40E
:104B30004BC00E9431792B013C01133049F0F60142
:104B400020813181428153810F94D0802B013C011F
:104B5000A8A5B9A52D913D914D915C91C301B201DC
:104B60000F94D0804B015C012DEB37E346E855EB09
:104B70000F94318387FD0AC02DEB37E346E855E3F8
:104B8000C501B4010F94BB791816F4F4133051F435
:104B900040925C0250925D0260925E0270925F02EF
:104BA00001E012C0A5019401F70160817181828149
:104BB00093810F94D180D7016D937D938D939C93B6
:104BC0001397812F0F94054B1F5FB4E0EB0EF11C80
:104BD000E8A5F9A53496F9A7E8A7F4E0CF0ED11C13
:104BE000143009F09ECF05C0DD2019F00F949619FE
:104BF00006C0002321F08CE592E00F9478490F94D1
:104C000098190C9498338091C007813011F00C945E
:104C1000983389E40E94B679E82E882321F00E9417
:104C20002D79082F01C000E08AE40E94B679F82EA1
:104C3000882321F00E942D79182F01C010E0EE206A
:104C400011F0033020F4FF2041F0133030F08CE4F9
:104C500097E00F94E4070C94983380E1E0E5F2E0EC
:104C6000AAE7B9E101900D928A95E1F7EE2019F1DA
:104C7000602F000F770B880B990B0F94C27920914E
:104C800031193091321940913319509134190F94E0
:104C9000217A2091231830912418409125185091A1
:104CA00026180F94D18060937A1970937B198093A2
:104CB0007C1990937D19FF2019F1612F110F770B4B
:104CC000880B990B0F94C2792091351930913619C0
:104CD00040913719509138190F94217A2091271853
:104CE000309128184091291850912A180F94D1809A
:104CF00060937E1970937F19809380199093811926
:104D000060E080E50E94D2798823C1F1EE20D1F0E5
:104D1000E0914714F0914814208131814281538100
:104D200060917A1970917B1980917C1990917D190D
:104D30000F94D08060937A1970937B1980937C19BB
:104D400090937D19FF20D1F0E0914714F091481421
:104D5000248135814681578160917E1970917F1938
:104D600080918019909181190F94D08060937E1961
:104D700070937F19809380199093811940E050E0DF
:104D8000BA0186E40E9473916B017C0120E030E05F
:104D9000A9010F94318318164CF420E030E040E76D
:104DA00052E4C701B6010F94CB8103C060E070E00C
:104DB000CB0169837A838B839C83CE0101960F9408
:104DC00058170C9498330E9499C60C94983380918C
:104DD000290590912A058139910509F419C708F030
:104DE00001C18235910509F4E8C508F082C08A3115
:104DF000910509F419C370F58431910509F479C25C
:104E000078F48131910509F460C228F4029708F41E
:104E100024C20C948333429709F4DDC50C94833388
:104E20008731910509F49AC260F48531910509F43E
:104E300091C2469711F00C9483330E94D6E60C94ED
:104E400098338831910509F49EC2499709F4D6C276
:104E50000C9483338F31910509F491C378F48C312C
:104E6000910509F444C308F4EDC28D31910509F4AC
:104E700046C34E9709F44AC30C9483338C3491058E
:104E800009F428C468F48032910509F44FC38B34C7
:104E9000910511F00C9483330F944A1B0C949833B2
:104EA0008D34910509F41AC48135910511F00C94E3
:104EB00083330E945CD20F94831B0F94DC450E94C5
:104EC00007391092211883E0EEE1F8E1DF011D922D
:104ED0008A95E9F768EE73E080E090E00F9426078A
:104EE0000E940D3960E08BE798E00E94F26B0C9411
:104EF00098338E36910509F479C488F58836910582
:104F000009F4F0C380F48435910509F464C508F40C
:104F10005BC58535910509F461C58C35910509F4AA
:104F200080C50C9483338B36910509F452C450F438
:104F30008936910509F4F7C38A36910509F407C447
:104F40000C9483338C36910509F4A6C48D369105F3
:104F500011F00C9483330E948A9D0C94983385370A
:104F6000910509F4FCC510F58137910509F499C440
:104F700080F48F36910509F44AC48037910511F009
:104F80000C94833341E060E070E088E498E00F9493
:104F9000430A8237910509F4DBC58337910511F087
:104FA0000C9483330E94509B0C949833883791055E
:104FB00009F41FC668F48637910509F4E0C5873700
:104FC000910511F00C9483330F94431A0C94983389
:104FD0008937910509F415C68C38910509F488C400
:104FE0000C948333803321E0920711F40C945131F7
:104FF00008F081C08D3C910509F45AC7C8F5863A7E
:10500000910509F4B4C6C0F4833A910509F474C655
:1050100030F48B39910509F4AAC40C948333843A93
:10502000910509F491C6853A910511F00C948333EA
:105030000E94B0FC0C949833893C910509F4E0C6B9
:1050400050F48E3B910509F472C4883C910509F433
:1050500091C60C9483338B3C910509F401C78C3CB9
:10506000910511F00C9483330F9468330C949833AA
:10507000883141E0940709F4E5C7D0F4833D9105F8
:1050800009F446C758F48E3C910511F00C94833313
:1050900059EBE52E52E1F52E10E01EC78C3D91052F
:1050A00009F439C78D3D910509F476C70C94833313
:1050B0008D32A1E09A0711F40C94D13068F4823259
:1050C000E1E09E0711F40C94B9308C32914011F458
:1050D0000C94BC300C9483338E3221E0920711F48F
:1050E0000C94C4318F32914011F00C9483330E94A0
:1050F0008A910C949833853F41E0940711F40C9405
:105100009D3208F04BC08C39A1E09A0711F40C9441
:105110001932F8F48139E1E09E0711F40C94083259
:1051200048F48039914011F00C9483330F94CB45AF
:105130000C949833823931E0930711F40C941232B5
:105140008A39914011F00C9483330E94BE380C943C
:105150009833853A51E0950711F40C94233278F492
:105160008D39B1E09B0711F40C944933843A914096
:1051700011F00C9483330F948B3A0C9498338C3A3F
:10518000F1E09F0711F40C949A32843F914011F0A2
:105190000C9483330F94271E0C9498338B3532E094
:1051A000930711F40C94C13258F5883F51E09507EC
:1051B00011F40C94A332A8F4863FB1E09B0711F4DC
:1051C0000C94A032873F914011F00C94833361E03E
:1051D00083E50E94D27991E089270F94A45B0C9417
:1051E00098338C30F2E09F0711F40C94B432883578
:1051F000924011F00C9483330E9468F70C9498331A
:10520000873E33E0930711F40C943B33C8F48335A5
:1052100053E0950711F40C943833803A934011F021
:105220000C94833320912605309127059091E51445
:1052300092609093E514C9010E94A0E70C94983302
:10524000883EB3E09B0711F40C946033893E934091
:1052500011F40C9463330C94833380E50E94B67987
:10526000882329F00F94DE336B017C0103C0C12C2D
:10527000D12C760183E50E94B679882361F00E94E3
:10528000317920E030E04AE754E40F94217A0F941A
:1052900044826B017C010F94CB458091260590914F
:1052A0002705009721F061E00E94696C05C060E06D
:1052B00085E697E00E94F26B40E0C701B6010E94CC
:1052C00006420F941F5F0C94983380912C0584FF45
:1052D00002C00C94473680912E0587FF02C00C94C3
:1052E000473680912F05837011F00C9447360C944B
:1052F0005F368091E51483FF25C080E997E00F9425
:10530000E4078091E51483FF17C084E095E10E94D3
:105310000B8A8BE1E4E0F5E1DE01119601900D923C
:105320008A95E1F760E070E0CE0101960E945EECA4
:10533000CE0101960E9445FE81E897E00F94E407B4
:105340000C9498330F94BF0881EA97E00F94E40718
:105350000C9498330E946CEA0C949833E0912605E3
:10536000F09127058081882329F0803209F410828A
:105370003196F8CF60E080912605909127050E9434
:10538000E8E70C94983383E50E94B679882321F0EE
:105390000E94F9780E94F39684E50E94B6798823EA
:1053A000A9F00E94F9786B017C010F942F1BC09229
:1053B000FC17D092FD17E092FE17F092FF17CD2850
:1053C000CE28CF2819F081E08093A0190E94E338FD
:1053D000882381F00E9475E60F944A1B89E193E1CE
:1053E0000E941AE610923005109231051092320593
:1053F000109233050F941F5F0C9498338091E5143D
:1054000082FF03C08B7F8093E5148091411988232C
:1054100029F060E070E0CB010E94E0F00F946E1B79
:105420000F941F5F0C9498338091E51483FD02C0A4
:105430000C94983383E50E94B67981110C946A36F6
:105440000C94983383E40E946879882319F185EBE2
:1054500097E00F94E40780914B16882391F0BE01EA
:105460006F5F7F4F88E496E10E94EF8C8E010F5FA3
:105470001F4FD8018D918D01882339F00E94193B6F
:10548000F8CF8BEA97E00F94E4078AE00E94193B7B
:105490000C9498338091E51482FF23C0C090E114EE
:1054A000D090E214E090E314F090E41484EC97E0E0
:1054B0000F94E4074AE0C701B6010E94203B8FE247
:1054C0000E94193B6091DD147091DE148091DF140D
:1054D0009091E0144AE00E94203B0E941E3C0C94F4
:1054E000983386ED97E00F94E4070C9498338091FD
:1054F0002605909127050E94A0E70C94983380918F
:10550000E5148E7F8093E5140C9498338091E51414
:1055100083FD02C00C9498330E9482C680912605B8
:10552000909127050E94E8EB0C9498338091E51444
:1055300082FD0F94CB458091E51483FD02C00C944D
:10554000983360E080E50E94D279182F682F80910F
:105550002605909127050E94E8E783E50E94B67929
:10556000882321F00E94F9780E94F3960E9475E644
:1055700011110C9498330F944A1B0C9498330F9488
:10558000FB1A7B018C0120E831E541E050E00F94EB
:105590001180C9016DE671E00F948E804B015C01B2
:1055A000C801B70120E13EE040E050E00F941180D7
:1055B000CA01B90128E130E040E050E00F941180C9
:1055C000762E672EC62ED72E5CE3252E312C412C4D
:1055D000512CC801B701A20191010F941180F62E40
:1055E000E72ECA01B901A20191010F941180CB01EC
:1055F0008E010F5F1F4F8114910499F0EF92FF927B
:105600007F936F936F927F92BF92AF929F928F9290
:105610008FE098E09F938F931F930F930F9453798C
:1056200013C0A114B104B1F0EF92FF927F936F9376
:105630006F927F92BF92AF928FEF97E09F938F937D
:105640001F930F930F9453790FB6F894DEBF0FBEDC
:10565000CDBF30C0CD2879F0EF92FF927F936F934A
:105660006F927F9283EF97E09F938F931F930F9397
:105670000F945379E9CF892B69F0EF92FF927F93D2
:105680006F938BEE97E09F938F931F930F930F94DD
:105690005379DACFEF92FF9287EE97E09F938F9343
:1056A0001F930F930F9453790F900F900F900F90BB
:1056B0000F900F9060E0C8010E94696C0F94BF08C2
:1056C000B80183E298E00F94A8088AE00E94193B91
:1056D0000C9498330F946E1B0C9498330F94831B87
:1056E0000C9498338091871283FF02C00C949833F6
:1056F00089E40E94B679882311F40C946F360E94D5
:10570000097990E01816190614F481E090E026E07B
:10571000289FF001299FF00D1124EE5BF64E808149
:1057200091810C9479360E9425F5182F87FD0AC0C7
:1057300080E398E00F94E407812F0E94E5CF8AE090
:105740000E94193B9CA9909381030C949A3760E0C6
:1057500080E50F94C735F82EA2E0A81708F4E8C733
:1057600081E40E946879882329F060918E12062FC7
:1057700010E002C00FEF10E089E40E94B6798823A0
:1057800099F00E94097990E01816190614F481E046
:1057900090E026E0289FF001299FF00D1124EE5B98
:1057A000F64E0481158108C083E50E94B6798823EE
:1057B00019F00E94F9788B01EF2DF0E0E257FD4ED1
:1057C000B8010F3F110519F010F06FEF70E0608322
:1057D000AFC760E080E50F94C735833008F0A8C7F5
:1057E000E82FF0E0E257FD4E1082A2C78EE40E943F
:1057F000B679882309F49CC70E94F9786093B805AC
:105800007093B9058093BA059093BB0591C783E562
:105810000E946879882331F060E083E50F94C735F2
:10582000809387120F94BF0881E498E00F94E407F7
:1058300080918712882369F147E3E42E48E0F42E33
:1058400000E010E020E08091871290E0A0E0B0E05E
:10585000002E04C0B695A795979587950A94D2F720
:1058600080FF0EC0DD24D394D20E222319F08CE2E7
:105870000E94193BF701859194910F94E4072D2D17
:105880000F5F1F4FB2E0EB0EF11C05301105D9F68A
:10589000FCCD83E398E0F7CD1092CD041092AB02DB
:1058A00047C783E50E94B679882371F00E94097981
:1058B000282F30E02D3331051CF48093000238C7C7
:1058C0008CE38093000234C70F94BF08C09000029D
:1058D000D12CE12CF12C86E598E00F94E4074AE006
:1058E000C701B6010E94203B8AE00E94193B20C7F5
:1058F0008091871283FD1CC789E40E94B6798823B2
:1059000011F40C9482360E94097990E01816190659
:1059100014F481E090E026E0289FF001299FF00D2B
:105920001124EE5BF64E828193810C948D3680912A
:10593000871283FDFDC689E40E94B679882311F49D
:105940000C9494360E94097990E01816190614F404
:1059500081E090E026E0289FF001299FF00D1124BE
:10596000EE5BF64E8281938110E00C94A53683E5C0
:105970000E94B679882309F4DBC60E940979182FA2
:1059800090E0CD970CF01CE310937C030F94E34E52
:105990006B017C01212F30E0A8EEB3E00F9465800D
:1059A000C60ED71EE81EF91EC0927803D092790366
:1059B000E0927A03F0927B03BBC6809188128F7DC0
:1059C000806180938812B4C6809188128F7E806235
:1059D00080938812ADC60F949F32AAC683E50E94B9
:1059E0006879882309F4A4C60F94E34E60938E1956
:1059F00070938F1980939019909391190E94317927
:105A000020E030E04AE754E40F94217A0F94448276
:105A100060937D0370937E0380937F039093800354
:105A200087C60E9425F587FD83C690912C0594FDBD
:105A300004C090912E0597FF23C0BCEB2B2EB2E043
:105A40003B2E1EEEA12E1EE0B12E18A68D5F082F54
:105A500010E0C801880F991F880F991FFC01E65FAD
:105A6000F04F4F01C801880F991F880F991F9C01A3
:105A70002E5D304F3DA72CA78C01085A174F09C047
:105A800090912F059370C9F6682F81E00F94FA3238
:105A90004FC6D1018D911D010E94B679882309F46A
:105AA0004BC0B8A5B33009F040C00E9431792B013A
:105AB0003C0120E030E040EA51E40F94BB7987FFDD
:105AC0002DC0A3019201F4016081718182819381D3
:105AD0000F94CB816B017C019B01AC01ACA5BDA5F2
