:100000000C94E3210C9414220C9414220C941422CA
:100010000C9414220C9414220C9414220C94142288
:100020000C9414220C9414220C9414220C94142278
:100030000C9414220C94CF920C9414220C9414223D
:100040000C9414220D941E570C9414220C94142218
:100050000C9414220C9414220C944AC40C946B92A9
:100060000C9414220C9461420C9457420C94142268
:100070000C9414220C9414220C9414220C94142228
:100080000C94FE3A0C9414220C9414220C94142216
:100090000C9414220C9414220C9414220C94142208
:1000A0000C9414220C9414220C94D03A0C94142224
:1000B0000C9414220C9414220C9414220C941422E8
:1000C0000C9414220C9414220C9414220C941422D8
:1000D0000C9414220C9414220C9414220C941422C8
:1000E0000C94142271512E506750AD5167506750D7
:1000F0006750675067506750675067506750675048
:100100006750675067506750675067506750675037
:100110006750675067506750675067506750675027
:10012000A7516750675067506750675067506750D6
:1001300067508051675067506750675067506750ED
:100140006750675067506750C451645064020C0296
:1001500074025A01EA0088025401B4013202120109
:1001600048023C014201B80188027A022E024C0189
:10017000200216020002DA0110016C024E02520146
:10018000F2018E028601D601084AD73B3BCE016EB2
:1001900084BCBFFDC12F3D6C74319ABD56833DDADE
:1001A0003D00C77F11BED9E4BB4C3E916BAAAABEED
:1001B000000000803F05A84CCDB2D44EB93836A916
:1001C000020C50B9918688083CA6AAAA2ABE000053
:1001D00000803F000D942B4C0D94D3180C9491CEBD
:1001E0000D9426130D94DF100C9438920C9498B94A
:1001F0000D9497110C9481CD0C944ECE0D94E9176B
:100200000D94C4110D94156D0C94C44F0C946E6430
:100210000C943DA30C94F5A50C9425D10D940213D8
:100220000D942C5D0D94444C0C94B6D40C942DCEAE
:100230000C9401A60C9447BD0D947E110D94AD1045
:100240000D94B0110D94BF110C943BBD0C9444CE91
:100250000C940AD10C94B0640C943FD20D94001409
:100260000C94BAC10C9464CD0C94C4510D949713A2
:100270000D9465110D94EB170D944E4C0D940E13C7
:100280000C9418650D94524C0C94AD510C940F576E
:100290000C946A6C0C944D880D94644C0C945AFB2D
:1002A0000C9472CE0D943E5D0D94364C0C94F2E895
:1002B0000D9473510D94254C0C944DBD0C94145217
:1002C0000D94144F0C9496880D94723E0C94C74F65
:1002D0000C946FCD0D94A1510D944A3C0C94FBB934
:1002E0000C9418A30C9453CE0C944F880C941FD1EB
:1002F0000C9453D20D948D140C942E500D9416180A
:100300000D9414130C9459D60D9426110D94385D48
:100310000C9429A20C94E3D00C943C6C0D942714FB
:100320000C9449CE0C946D5C0C945D640C946B57EA
:100330000D9436140C9478BB0C94BD620C948051CF
:100340000C9454570C949E520D944C3C0D9477543D
:100350000C94DFE80D94483C0C9410A40C94645069
:100360000D9408130C9419A20D943A4C0C945564F6
:100370000D94564C0C940E920C94E7E80C94A751F3
:100380000C943D8E0C9467500C94CEB90D9460146F
:100390000C94E8D00D9413110D94C4180D94F76CBF
:1003A0000D9452110C9439CE0C943D570D943B5D35
:1003B0000C9431A20D94265D0C94F1CD0D9478131C
:1003C0000D942C130C94C34F0C9415A20C9482E83A
:1003D0000D9421140D9439110C9458BD0C9404D132
:1003E0000C9462B90D94355D0C941FE80C9405A033
:1003F0000C946BEB0C9421A20C94E9B90C94B3B956
:100400000D94295D0C9437A30C94C1620C946C9FDD
:100410000C9411A20C9425A20D94324C0C94E0671C
:100420000D947E140C94EDD00C946EBF0D94235D4E
:100430000C941BA70C94D6E80C9429900D94961458
:100440000D94435D0C94A29E0D9459130C9422E8D4
:100450000D94C1150C9426570C9416D10D94604C34
:100460000C9472640D94404C0C94CE9E0C949D8818
:100470000C9433CE0C94B3D30C94F2D00C94FED0E5
:100480000D9418180D943D3C0C94B8A40C9435A20E
:100490000D94484C0D94C6100C94E9CD0D94325D2A
:1004A0000D94463C0D9420130D946F140C9427CE9C
:1004B0000C940DA20D94F6120C94D3EC0C941BE743
:1004C0000C941CE80D94F3500D942F4C0C9424A321
:1004D0000C943FCE0C9443A30D942F5D0D94CC3A15
:1004E0000C942A880D94FC120D94214C0C94A6E9CE
:1004F0000D941A130D945C4C0C9471510C9454B9D6
:100500000D943F3C0C941DA20D94F8100D94E24202
:100510000D94694C0C9430D60C9451880D94505D18
:100520000D9438130C94B59E0D9454140C94514FA3
:100530000C9459640C944E4F0C9463E80D94321350
:100540000D9445140C947DB90C94DF470C94A36072
:100550000C942DA20C943C524E414E494E49545994
:10056000494E46CDCCCC3D0AD7233C17B7D138777E
:10057000CC2B329595E6241FB14F0A000020410094
:1005800000C84200401C4620BCBE4CCA1B0E5AAEDE
:10059000C59D7400407A10F35A00A0724E180900ED
:1005A00010A5D4E80000E87648170000E40B5402D8
:1005B0000000CA9A3B000000E1F505000080969813
:1005C00000000040420F000000A086010000001063
:1005D0002700000000E803000000006400000000A5
:1005E000000A00000000000100000000002C76D886
:1005F00088DC674F0823DFC1DFAE59E1B1B796E56C
:10060000E3E453C63AE651997696E8E6C28426EBCF
:10061000898C9B62ED407C6FFCEFBC9C9F40F2BAE2
:10062000A56FA5F490055A2AF75C936B6CF9676D7A
:10063000C11BFCE0E40D47FEF520E6B500D0ED90CF
:100640002E0300943577050080841E080000204E9C
:100650000A000000C80C333333330F986E12831135
:1006600041EF8D2114893BE65516CFFEE6DB18D10C
:10067000844B381BF77C1D901DA4BBE424203284DE
:10068000725E228100C9F124ECA1E53D27434F4D64
:100690004D554E49434154494F4E004452595255CD
:1006A0004E004552524F525300494E464F0045436B
:1006B000484F0047322F47332062616420706172D7
:1006C000616D65746572730A00536C6565702E2EDA
:1006D0002E005A2050726F62652050617374204260
:1006E00065640A005A2050726F626520506173740D
:1006F0002042656400205A3A200020593A200042E6
:10070000656420583A20004D65736820706F696EEB
:1007100074206F7574206F662072616E67650A00C1
:10072000436C69636B20746F20526573756D652E21
:100730002E2E004E6F204D6F76652E00456E642084
:1007400066696C65206C6973740A00426567696E3E
:100750002066696C65206C6973740A004E6F206DA9
:10076000656469610A00286E6F2066696C652900FE
:1007700043757272656E742066696C653A20005329
:1007800044207072696E74696E67206279746520A6
:10079000004E6F74205344207072696E74696E67E6
:1007A0000A002569730025696D2025697300256994
:1007B000682025696D2025697300256964202569F5
:1007C000682025696D2025697300256979202569D0
:1007D00064202569682025696D20256973005072A1
:1007E000696E742074696D653A2000436F6F6C699F
:1007F0006E672E2E2E0048656174696E672E2E2E50
:100800000045202553006F6B006F666600AE06A999
:1008100006A2069B068D0644454255473A004D31D7
:1008200031322053687574646F776E004D31313307
:1008300020530042656420436F6F6C696E672E2EF3
:100840002E004265642048656174696E672E2E2E05
:100850000047656565746563682041323054204FF8
:1008600046462E002F2F004D31343520533C696E03
:100870006465783E206F7574206F662072616E67C4
:10088000652028302D31290A003F4A206F757420D9
:100890006F662072616E67652028302E30312074BB
:1008A0006F20302E33290A004D3230362058004652
:1008B000523A0020466C6F773A2000206F75742002
:1008C0006F662072616E67650A00536572766F20ED
:1008D000003A200020536572766F200020643A00B1
:1008E00020693A0020703A00496E76616C69642094
:1008F00065787472756465720A0020643A00206934
:100900003A0020703A0064697300656E0043290A5A
:100910000061626C656420286D696E2074656D707D
:100920002000436F6C642065787472756465732071
:10093000617265200046696C616D656E7420727528
:100940006E6F75742064697374616E636520286DC1
:100950006D293A200046696C616D656E7420727570
:100960006E6F757420004D34323120696E636F7282
:100970007265637420706172616D65746572207553
:10098000736167650A004D65736820706F696E74E6
:10099000206F7574206F662072616E67650A004F64
:1009A000666673657473204170706C696564004598
:1009B00072723A20546F6F206661722100546F6F1B
:1009C000206661722066726F6D2072656665726561
:1009D0006E636520706F696E740A00454550524F12
:1009E0004D204F4B0A00506F7765722D6C6F7373FB
:1009F000207265636F7665727920004D383400444B
:100A00006F6E65207072696E74696E672066696CBE
:100A1000650A004D3737004D3331004572726F72F1
:100A20002077726974696E6720746F204545505253
:100A30004F4D210A0053544F505045442E20005032
:100A400072696E7465722073746F7070656420646F
:100A5000756520746F206572726F72732E204669FF
:100A60007820746865206572726F7220616E6420F0
:100A7000757365204D39393920746F207265737430
:100A80006172742E202854656D7065726174757280
:100A9000652069732072657365742E205365742018
:100AA0006974206166746572207265737461727412
:100AB000696E67290A004E6F20436865636B737522
:100AC0006D2077697468206C696E65206E756D6243
:100AD00065722C204C617374204C696E653A20005D
:100AE0004E6F20436865636B73756D20776974681A
:100AF000206C696E65206E756D6265722C204C618C
:100B00007374204C696E653A2000636865636B738B
:100B1000756D206D69736D617463682C204C617311
:100B200074204C696E653A20004C696E65204E75E4
:100B30006D626572206973206E6F74204C617374EE
:100B4000204C696E65204E756D6265722B312C20CC
:100B50004C617374204C696E653A20004D31313020
:100B60000053442072656164206572726F720A00DE
:100B70002121204B494C4C206361757365642062D0
:100B80007920746F6F206D75636820696E6163747E
:100B90006976652074696D65202D206375727265B4
:100BA0006E7420636F6D6D616E643A2000627573C0
:100BB000793A2070617573656420666F7220696E82
:100BC0007075740A00627573793A20706175736587
:100BD0006420666F7220757365720A00627573799E
:100BE0003A2070726F63657373696E670A004D65B2
:100BF0006469612052656D6F766564004D65646956
:100C00006120496E736572746564004D3130303017
:100C10005300506F776572204F7574616765004DA2
:100C20003630300042656400456E636C6F737572D8
:100C300065002568753A25303268750025303268C0
:100C4000753A2530326875002020202020202000B1
:100C500020202020001FE03FF03FF03FF01FE01F6A
:100C6000E03FF03FF03FF00FC0078003001FE0209F
:100C700010201020101020102020102010303008DC
:100C8000400480030001FF000618C0081F20101F49
:100C900090141F102E1E082F1C082FB8083FFC08A8
:100CA0003FFFF8207FF8203BE82071E820F0E811B2
:100CB000F05013F01009F0200630C001FF0001FFD2
:100CC000000630C009F02011F01010F01020F0687C
:100CD0002031E82039E8207FF83FFFF83FFC082F5B
:100CE00038082E18082C1E08101E10101F10081F80
:100CF000200618C001FF0001FF000600C009012006
:100D00001783D01783D02FC7E827C7C821FF082033
:100D10007C08207C08207C0821FF0827C7C82FC733
:100D2000E81783D01783D00901200600C001FF0017
:100D3000FFFFC0400020200010100008080004043D
:100D4000000203FFFF0222000444000444000222C8
:100D500000011100FFFFC04088A0211110122208DD
:100D600008000404000203FFFF4572723A20757404
:100D7000663820666F6E74206E6F7420696E6974B9
:100D800069616C697A65642E004572723A207574E7
:100D9000663820666F6E74206E6F7420696E697499
:100DA00069616C697A65642E004572723A207574C7
:100DB000663820666F6E74206E6F7420696E697479
:100DC00069616C697A65642E00000C0F00FE0702F1
:100DD0002503BB017FFE08FE08FE0508080600008B
:100DE00040F0C88888987810050808060000C0F808
:100DF0008888888888F80505050600012030F830C5
:100E0000200508080600002070F820202020E005BA
:100E100009090600FF2070A8A8B888887020070577
:100E200005070001D86C366CD80509090600FFF8E3
:100E3000A88888888888A8F8050A0A0600FE205035
:100E400050505088A8A8887003030306000340A0F0
:100E500040FFFFFFFFFFFFFFFFFFFFFFFFFFFFFF61
:100E6000FFFFFFFFFFFFFF0000000605FF01070770
:100E70000602008080808080008003030306010555
:100E8000A0A0A005060606000050F85050F8500536
:100E900009090600FF2070A8A07028A87020050787
:100EA00007060000C8C810204098980507070600EC
:100EB0000040A0A040A890680103030602058080BE
:100EC000800309090601FF204040808080404020C7
:100ED0000309090601FF8040402020204040800592
:100EE000070706000020A8702070A8200505050649
:100EF00000012020F820200203030601FFC04080EB
:100F0000050101060003F8020202060100C0C00547
:100F1000070706000008101020404080050707065C
:100F20000000708898A8C888700307070601004071
:100F3000C040404040E005070706000070880810E8
:100F40002040F8050707060000F8081030088870F0
:100F500005070706000010305090F810100507072D
:100F6000060000F880F008088870050707060000F2
:100F7000304080F0888870050707060000F80810E8
:100F800010202020050707060000708888708888D8
:100F90007005070706000070888878081060020551
:100FA00005060100C0C000C0C00206060601FFC061
:100FB000C000C0408003050506010120408040209C
:100FC000050303060002F800F80305050601018089
:100FD0004020408005070706000070881020200090
:100FE000200507070600007088B8A8B880700507BC
:100FF00007060000708888F88888880507070600BB
:1010000000F04848704848F005070706000070885F
:101010008080808870050707060000F0484848482F
:1010200048F0050707060000F88080F08080F8058A
:101030000707060000F88080F0808080050707061B
:101040000000708880809888700507070600008877
:101050008888F8888888030707060100E040404038
:101060004040E0050707060000381010101090609F
:101070000507070600008890A0C0A0908805070714
:10108000060000808080808080F805070706000049
:1010900088D8A8888888880507070600008888C837
:1010A000A8988888050707060000708888888888BF
:1010B00070050707060000F08888F080808005072B
:1010C0000706000070888888A89068050707060052
:1010D00000F08888F0A09088050707060000708857
:1010E0008070088870050707060000F8202020207F
:1010F00020200507070600008888888888887005F2
:1011000007070600008888888850502005070706D2
:10111000000088888888A8A850050707060000886E
:1011200088502050888805070706000088885020CE
:10113000202020050707060000F80810204080F84E
:101140000309090601FFE080808080808080E0053F
:101150000707060000804040201010080309090618
:1011600001FFE020202020202020E00503030600CE
:10117000052050880501010600FEF803030306015F
:101180000580402005050506000070087888780570
:1011900007070600008080F0888888F005050506AE
:1011A0000000708080887005070706000008087836
:1011B000888888780505050600007088F08070052D
:1011C0000707060000304840E0404040050707069A
:1011D00000FE708888887808700507070600008080
:1011E00080F0888888880307070601004000C04017
:1011F0004040E00409090601FE10003010101010F4
:10120000906005070706000080808890E0908803C2
:101210000707060100C04040404040E005050506C4
:101220000000D0A8A8A8A8050505060000B0C88839
:1012300088880505050600007088888870050707FE
:101240000600FEF0888888F080800507070600FE0B
:1012500078888888780808050505060000B0C880E9
:10126000808005050506000078807008F0050707F6
:101270000600002020F820202018050505060000A3
:1012800088888898680505050600008888885020A9
:101290000505050600008888A8A850050505060074
:1012A0000088502050880507070600FE888888506F
:1012B000204080050505060000F8102040F80309CD
:1012C000090601FF204040408040404020010909BC
:1012D0000602FF808080808080808080030909066C
:1012E00001FF80404040204040408005030306004D
:1012F0000248A890FF52756E6F757420446973742C
:10130000206D6D004C6F6164206D6D00556E6C6FCB
:101310006164206D6D0046696C2E204469612E0069
:101320004520696E206D6D5E33004D33303320559E
:1013300031204525692053256900504944204175D5
:10134000746F74756E65202A005049442D44202A1C
:10135000005049442D49202A005049442D50202A4C
:101360000020082046616374002008204D61780049
:101370002008204D696E004F6666004F6E00417573
:10138000746F74656D70005072696E742041626F85
:1013900072746564004D32350050617573696E6713
:1013A0002E2E2E004D3234006F6F6F00000047412B
:1013B0004D45204F56455200107CFEFEFE44402411
:1013C000800000318000002480444004000E000EA4
:1013D000007FC0FFE0FFE0FFE0FFE01FC07FF0DD27
:1013E000D8FFF87FF006000F001F8036C03FC0090D
:1013F000001680294006000F001F8036C03FC0162F
:101400008020401080104008801FC037607FF05F50
:10141000D050500D80104048905FD077707FF01F03
:10142000C0104020200F007FE0FFF0E670FFF019B1
:101430008036C0C0300F007FE0FFF0E670FFF0198B
:101440008036C019804732362043616E63656C6513
:1014500064004732362048656174696E67204E6FBC
:101460007A7A6C65004732362048656174696E6728
:10147000204265640057616974696E6720666F7207
:10148000206865617475702E0A004669786564206D
:101490004C656E677468205072696D6500446F6EAC
:1014A00065205072696D696E67004D616E75616C83
:1014B000207072696D696E672E2E2E004C65617604
:1014C000696E6720473236003F537065636966690D
:1014D000656420582C5920636F6F7264696E617463
:1014E00065206F7574206F6620626F756E64732E51
:1014F0000A003F28522965706561742076616C7519
:1015000065206E6F7420706C61757369626C653BE9
:10151000206D757374206265206174206C65617341
:101520007420312E0A003F537065636966696564F3
:10153000206E6F7A7A6C652074656D706572617467
:10154000757265206E6F7420706C61757369626C62
:10155000652E0A003F53706563696669656420669D
:10156000696C616D656E742073697A65206E6F7445
:1015700020706C61757369626C652E0A003F537050
:1015800065636966696564207072696D65206C6564
:101590006E677468206E6F7420706C617573696219
:1015A0006C652E0A003F5370656369666965642047
:1015B0006E6F7A7A6C652073697A65206E6F74201D
:1015C000706C61757369626C652E0A003F526574B8
:1015D00072616374696F6E204D756C7469706C69AB
:1015E0006572206D75737420626520737065636920
:1015F000666965642E0A003F5370656369666965B4
:10160000642052657472616374696F6E204D756CED
:101610007469706C696572206E6F7420706C61758E
:101620007369626C652E0A003F5370656369666971
:101630006564206C617965722068656967687420EB
:101640006E6F7420706C61757369626C652E0A0030
:1016500043292E0A003F53706563696669656420FB
:101660006265642074656D70657261747572652061
:101670006E6F7420706C61757369626C65202834BC
:10168000302D00473236207374617274696E672E94
:101690002E2E0A007C3C3E5E2B3D3F2F5B5D3B2C9B
:1016A0002A225C0041425300504C41005072656850
:1016B000656174202420456E640050726568656120
:1016C000742024204265640054656D7065726174F5
:1016D00075726500A816A416436F6F6C646F776E01
:1016E000005072656865617420240046616E205365
:1016F00070656564207E00426564004E6F7A7A6C86
:1017000065004D61696E0050726F6265205A204F0E
:10171000666673657400466C6F770046616E205391
:1017200070656564207E00426564004E6F7A7A6C55
:1017300065005370656564004D61696E001FFFFFB1
:10174000FFFFFFFF600000000001FF4000000000FD
:1017500000FF8000000000007F83CF00000C303FBE
:1017600087FF80000C301F867980000C000F8C30C2
:10177000C7838C30E78C30CFC7CC31F38C30DCECB6
:10178000EC33B98C30D86C6C33198C30D06C0C3392
:10179000198C30D86C0C33198C30DC6C0E3B198CE6
:1017A00030CF7C079F198C30C77C038F1940000015
:1017B00000000002600000000000061FFFFFFFFFA6
:1017C000FFF81FFFFFFFFFFFFF600000000001FFA9
:1017D000400000000000FF8000000000007F83CF79
:1017E00000000C303F87FF80000C301F867980009E
:1017F0000C000F8C30C7838C30078C30CFC7CC30B7
:10180000038C30DCECEC30018C30D86C6C30018C0B
:1018100030D06C0C30018C30D86C0C30018C30DC4A
:101820006C0E38018C30CF7C079C018C30C77C0358
:101830008C01400000000000026000000000000673
:101840001FFFFFFFFFFFF81FFFFFFFFFFFFF60000D
:1018500000000001FF400000000000FF80000000C9
:1018600000007F83CF00000C003F87FF80000C004A
:101870001F867980000C000F8C30C7838C00078C8A
:1018800030CFC7CC00038C30DCECEC00018C30D8BE
:101890006C6C00018C30D06C0C00018C30D86C0C5E
:1018A00000018C30DC6C0E00018C30CF7C07800195
:1018B0008C30C77C03800140000000000002600003
:1018C00000000000061FFFFFFFFFFFF81FFFFFFFE4
:1018D000FFFFFF600000000001FF4000000000006B
:1018E000FF8000000000007F83CF000000003F87E2
:1018F000FF800000001F8679800000000F8C30C739
:10190000838000078C30CFC7C000038C30DCECE054
:1019100000018C30D86C6000018C30D06C0000016C
:101920008C30D86C0000018C30DC6C0000018C30F5
:10193000CF7C0000018C30C77C000001400000001B
:10194000000002600000000000061FFFFFFFFFFF15
:10195000F81FFFFFFFFFFFFF600000000001FF40D6
:101960000000000000FF8000000000007F83CF0027
:101970000000003F87FF800000001F867980000084
:10198000000F8C30C7800000078C30CFC0000003F0
:101990008C30DCE00000018C30D8600000018C301D
:1019A000D0600000018C30D8600000018C30DC6019
:1019B0000000018C30CF700000018C30C770000037
:1019C0000140000000000002600000000000061F4F
:1019D000FFFFFFFFFFF81FFFFFFFFFFFFF6000009B
:1019E000000001FF400000000000FF800000000038
:1019F000007F83CF000000003F87FF800000001FB2
:101A00008679800000000F8C30C0000000078C3009
:101A1000C0000000038C30C0000000018C30C0000A
:101A20000000018C30C0000000018C30C0000000BC
:101A3000018C30C0000000018C30C0000000018C1F
:101A400030C0000000014000000000000260000003
:101A5000000000061FFFFFFFFFFFF81FFFFFFFFF53
:101A6000FFFF600000000001FF400000000000FFD9
:101A70008000000000007F8000000000003F800028
:101A8000000000001F8000000000000F8000000028
:101A9000000007800000000000038000000000003C
:101AA00001800000000000018000000000000180B3
:101AB0000000000000018000000000000180000024
:101AC0000000000180000000000001400000000054
:101AD0000002600000000000061FFFFFFFFFFFF88C
:101AE000026D61726C696E66772E6F726700627547
:101AF000676669782D322E302E78005B1AD6195120
:101B000019CC184718C2173D1770012C01900127F6
:101B100001B0012201C0011D01F0011801100213E2
:101B20000130020E016002090190020401C002FFAF
:101B3000000003FA004003F5008003F000D003EB3F
:101B4000002004E6007004E100E004DC004005D75A
:101B500000C005D2004006CD00D006C8008007C3F3
:101B6000003008BE00F008B900C009B400B00AAFE8
:101B700000B00BAA00D00CA500000EA000500F9BD7
:101B800000C01096005012910000148C00C0158700
:101B900000B0178200B0197D00D01B7800001E73C2
:101BA0000040206E0090226900F024640040275F0E
:101BB0000090295A00E02B5500102E500020304B89
:101BC0000010324600E033410090353C00103737BA
:101BD0000070383200A0392D00B03A2800A03B2315
:101BE00000603C1E00103D1900903D1400103E0F97
:101BF00000703E0A00C03E0500003F0000403FFB71
:101C0000FF803FF6FFC03FF1FF2020506C616E6EF9
:101C1000657242756666657242797465733A200032
:101C20002046726565204D656D6F72793A200043DC
:101C30006F6D70696C65643A204A616E20313020A6
:101C4000323032310A00204C617374205570646167
:101C50007465643A20323032312D30312D313020EC
:101C60007C20417574686F723A20546F6D204C75FA
:101C700078746F6E0A006275676669782D322E304F
:101C80002E780A004D61726C696E0020536F667485
:101C9000776172652052657365740A00205761741C
:101CA0006368646F672052657365740A002042722E
:101CB0006F776E206F75742052657365740A00200B
:101CC00045787465726E616C2052657365740A00A4
:101CD000506F77657255700A0073746172740A00F0
:101CE000473237004D31303031006572726F7220EB
:101CF00077726974696E6720746F2066696C650A13
:101D000000446F6E6520736176696E672066696C4A
:101D1000652E0A004D323900456E6473746F70731E
:101D2000002553202563202563202563202563009B
:101D3000205A3A0020593A0020583A00656E6473E0
:101D4000746F7073206869743A200024F4D43050A2
:101D5000C38E20C2A24017828B7011127A910D811E
:101D60006CD90AA861E108C7586607615143061E8D
:101D70004B5D05C145A7041A411104093D98037143
:101D80003931034036DB0265339102D4305402808E
:101D90002E1D02632CEE01752AC501B028A001108A
:101DA0002781018F2564012B244B01E0223401ACF3
:101DB000211F018D200D01801FFC00841EED009766
:101DC0001DDF00B81CD200E61BC600201BBC00644F
:101DD0001AB200B219A8000A19A0006A189900D115
:101DE00017910040178B00B516840031167E00B3A2
:101DF0001579003A157300C7146F0058146A00EE85
:101E00001366008813630025135E00C7125B006C25
:101E100012570015125400C111510070114F0021CA
:101E2000114B00D61049008D1047004610440002A7
:101E3000104200C00F4000800F3E00420F3C0006E1
:101E40000F3B00CB0E3800930E37005C0E35002799
:101E50000E3400F30D3200C10D3100900D300060E2
:101E60000D2E00320D2D00050D2C00D90C2B00AECF
:101E70000C2900850C29005C0C2700350C27000E6E
:101E80000C2600E80B2400C40B2400A00B23007DCB
:101E90000B23005A0B2100390B2100180B2000F8EE
:101EA0000A1F00D90A1E00BB0A1E009D0A1D0080E1
:101EB0000A1D00630A1C00470A1B002C0A1B0011A4
:101EC0000A1A00F7091A00DD091900C4091900AB44
:101ED000091900920917007B091800630917004CC3
:101EE00009160036091600200916000A091500F522
:101EF000081500E0081400CC081400B8081400A469
:101F0000081400900813007D0812006B0813005895
:101F100008120046081200340811002308110012AC
:101F200008110001081100F0071000E0071000D0B0
:101F3000071000C0071000B0070F00A107100091A4
:101F4000070E0083070F0074070F0065070E005788
:101F5000070E0049070E003B070D002E070E00205C
:101F6000070D0013070D0006070D00F9060C00ED24
:101F7000060D00E0060C00D4060C00C8060C00BCE0
:101F8000060C00B0060C00A4060B0099060C008D90
:101F9000060B0082060B0077060B006C060B006137
:101FA000060A0057060B004C060A0042060A0038D3
:101FB000060A002E060A0024060A001A060A001065
:101FC00006090007060A00FD050900F4050900EBF3
:101FD000050900E2050900D9050900D0050900C777
:101FE000050900BE050900B5050800AD050800A5F6
:101FF0000509009C050800940508008C050800846C
:102000000508007C050800740508006C05070065DC
:102010000508005D050700560508004E0507004746
:102020000507004005080038050700310507002AAC
:10203000050700230507001C050600160507000F0D
:102040000507000805060002050700FB040600F569
:10205000040700EE040600E8040600E2040700DBC3
:10206000040600D5040600CF040600C9040600C318
:10207000040600BD040600B7040600B1040500AC68
:10208000040600A6040600A00405009B04060095B3
:10209000040500900406008A0405008504050080FC
:1020A0000406007A04050075040500700405006B41
:1020B00004050066040500610405005C0405005782
:1020C000040500520405004D0405004804050043C2
:1020D0000405003E0404003A040500350405003000
:1020E0000404002C04050027040400230405001E3A
:1020F0000404001A04040016040500110404000D71
:10210000040400090405000404040000040400FCA5
:10211000030400F8030400F4030400F0030400ECDB
:10212000030400E8030400E4030400E0030400DC0B
:10213000030400D8030400D4030400D0030400CC3B
:10214000030400C8030300C503030024F404D920DA
:102150001BC40C5C0E9804C4095F0265077101F48E
:1021600005F900FB04B30048048700C10369005867
:1021700003550003034500BE023A008402310053B8
:10218000022A002902250004022000E4011C00C8E4
:10219000011900AF011700980114008401130071A8
:1021A0000110006101100051010E0043010D0036C5
:1021B000010B002B010B0020010B00150109000C85
:1021C00001090003010800FB000800F3000800EB10
:1021D000000700E4000600DE000600D8000600D27A
:1021E000000600CC000500C7000500C2000500BDC8
:1021F000000400B9000400B5000400B1000400AD03
:10220000000400A9000400A5000300A20003009F31
:102210000004009B00030098000300950002009357
:10222000000300900003008D0002008B0003008873
:102230000002008600020084000300810002007F8B
:102240000002007D0002007B00020079000200779E
:1022500000010076000200740002007200010071AB
:102260000002006F0002006D0001006C0002006AB5
:1022700000010069000200670001006600010065BE
:1022800000010064000200620001006100010060C2
:102290000001005F0002005D0001005C0001005BC6
:1022A0000001005A000100590001005800010057C8
:1022B00000010056000100550001005400010053C8
:1022C00000000053000100520001005100010050C5
:1022D0000001004F0001004E0000004E0001004DC3
:1022E0000001004C0001004B0000004B0001004ABF
:1022F00000010049000100480000004800010047BB
:1023000000010046000000460001004500000045B5
:1023100000010044000100430000004300010042AE
:1023200000000042000100410000004100010040A7
:102330000001003F0000003F0001003E0000003EA1
:102340000001003D0000003D0001003C0000003C99
:102350000000003C0001003B0000003B0001003A8F
:102360000000003A00010039000000390001003887
:10237000000000380000003800010037000000377E
:102380000001003600000036000000360001003574
:10239000000000350000003500010034000000346A
:1023A000000000340001003300000033000000335F
:1023B0000001003200000032000000320001003154
:1023C000000000310000003100010030000000304A
:1023D000000000300001002F0000002F0000002F3F
:1023E0000000002F0001002E0000002E0000002E33
:1023F0000001002D0000002D0000002D0000002D28
:102400000001002C0000002C0000002C0000002C1B
:102410000001002B0000002B0000002B0000002B0F
:102420000001002A0000002A0000002A0000002A03
:1024300000010029000000290000002900000029F7
:1024400000000029000100280000002800000028EA
:1024500000000028000000280001002700000027DD
:1024600000000027000000270000002700010026D0
:1024700000000026000000260000002600000026C4
:1024800000010025000000250000002500000025B7
:1024900000000025000000250001002400000024A9
:1024A000000000240000002400000024000100239C
:1024B0000000002300000023000000230000002390
:1024C0000000002300000023000100220000002281
:1024D0000000002200000022000000220000002274
:1024E0000001002100000021000000210000002167
:1024F0000000002100000021000000210001002058
:10250000000000200000002000000020000000204B
:102510000000002000000020000000200001001F3B
:102520000000001F0000001F0000001F0000001F2F
:102530000000001F0000001F0001001E0000001E20
:102540000000001E0000001E000000102800004EC9
:102550001C0000D6110000400A00008A050000E3BC
:1025600002000079010000BE00000020436F756E7C
:102570007420583A00554E4C4F41442046494C4136
:102580004D454E54004C4F41442046494C414D4529
:102590004E540046494C414D454E54204348414E0F
:1025A0004745004D37303220542564004D363030D9
:1025B00020423020542564004D373032203B2564C2
:1025C000004D37303120542564004368616E6765E3
:1025D0002046696C616D656E740050726568656156
:1025E0007420437573746F6D005072656865617413
:1025F0002024004261636B004D3630302042302091
:10260000542569004368616E67652046696C616D99
:10261000656E74202A004D61696E00436F6E7469A7
:102620006E7565004F6666004F6E0052756E6F7571
:10263000742053656E736F72005075726765206DFC
:102640006F726500524553554D45204F5054494FC8
:102650004E533A005052494E542050415553454430
:102660000020204E6F7A7A6C653A20005061726BC0
:10267000696E672E2E2E0000005761697420666F08
:10268000720066696C616D656E74206368616E6767
:102690006500746F207374617274005761697420EF
:1026A000666F720066696C616D656E7420756E6C24
:1026B0006F616400004E6F7A7A6C652068656174A2
:1026C000696E6700506C6561736520776169742E6F
:1026D0002E2E0000507265737320627574746F6ED5
:1026E00000746F2068656174206E6F7A7A6C650083
:1026F00000496E736572742066696C616D656E74F5
:1027000000616E6420707265737320627574746FFB
:102710006E00746F20636F6E74696E75650057612B
:10272000697420666F720066696C616D656E7420F5
:102730006C6F61640000507265737320427574742D
:102740006F6E00746F20726573756D6520707269AD
:102750006E7400005761697420666F722070726930
:102760006E7400746F20726573756D652E2E2E0069
:10277000005761697420666F720066696C616D65EF
:102780006E742070757267650000536E346B330091
:10279000496E76616465727300427269636B6F752E
:1027A000740041626F7574205072696E74657200B6
:1027B00028323630202F2032202D20313029003091
:1027C000004245443A204550434F53203130304B6E
:1027D0000052756E617761792057617463683A20A1
:1027E0004F4E004D61782054656D700028323630B0
:1027F000202B20313529004D696E2054656D700005
:10280000300045313A204550434F53203130304B52
:10281000005053550047656E657269630050726FD2
:10282000746F636F6C00312E30004261756400324A
:102830003530303030004754323536302056332E64
:10284000300042696C696E656172204C6576656C1A
:10285000696E670045787472756465727300310043
:102860006D61726C696E66772E6F72670047656581
:102870006574656368204132305400323032312D46
:1028800030312D3130006275676669782D322E3017
:102890002E78004D61726C696E0047616D65730042
:1028A000546865726D6973746F727300426F617200
:1028B0006420496E666F005072696E7465722049BB
:1028C0006E666F004D61696E00496E76616C696479
:1028D0002065787472756465720A00220A00556E6C
:1028E0006B6E6F776E20636F6D6D616E643A202240
:1028F00000DB0FC93F45BCDA3F8FB30240FCF02735
:102900004056946140FE4B9B4084A5D840E023187C
:1029100041346A5641E859974164DBD5416E271727
:1029200042B4B75542CE1A9742C8AED542B5885A7E
:1029300043D40684BFA65FA7BF7443E0BF10B11A9B
:10294000C01C2C58C0E8F697C0B849D6C04E4E17E8
:10295000C124D355C1802497C1A0B5D5C1121A177F
:10296000C244AE55C2781797C26CACD5C267885ABC
:10297000C320746F6F206C6F6E67206578747275FA
:1029800073696F6E2070726576656E7465640A0097
:1029900020636F6C6420657874727573696F6E2044
:1029A00070726576656E7465640A0053746F726543
:1029B0002053657474696E6773004C6F61642053B3
:1029C000657474696E6773004C6576656C20436F3F
:1029D000726E6572730050726F6265205A204F6686
:1029E000667365740046616465204865696768744C
:1029F000004F6666004F6E00426564204C65766548
:102A00006C696E670045646974204D657368004C9D
:102A10006576656C20426564004732380A47323972
:102A200000473239004175746F20486F6D65004D65
:102A30006F74696F6E0053746F77004465706C6FCC
:102A4000790053572D4D6F64650053656C662D54A6
:102A500065737400526573657400426564004E6F5F
:102A60007A7A6C650046616E205370656564004338
:102A70006F6E66696775726174696F6E004C6F6125
:102A8000642053657474696E677300526573746F64
:102A900072652044656661756C74730053746F725F
:102AA000652053657474696E67730050726568655C
:102AB0006174202420436F6E6600506F776572202A
:102AC0004F7574616765004F6666004F6E00527502
:102AD0006E6F75742053656E736F7200424C546F45
:102AE0007563680050726F6265205A204F66667386
:102AF000657400416476616E636564205365747427
:102B0000696E6773004D61696E004265640045310E
:102B100000626564002C2073797374656D20737492
:102B20006F7070656421204865617465725F494407
:102B30003A200048656174696E67204661696C657A
:102B4000640048656174696E67206661696C6564DC
:102B500000202D20496E76616C696420657874725E
:102B600075646572206E756D62657220210A00546D
:102B70004845524D414C2052554E41574159005401
:102B80006865726D616C2052756E61776179004580
:102B900072723A204D415854454D50004D415854A1
:102BA000454D5020747269676765726564004572AF
:102BB000723A204D494E54454D50004D494E5445B2
:102BC0004D502074726967676572656400202F003C
:102BD0002042403A0020403A0020573A00436F6DAF
:102BE0006D697420562D746F6F6C204D69780043A9
:102BF00079636C65204D697800436F6D706F6E6509
:102C00006E74203D004D6978657200562D746F6FAB
:102C10006C732057657265205265736574003F00C0
:102C200043616E63656C005265736574005265762E
:102C300065727365204772616469656E740054251E
:102C4000692D3E542569004772616469656E7400A0
:102C5000526573657420562D746F6F6C73004D69E7
:102C6000780041637469766520562D746F6F6C002F
:102C70004D61696E002100486F74656E6420746F49
:102C80006F20636F6C64004261636B0050726F630E
:102C9000656564004F6666004F6E00536F66742072
:102CA000456E6473746F7073004D6F74696F6E005E
:102CB00044697361626C65205374657070657273EA
:102CC000004D383400426564204C6576656C696E51
:102CD0006700486F6D65205A004732385A00486FC8
:102CE0006D652059004732385900486F6D6520588E
:102CF0000047323858004175746F20486F6D650089
:102D0000473238004D61696E0043616E6E6F74200A
:102D10006F70656E20737562646972200053442081
:102D2000496E6974204661696C0053442063617286
:102D300064206F6B0A006F70656E526F6F7420664F
:102D400061696C65640A00766F6C756D652E696EDD
:102D50006974206661696C65640A004E6F20534493
:102D600020636172640A000A4D3234004D32332010
:102D70002573002E0A006F70656E206661696C65B0
:102D8000642C2046696C653A200046696C652073A6
:102D9000656C65637465640A002053697A653A203E
:102DA0000046696C65206F70656E65643A20004569
:102DB0004E4420535542524F5554494E450A002225
:102DC00020706F73002220706172656E743A220069
:102DD000535542524F5554494E452043414C4C2087
:102DE0007461726765743A220053756263616C6C3A
:102DF000204F766572666C6F770045786365656411
:102E00006564206D617820535542524F5554494EA8
:102E1000452064657074683A002E0A0044656C654C
:102E200074696F6E206661696C65642C2046696CFC
:102E3000653A200046696C652064656C657465645C
:102E40003A002F6175746F25632E6700577269749D
:102E5000696E6720746F2066696C653A200066723F
:102E600065736800646F696E67002066696C653A17
:102E700020004E6F77200020453A00205A3A00206B
:102E8000593A00583A0000002200250028002B0083
:102E90002E003100340002010000050108010B0181
:102EA00000002100240027002A002D0030003300FC
:102EB00001010000040107010A01050505050705D8
:102EC00008080808020202020A0A080804040404A6
:102ED00001010101010101010303030303030303D2
:102EE000040707070C0C0C0C0C0C0C0C0202020261
:102EF00006060606060606060B0B0B0B0B0B0B0B4A
:102F000001021020200808102040102040800201FB
:102F100002010804020101020408102040808040E0
:102F200020100804020180040201804020100804DF
:102F3000020108040201010204081020408001027D
:102F40000408102040804D313030300053746F70D1
:102F5000205072696E7400526573756D65205072F1
:102F6000696E7400506F776572204F757461676584
:102F7000003F004261636B0053746F7000507269D0
:102F80006E742066726F6D204D65646961004368E0
:102F9000616E6765204D65646961004D32310041A5
:102FA000626F7574205072696E7465720043686157
:102FB0006E67652046696C616D656E7400436F6E67
:102FC00066696775726174696F6E004D69786572C4
:102FD0000054656D7065726174757265004D6F7433
:102FE000696F6E00526573756D65205072696E74FD
:102FF000004E6F204D656469610054756E65005325
:10300000746F70205072696E740050617573652022
:103010005072696E7400496E666F20536372656505
:103020006E003F005374617274205072696E7400B8
:1030300043616E63656C005072696E740043616E2B
:103040006E6F7420656E7465722073756264697248
:103050003A2000022E2E004D61696E002534642E48
:103060002564206D6D002534642E2564206D6D006F
:103070002020456E64205A3A002534642E256420B1
:103080006D6D005374617274205A3A00416C69612D
:103090007320562D746F6F6C002020456E6420568F
:1030A0002D746F6F6C00537461727420562D746FA1
:1030B0006F6C00252900257C002028004F46460023
:1030C0004F4E00203B2043757272656E74205A008B
:1030D000203B20456E6400203B20537461727400D5
:1030E000202854004772616469656E74204D6978C8
:1030F000200020496E76616C6964204520737465F8
:103100007070657220002045207374657070657260
:10311000206E6F74207370656369666965640A0068
:10312000496E736572742066696C616D656E74209A
:10313000616E6420707265737320627574746F6E53
:103140000A00507265737320627574746F6E207418
:103150006F2068656174206E6F7A7A6C650A004929
:103160006E736572742066696C616D656E74206142
:103170006E6420707265737320627574746F6E0A6A
:10318000004D32342053256C642054256C64004774
:1031900039322E39204525730047312046256400F9
:1031A0004739322E39205A2573004731205A3020B2
:1031B000463230300047312058257320592573207E
:1031C0004633303030004D34323020532569205A98
:1031D0002573004D31303620502569205325690074
:1031E0004D32303020442573004732385230585920
:1031F000004739322E39204530205A300A47315A9B
:103200002573004D31303920532569004D31393057
:1032100020532569004D343230205330205A30007D
:1032200020496E76616C6964206578747275646596
:10323000722000506C65617365205265736574007F
:103240005052494E5445522048414C544544002563
:10325000533A202553004B494C4C45442E200050F6
:1032600072696E7465722068616C7465642E206B7F
:10327000696C6C28292063616C6C6564210A0053B9
:10328000544F505045442E20005072696E74657240
:103290002073746F707065642064756520746F208E
:1032A0006572726F72732E2046697820746865208B
:1032B0006572726F7220616E6420757365204D397E
:1032C000393920746F20726573746172742E2028EE
:1032D00054656D70657261747572652069732072D2
:1032E000657365742E20536574206974206166745B
:1032F00065722072657374617274696E67290A0061
:103300006563686F3A004572726F723A0042696C89
:10331000696E656172204C6576656C696E672047E1
:103320007269643A0A0021212053544F502063618E
:103330006C6C65642062656361757365206F6620DF
:10334000424C546F756368206572726F72202D2035
:10335000726573746172742077697468204D3939AD
:10336000390A0021212053544F502063616C6C6551
:10337000642062656361757365206F6620424C54FA
:103380006F756368206572726F72202D207265738D
:10339000746172742077697468204D3939390A0074
:1033A000486F74656E6420746F6F20636F6C640A7D
:1033B000004361703A004348414D4245525F5445D5
:1033C0004D50455241545552450042414259535483
:1033D000455050494E470041524353004D4F5449C8
:1033E0004F4E5F4D4F44455300544845524D414C5C
:1033F0005F50524F54454354494F4E004C4F4E4737
:103400005F46494C454E414D45004155544F52454C
:10341000504F52545F53445F5354415455530052DC
:103420004550454154005344434152440050524F8B
:103430004D50545F535550504F525400454D4552D6
:1034400047454E43595F5041525345520043415303
:10345000455F4C494748545F4252494748544E459E
:10346000535300544F47474C455F4C4947485453CA
:1034700000534F4654574152455F504F57455200F5
:103480004255494C445F50455243454E54004C45CB
:1034900056454C494E475F44415441005A5F505293
:1034A0004F42450052554E4F5554004155544F4CD4
:1034B0004556454C005052494E545F4A4F420050C9
:1034C000524F4752455353004155544F5245504F68
:1034D00052545F54454D5000564F4C554D45545233
:1034E000494300454550524F4D0042494E415259C3
:1034F0005F46494C455F5452414E53464552005336
:10350000455249414C5F584F4E5F584F4646004622
:1035100049524D574152455F4E414D453A4D6172BA
:103520006C696E206275676669782D322E302E7850
:1035300020284A616E20313020323032312032333F
:103540003A35333A30362920534F555243455F437D
:103550004F44455F55524C3A6769746875622E63F3
:103560006F6D2F4D61726C696E4669726D77617215
:10357000652F4D61726C696E2050524F544F434F0E
:103580004C5F56455253494F4E3A312E30204D41F3
:103590004348494E455F545950453A4765656574FF
:1035A0006563682041323054204558545255444593
:1035B000525F434F554E543A3120555549443A399C
:1035C000393933303532372D356130302D3432379B
:1035D000382D386332352D37633039386164646390
:1035E0003332320A004261627973746570205A0086
:1035F00050726F6265204F6666736574205A005082
:10360000726F6265204F6666736574205A00290ADE
:103610000020746F20003F5A206F7574206F662061
:1036200072616E6765202800290A0020746F2000EF
:103630003F59206F7574206F662072616E67652038
:10364000282D00290A0020746F20003F58206F7534
:1036500074206F662072616E676520282D0050729D
:103660006F6265204F66667365742058006F6B004B
:10367000526573656E643A200023646566696E6501
:103680002044454641554C545F00626564004B64DC
:1036900020004B6920004B702000504944204175A8
:1036A000746F74756E652066696E697368656421F0
:1036B0002050757420746865206C617374204B70A1
:1036C0002C204B6920616E64204B6420636F6E7305
:1036D00074616E74732066726F6D2062656C6F77B3
:1036E00020696E746F20436F6E66696775726174CE
:1036F000696F6E2E680A00504944204175746F74DA
:10370000756E65206661696C6564212074696D65FC
:103710006F75740A00504944204175746F74756E5A
:1037200065206661696C6564212054656D70657201
:10373000617475726520746F6F20686967680A002C
:10374000204B643A2000204B693A2000204B703A0D
:1037500020000A20436C6173736963205049442040
:103760000A00204B643A2000204B693A2000204B8D
:10377000703A20000A204E6F206F76657273686F72
:103780006F740A002054753A2000204B753A2000CF
:10379000206D61783A2000206D696E3A2000206427
:1037A0003A200020626961733A2000504944204168
:1037B00075746F74756E652073746172740A00504D
:1037C0004944204175746F74756E65206661696C3B
:1037D0006564212054656D70657261747572652031
:1037E000746F6F20686967680A005049442041750A
:1037F000746F74756E6500504944204175746F7420
:10380000756E65206661696C656421204261642083
:103810006578747275646572206E756D6265720A82
:10382000002A2053746570732F6D6D005A205374F5
:103830006570732F6D6D00592053746570732F6D13
:103840006D00582053746570732F6D6D0041647660
:10385000616E6365642053657474696E6773003FBD
:103860000043616E63656C00496E6974004D3432CB
:103870003800496E697469616C697A652045455004
:10388000524F4D0046696C616D656E740054656DF4
:1038900070657261747572650053746570732F6D15
:1038A0006D0050726F6265204F66667365747300B9
:1038B0004A756E6374696F6E204465760041636378
:1038C000656C65726174696F6E0056656C6F6369D3
:1038D00074790053657420486F6D65204F66667378
:1038E00065747300436F6E66696775726174696FA2
:1038F0006E003F004E65787420506F696E7400440E
:103900006F6E65004E65787400486F6D696E672054
:1039100058595A005A2056616C756500496E6465A5
:1039200078205900496E646578205800486F6D69A9
:103930006E67204661696C6564006F70656E005447
:103940005249474745524544003A200000002000B4
:103950002300260029002C002F0032000001000067
:1039600003010601090166696C616D656E74007A78
:103970005F6D696E00795F6D696E00785F6D696E6D
:10398000005265706F7274696E6720656E6473743F
:103990006F70207374617475730A0020746F6F20E8
:1039A0006C6F6E6720657874727573696F6E2070C6
:1039B000726576656E7465640A0020636F6C6420BE
:1039C000657874727573696F6E2070726576656E56
:1039D0007465640A00486F6D65202573257325732F
:1039E0002046697273740000007F4300007F43002B
:1039F000007A430000A0C000000000000000005357
:103A0000657474696E67732053746F726564004FD8
:103A100046460A0046616465204865696768742007
:103A200000426564204C6576656C696E67200046CF
:103A300061696C656420746F20656E61626C6520DD
:103A4000426564204C6576656C696E670A00496E54
:103A500076616C6964206D6573682E0A0050726F20
:103A600062696E6720506F696E7400255320256966
:103A70002F2569002E0A002F0050726F62696E6751
:103A8000206D65736820706F696E74200020284473
:103A9000525952554E2900473239204175746F20D2
:103AA000426564204C6576656C696E67003F20282E
:103AB0004C2C522C462C4229206F7574206F6620A6
:103AC000626F756E64732E0A003F28562965726214
:103AD0006F7365206C6576656C20696D706C6175BF
:103AE0007369626C652028302D34292E0A004261EA
:103AF00064205A2076616C75650A004E6F206269F9
:103B00006C696E65617220677269640A00205200F8
:103B1000416363656C65726174696F6E3A20500031
:103B2000204D3932205400204D3932205800205881
:103B30000020204D61783A2000200020204D696E41
:103B40003A2000536F667420656E6473746F7073EF
:103B50003A20005654726176204D696E00566D69A8
:103B60006E00566D6178202A00566D617820450000
:103B7000566D6178205A00566D6178205900566D57
:103B80006178205800416D6178202A00416D61788C
:103B9000204500416D6178205A00416D61782059BF
:103BA00000416D6178205800412D54726176656C3A
:103BB00000412D5265747261637400416363656CEA
:103BC0000050726F6265205A204F666673657400FC
:103BD00050726F62652059204F666673657400509D
:103BE000726F62652058204F66667365740000002E
:103BF000A0C000000000000000005761726E696EF6
:103C0000673A20486F6D696E672042756D70204479
:103C1000697669736F72203C20310A000202040049
:103C200000824300007F4300007A430000A0400070
:103C300000A04000000040FFFFFF00000001000066
:103C4000000100008000555555000000400033334E
:103C50003300AAAA2A004992240000002000C7715C
:103C60001C0099991900D1451700555515003BB115
:103C700013002449120011111100000010000F0F51
:103C80000F00E3380E0043790D00CCCC0C00C3309C
:103C90000C00E8A20B0064210B00AAAA0A00703DE8
:103CA0000A009DD80900427B090092240900DCD358
:103CB0000800888808001042080000000800F0C1D1
:103CC00007008787070075500700711C07003EEB4F
:103CD0000600A1BC06006990060066660600703EFC
:103CE00006006118060017F4050074D105005BB0EA
:103CF0000500B2900500627205005555050078393F
:103D00000500B81E0500050505004EEC040087D42B
:103D10000400A1BD040090A7040049920400C17DE5
:103D20000400EE690400C7560400444404005C32F9
:103D300004000821040041100400000004003FF0CA
:103D40000300F8E0030026D20300C3C30300CCB590
:103D500003003AA803000A9B0300388E0300C081C9
:103D600003009F750300D0690300505E03001D53DC
:103D7000030034480300913D030033330300162948
:103D80000300381F030097150300300C03000303E2
:103D900003000BFA020049F10200BAE802005CE0FD
:103DA00002002DD802002DD0020059C80200B0C078
:103DB000020031B90200DAB10200AAAA0200A0A3EF
:103DC0000200BC9C0200FA9502005C8F0200DF88B2
:103DD000020082820200457C0200277602002770E2
:103DE0000200436A02007C640200D05E02003F5978
:103DF0000200C8530200FFFDFCFAF8F6F4F2F0EE00
:103E0000ECEAE9E7E5E3E1E0DEDCDAD9D7D5D4D2C4
:103E1000D0CFCDCBCAC8C7C5C3C2C0BFBDBCBAB95D
:103E2000B7B6B4B3B2B0AFADACAAA9A8A6A5A4A2C8
:103E3000A1A09E9D9C9A99989795949392908F8E0D
:103E40008D8B8A8988878684838281807F7E7D7B33
:103E50007A797877767574737271706F6E6D6C6B3A
:103E60006A696867666564636261605F5E5D5C5B2A
:103E70005A5958585756555453525150504F4E4D09
:103E80004C4B4A4A494847464645444342424140D2
:103E90003F3E3E3D3C3B3B3A39383837363535348A
:103EA0003332323130302F2E2E2D2C2B2B2A292934
:103EB00028272726252524232322212120201F1ED1
:103EC0001E1D1C1C1B1B1A19191818171616151560
:103ED00014131312121111100F0F0E0E0D0D0C0CE6
:103EE0000B0A0A0909080807070606050504040362
:103EF00003020201000000000A0B02090C0D0E086B
:103F000007030401000000000000000000000000A2
:103F100000000000000000000000000000000000A1
:103F2000000012111000000000000000000000005E
:103F3000000000000000000000000000004D6F764F
:103F4000652025736D6D004D6F766520302E316DC7
:103F50006D004D6F766520316D6D004D6F7665207B
:103F600031306D6D004D6F76652041786973004585
:103F700078747275646572004D6F7665205A004DD5
:103F80006F76652059004D6F766520580050726934
:103F90006E742066726F6D204D656469610000FE6D
:103FA0000003FF8007C7C00701E00000E00000F049
:103FB0000000700400700E00701F00703F80F00E53
:103FC00000E00F01E007C7C003FF8000FE0000FE15
:103FD0000003FF8007C7C00F01E00E00E03F80F044
:103FE0001F00700E00700400700000700000F000F0
:103FF00000E00701E007C7C003FF8000FE000E00DD
:104000000E000E000E000E000E000E000E007FC00F
:104010003F801F000E00040004000E001F003F80C0
:104020007FC00E000E000E000E000E000E000E00EF
:104030000E00FFFFFF7F80FFC0FFC0FFC07F807FBB
:1040400080FFC0FFC0FFC03F001E000C0050726F19
:104050006265205A204F666673657400454550526C
:104060004F4D20496E697469616C697A65640A0014
:104070000000FA430000FA430000F0410000F04263
:104080000000A0420000A0420000C8430000D74347
:10409000E8030000E803000096000000401F000055
:1040A0003B20003A0A0020204D36303320002044C7
:1040B0000020204D34313220530046696C616D651B
:1040C0006E742072756E6F75742073656E736F7287
:1040D0003A002055004C0046696C616D656E742095
:1040E0006C6F61642F756E6C6F6164206C656E67B8
:1040F0007468733A0020204D3835312058005A2D0D
:1041000050726F6265204F66667365740020204DA3
:10411000343133205300506F7765722D4C6F7373B9
:10412000205265636F766572793A00204400204919
:104130000020204D3330342050002044002049001E
:1041400020204D3330312050005049442073657495
:1041500074696E67733A00204600204200204800D0
:1041600020204D3134352053004D617465726961F2
:104170006C2068656174757020706172616D657422
:104180006572733A00204A002020473239205720B8
:10419000490020204D3432302053004175746F2087
:1041A000426564204C6576656C696E673A00202034
:1041B0004D323036205800486F6D65206F6666734B
:1041C00065743A00204A0020530020204D323035DB
:1041D000204200416476616E6365643A20423C6D22
:1041E000696E5F7365676D656E745F74696D655F39
:1041F00075733E20533C6D696E5F666565647261E0
:1042000074653E20543C6D696E5F74726176656CB6
:104210005F66656564726174653E204A3C6A756ECE
:10422000635F6465763E0020540020520020204DDC
:10423000323034205000416363656C65726174698B
:104240006F6E2028756E6974732F7332293A20506F
:104250003C7072696E745F616363656C3E20523CB2
:10426000726574726163745F616363656C3E205450
:104270003C74726176656C5F616363656C3E0020BF
:10428000204D32303120540020204D323031205822
:10429000004D6178696D756D20416363656C657271
:1042A0006174696F6E2028756E6974732F7332297B
:1042B0003A0020450020204D323033205400205A4F
:1042C0000020590020204D3230332058004D6178B5
:1042D000696D756D2066656564726174657320280B
:1042E000756E6974732F73293A0053746570732067
:1042F00070657220756E69743A0020440020204D6C
:104300003230302053002044697361626C65640A66
:104310000046696C616D656E742073657474696EB6
:1043200067733A0020204D3134392043203B20551B
:104330006E69747320696E2043656C736975730AC6
:104340000020286D6D2900202047323120202020B8
:104350003B20556E69747320696E206D6D0050723C
:104360006F62696E67204661696C65640A0050720D
:104370006F62696E67204661696C656400205A3A15
:10438000200020593A200042656420583A2000203D
:10439000573A00476565657465636820413230545B
:1043A0002052656164792E005072696E74696E677F
:1043B0002E2E2E005072696E7420506175736564E4
:1043C00000000201CE0111241FBECFEFD1E2DEBFFB
:1043D000CDBF00E00CBF13E0A0E0B2E0E4E0F6E007
:1043E00003E00BBF02C007900D92A837B107D9F7C1
:1043F00029E1A8E7B3E001C01D92A338B207E1F7B5
:1044000011E2C2EED1E200E006C021970109802F3F
:10441000FE010F94417FC13ED10780E00807A9F754
:104420000F9425670D94F0820C9400002F923F9218
:104430004F925F926F927F928F929F92AF92BF92B4
:10444000CF92DF92EF92FF920F931F93CF93DF9360
:10445000CDB7DEB7E5970FB6F894DEBF0FBECDBF80
:104460008DAB209181032CAB81E0809381038091FF
:104470003B178D3409F486C3843511F40C9404334E
:10448000873411F00C9414338091391790913A17B6
:104490008B31910509F416C1B0F48430910530F4E4
:1044A0002091E7068230910568F136C0853191058B
:1044B00011F40C9416338A31910509F4FFC0049766
:1044C00009F05CC3BCC08A32910509F477C250F48C
:1044D0008D31910509F420C108F40FC14E9709F4FC
:1044E0003AC14CC38B35910509F4B2C18C359105A5
:1044F00009F4B3C18A35910509F040C31092B11196
:104500000C941633213011F00C9416330E94DDF711
:104510000F941E1A0C941633213011F00C9416339C
:1045200011E0029709F010E00E94DDF719821A826B
:104530001B821C821D821E821F82188682E50E94B9
:10454000B870882309F44BC00E9433706B017C0162
:1045500020E030E0A9010F944678882309F455C083
:1045600080914F0290915002A0915102B09152025D
:1045700088A799A7AAA7BBA780915302909154023C
:10458000A0915502B091560288AB99ABAAABBBABD8
:104590008090521990905319A0905419B0905519C9
:1045A00040905619509057196090581970905919A9
:1045B000A501940168A579A58AA59BA50F944678C5
:1045C00081110C941F33A301920168A979A98AA9CA
:1045D0009BA90F9446788823C1F00C941F3389E47B
:1045E0000E94B870882331F00E94337069837A8307
:1045F0008B839C838AE40E94B870882331F00E94E8
:1046000033706D837E838F83988720E030E0A9012B
:1046100069817A818B819C810F94467881110C94F9
:10462000D33320E030E0A9016D817E818F819885B0
:104630000F94467881110C94D3330C94E63380E5C3
:104640000E94B870882329F00F940D326B017C0111
:1046500003C0C12CD12C760183E50E94B870882359
:1046600061F00E94337020E030E04AE754E40F9498
:10467000AC780F94CF806B017C010F94BB43809189
:104680005204811105C060E089EC96E00E94056C3F
:104690000F94D34CC60ED71EE81EF91E0F94D34CB0
:1046A000DC01CB018C199D09AE09BF09B7FD02C021
:1046B0000C94163380E00E94583CF0CF0E94E970C1
:1046C0000C94163387E00F94101981110C94163353
:1046D0008CE0E0EBF2E0DE01119601900D928A95FC
:1046E000E1F760E070E080E50E9426F6BE016F5FB2
:1046F0007F4F0E949D890C94163387E00F94F41825
:1047000081110C94ED3360E08FE40E94D47081112C
:104710000C9416330C94ED330F94D34C60936619BC
:1047200070936719809368199093691987E00F94C3
:10473000101981110C9416338091B611882311F44D
:104740000C94C23560E08FE40E94D47081110C9407
:1047500016330C94C2350091701310917113D80167
:104760002D913D914D915C9160914F02709150025D
:1047700080915102909152020F945C7FAB01BC0179
:1047800088E50F948A0569837A838B839C83F8017B
:104790002481358146815781609153027091540282
:1047A00080915502909156020F945C7FAB01BC0141
:1047B00089E50F948A056D837E838F839887BE0178
:1047C0006B5F7F4FCE0101960F944732882311F41F
:1047D0000C94163380E00E9421FE0F94201D61E0AE
:1047E00085E40E94D470182F21E0482FBE016B5F32
:1047F0007F4FCE0101960F94755F6B017C019B0189
:10480000AC010F944E82811119C049815A816B818C
:104810007C818FEF96E00F9413034D815E816F8151
:1048200078858AEF96E00F941303B701A60185EF10
:1048300096E00F9413038AE00E942C3B0F94071D0F
:10484000113011F40F942C320F947F1F0C941633F7
:104850008FE08093B1110C94163380913817882320
:1048600049F1893009F0A6C0FCEBAF2EF2E0BF2E73
:10487000AFE4EA2EA2E0FA2ED12C00E010E0D50140
:104880008D915D010E94B870882369F00E94337099
:10489000F7016083718382839383133011F401E005
:1048A00002C0DD24D3941F5FF4E0EF0EF11C14303E
:1048B00031F775C06CEB262E62E0362E76EDE72ED2
:1048C00071E1F72E2FE432E039A728A7E6EBCE2ED0
:1048D000E2E1DE2E00E010E0D1018D911D010E9489
:1048E000B870882309F44BC00E9433702B013C013F
:1048F000133049F0F60120813181428153810F94B8
:104900005B7F2B013C01A8A5B9A52D913D914D914F
:104910005C91C301B2010F945B7F4B015C012DEBF5
:1049200037E346E855EB0F94BC8187FD0AC02DEBB9
:1049300037E346E855E3C501B4010F9446781816ED
:10494000F4F4133051F440925B0250925C02609296
:104950005D0270925E0201E012C0A5019401F701B0
:1049600060817181828193810F945C7FD7016D9307
:104970007D938D939C931397812F0F94F5481F5F20
:10498000B4E0EB0EF11CE8A5F9A53496F9A7E8A769
:10499000F4E0CF0ED11C143009F09ECF05C0DD200D
:1049A00019F00F947D1F06C0002321F08BE592E0E3
:1049B0000F9468470F947F1F0C9416338091E7067D
:1049C000813011F00C94163389E40E94B870E82EFF
:1049D000882321F00E942F70082F01C000E08AE494
:1049E0000E94B870F82E882321F00E942F70182F93
:1049F00001C010E0EE2011F0033020F4FF2041F060
:104A0000133030F087E097E00F946D020C9416336A
:104A100080E1EFE4F2E0A2E5B9E101900D928A9520
:104A2000E1F7EE2019F1602F000F770B880B990B3F
:104A30000F944D782091091930910A1940910B1962
:104A400050910C190F94AC782091001830910118F6
:104A500040910218509103180F945C7F6093521993
:104A6000709353198093541990935519FF2019F19D
:104A7000612F110F770B880B990B0F944D782091B4
:104A80000D1930910E1940910F19509110190F9472
:104A9000AC78209104183091051840910618509177
:104AA00007180F945C7F6093561970935719809381
:104AB00058199093591960E080E50E94D4708823BA
:104AC000C1F1EE20D1F0E0917013F09171132081CB
:104AD00031814281538160915219709153198091B3
:104AE0005419909155190F945B7F609352197093EC
:104AF00053198093541990935519FF20D1F0E091E8
:104B00007013F09171132481358146815781609132
:104B100056197091571980915819909159190F94FD
:104B20005B7F60935619709357198093581990932F
:104B3000591940E050E0BA0186E40F948A056B01F0
:104B40007C0120E030E0A9010F94BC8118164CF4E0
:104B500020E030E040E752E4C701B6010F945680F0
:104B600003C060E070E0CB0169837A838B839C8310
:104B7000CE0101960F943F1D0C9416330E942AB962
:104B80000C9416338091391790913A178139910519
:104B900009F440C708F0FEC08235910509F40FC63C
:104BA00008F082C08A31910509F417C370F5843189
:104BB000910509F477C278F48131910509F45EC258
:104BC00028F4029708F422C20C940133429709F4A6
:104BD00004C60C9401338731910509F498C260F43E
:104BE0008531910509F48FC2469711F00C94013379
:104BF0000E941BD90C9416338831910509F49CC28C
:104C0000499709F4D4C20C9401338F31910509F40A
:104C10008FC378F48C31910509F442C308F4EBC2D8
:104C20008D31910509F444C34E9709F448C30C949F
:104C300001338C34910509F426C468F4803291055F
:104C400009F44DC38B34910511F00C9401330F948A
:104C500031210C9416338D34910509F418C4813533
:104C6000910511F00C9401330E94A1C40F946A21A4
:104C70000F94CC430E941A391092FE1783E0EBEF99
:104C8000F7E1DF011D928A95E9F768EE73E080E0B5
:104C900090E00F94AF010E94203960E081E598E038
:104CA0000E94056C0C9416338E36910509F49EC44F
:104CB00070F58836910509F4EEC380F484359105CA
:104CC00009F48BC508F482C58535910509F488C5BA
:104CD0008C35910509F4A7C50C9401338B369105E9
:104CE00009F475C450F48936910509F418C48A365C
:104CF000910509F428C40C9401338C36910509F40C
:104D0000CDC48D36910509F4E7C30C940133853782
:104D1000910509F426C610F58137910509F4C3C43D
:104D200080F48F36910509F474C48037910511F031
:104D30000C94013341E060E070E08EE198E00F9464
:104D4000CC048237910509F405C68337910511F02B
:104D50000C9401330F94670F0C9416338837910528
:104D600009F449C668F48637910509F40AC68737FD
:104D7000910511F00C9401330F942A200C941633F2
:104D80008937910509F43FC68C38910509F4B2C4FE
:104D90000C940133803321E0920711F40C945A30C3
:104DA00008F082C08D3C910509F485C7C8F5863AA4
:104DB000910509F4DEC6C0F4833A910509F49EC654
:104DC00030F48B39910509F4D4C40C940133843A3E
:104DD000910509F4BBC6853A910511F00C94013395
:104DE0000E9439F70C941633893C910509F40BC7DE
:104DF00050F48E3B910509F49CC4883C910509F45C
:104E0000BBC60C9401338B3C910509F42CC78C3C38
:104E1000910511F00C9401330F9497310C941633D3
:104E20008831A1E09A0711F40C942B2FD0F4833D24
:104E3000910509F476C758F48E3C910511F00C9455
:104E4000013352EEE52E51E1F52E10E04DC78C3DB9
:104E5000910509F469C78D3D910509F4A6C70C9425
:104E600001338D32E1E09E0711F40C94DA2F68F4DF
:104E7000823221E0920711F40C94C22F8C329140BF
:104E800011F40C94C52F0C9401338E32A1E09A07D3
:104E900011F40C94CD308F32914011F00C94013309
:104EA0000F94A1050C941633853FE1E09E0711F4A1
:104EB0000C94193208F04BC08C3921E0920711F4A0
:104EC0000C942231F8F48139A1E09A0711F40C9482
:104ED000113148F48039914011F00C9401330F9452
:104EE000BB430C9416338239F1E09F0711F40C9404
:104EF0001B318A39914011F00C9401330E94D13852
:104F00000C941633853A31E0930711F40C94453133
:104F100078F48D39B1E09B0711F40C94C732843AD0
:104F2000914011F00C9401330F94BA380C9416335D
:104F30008C3AF1E09F0711F40C94BC31843F91400E
:104F400011F00C9401330F940E240C9416338B350E
:104F500032E0930711F40C943D3258F5883FB1E0EC
:104F60009B0711F40C941F32A8F4863FF1E09F07D1
:104F700011F40C941C32873F914011F00C940133D2
:104F800061E083E50E94D47091E089270F949459E1
:104F90000C9416338C3032E0930711F40C943032B9
:104FA0008835924011F00C9401330E94F1F10C9479
:104FB0001633873EB3E09B0711F40C94B932C8F462
:104FC0008335F3E09F0711F40C94B632803A934096
:104FD00011F00C94013320913617309137179091CE
:104FE0000E14926090930E14C9010E94E5D90C949E
:104FF0001633883E33E0930711F40C94DE32893E79
:10500000934011F40C94E1320C94013380E50E943A
:10501000B870882329F00F940D326B017C0103C016
:10502000C12CD12C760183E50E94B870882361F0F1
:105030000E94337020E030E04AE754E40F94AC78EB
:105040000F94CF806B017C010F94BB438091361786
:1050500090913717009721F061E00E947C6C05C0A9
:1050600060E080E297E00E94056C40E0C701B60175
:105070000E9419420F94525D0C94163380913C1794
:1050800084FF02C00C94C53580913E1787FF02C093
:105090000C94C53580913F17837011F00C94C53581
:1050A0000C94DD3580910E1483FF25C08BE497E0CE
:1050B0000F946D0280910E1483FF17C08DE294E16E
:1050C0000E940D818BE1EDE2F4E1DE011196019089
:1050D0000D928A95E1F760E070E0CE0101960E94A2
:1050E000A3DECE0101960E94CEF88CE397E00F94E8
:1050F0006D020C9416330F9448038CE597E00F94DF
:105100006D020C9416330E94B1DC0C941633E091BE
:105110003617F09137178081882329F0803209F4FF
:1051200010823196F8CF60E0809136179091371752
:105130000E942DDA0C94163383E50E94B870882300
:1051400021F00E94FB6F0F940A0B84E50E94B87057
:105150008823A9F00E94FB6F6B017C010F9416213C
:10516000C092D917D092DA17E092DB17F092DC17D1
:10517000CD28CE28CF2819F081E0809378190E949D
:10518000F638882381F00E94BAD80F94312182E446
:1051900092E10E945FD8109240171092411710922E
:1051A0004217109243170F94525D0C94163380915E
:1051B0000E1482FF03C08B7F80930E148091191907
:1051C000882329F060E070E0CB010E9425E30F9472
:1051D00055210F94525D0C94163380910E1483FD6B
:1051E00002C00C94163383E50E94B87081110C94B0
:1051F000E8350C94163383E40E946A70882319F111
:1052000080E797E00F946D0280917415882391F0E8
:10521000BE016F5F7F4F81E795E10E94F1838E01B0
:105220000F5F1F4FF80181918F01882339F00E9491
:105230002C3BF8CF86E697E00F946D028AE00E943F
:105240002C3B0C94163380910E1482FF23C0C09027
:105250000A14D0900B14E0900C14F0900D148FE70A
:1052600097E00F946D024AE0C701B6010E94333BFC
:105270008FE20E942C3B609106147091071480917C
:105280000814909109144AE00E94333B0E94313C7B
:105290000C94163381E997E00F946D020C94163349
:1052A00080913617909137170E94E5D90C941633E8
:1052B00080910E148E7F80930E140C94163380917F
:1052C0000E1483FD02C00C9416330E9413B9809112
:1052D0003617909137170E942DDE0C94163380916B
:1052E0000E1482FD0F94BB4380910E1483FD02C007
:1052F0000C94163360E080E50E94D470182F682F5C
:1053000080913617909137170E942DDA83E50E941D
:10531000B870882321F00E94FB6F0F940A0B0E9443
:10532000BAD811110C9416330F9431210C94163302
:105330000F94E2207B018C0120E831E541E050E050
:105340000F949C7EC9016DE671E00F94197F4B01AB
:105350005C01C801B70120E13EE040E050E00F945D
:105360009C7ECA01B90128E130E040E050E00F9492
:105370009C7E762E672EC62ED72E5CE3252E312CF2
:10538000412C512CC801B701A20191010F949C7EC0
:10539000F62EE72ECA01B901A20191010F949C7E5D
:1053A000CB018E010F5F1F4F8114910499F0EF9292
:1053B000FF927F936F936F927F92BF92AF929F9273
:1053C0008F928AEC97E09F938F931F930F930F9484
:1053D000DE7713C0A114B104B1F0EF92FF927F9376
:1053E0006F936F927F92BF92AF928AEB97E09F93F9
:1053F0008F931F930F930F94DE770FB6F894DEBF51
:105400000FBECDBF30C0CD2879F0EF92FF927F93D1
:105410006F936F927F928EEA97E09F938F931F9383
:105420000F930F94DE77E9CF892B69F0EF92FF920B
:105430007F936F9386EA97E09F938F931F930F93C9
:105440000F94DE77DACFEF92FF9282EA97E09F9394
:105450008F931F930F930F94DE770F900F900F9001
:105460000F900F900F9060E0C8010E947C6C0F9429
:105470004803B8018EED97E00F9431038AE00E9453
:105480002C3B0C9416330F9455210C9416330F9427
:105490006A210C9416338091B01183FF02C00C94E2
:1054A000163389E40E94B870882311F40C94ED350A
:1054B0000E940B7090E01816190614F481E090E039
:1054C00026E0289FF001299FF00D1124E65EF64E9C
:1054D000808191810C94F7358091B01183FF02C0D7
:1054E0000C94163389E40E94B870182F882311F4A5
:1054F0000C9400360E940B7090E01816190614F4F4
:1055000081E090E026E0289FF001299FF00D112412
:10551000E65EF64E8081918100E00C9410360E9488
:10552000AEEF182F87FD0AC086E098E00F946D0259
:10553000812F0E9443C28AE00E942C3BFCA9F09379
:1055400081030C94AD3760E080E50F94F633F82EBC
:1055500022E0281710F40C94163381E40E946A703C
:10556000882329F06091B711062F10E002C00FEFD9
:1055700010E089E40E94B870882399F00E940B70B3
:1055800090E01816190614F481E090E026E0289FB8
:10559000F001299FF00D1124E65EF64E048115817D
:1055A00008C083E50E94B870882319F00E94FB6F41
:1055B0008B01EF2DF0E0E954FE4EB8010F3F1105CD
:1055C00019F010F06FEF70E060830C94163360E018
:1055D00080E50F94F633833010F00C941633E82FE7
:1055E000F0E0E954FE4E10820C9416338EE40E94D3
:1055F000B870882311F40C9416330E94FB6F6093EB
:10560000C8177093C9178093CA179093CB170C943F
:10561000163383E50E946A70882331F060E083E5E9
:105620000F94F6338093B0110F94480387E198E00C
:105630000F946D028091B011882369F14DE0E42E42
:1056400048E0F42E00E010E020E08091B01190E0FE
:10565000A0E0B0E0002E04C0B695A7959795879579
:105660000A94D2F780FF0EC0DD24D394D20E2223F9
:1056700019F08CE20E942C3BF701859194910F94D4
:105680006D022D2D0F5F1F4F32E0E30EF11C053030
:105690001105D9F6D3CD89E098E0CECD1092A804BB
:1056A0001092AA02C3C783E50E94B870882371F0E4
:1056B0000E940B70282F30E02D3331051CF48093AD
:1056C0000002B4C78CE380930002B0C70F94480374
:1056D000C0900002D12CE12CF12C8CE298E00F94C8
:1056E0006D024AE0C701B6010E94333B8AE00E9486
:1056F0002C3B9CC78091B01183FD98C789E40E9420
:10570000B870882311F40C9459360E940B7090E005
:105710001816190614F481E090E026E0289FF001A5
:10572000299FF00D1124E65EF64E828193810C9440
:1057300064368091B01183FD79C789E40E94B87006
:10574000882311F40C946B360E940B7090E01816AD
:10575000190614F481E090E026E0289FF001299FCB
:10576000F00D1124E65EF64E8281938110E00C94D8
:105770007C3683E50E94B870882309F457C70E94DD
:105780000B70182F90E0CD970CF01CE310937C0366
:105790000F94D34C6B017C01212F30E0A8EEB3E0D5
:1057A0000F94F07EC60ED71EE81EF91EC092780335
:1057B000D0927903E0927A03F0927B0337C780910D
:1057C000B1118F7D80618093B11130C78091B1118B
:1057D0008F7E80628093B11129C70F94CE3026C787
:1057E00083E50E946A70882309F420C70F94D34C84
:1057F000609366197093671980936819909369197B
:105800000E94337020E030E04AE754E40F94AC7813
:105810000F94CF8060937D0370937E0380937F030A
:105820009093800303C70E94AEEF87FDFFC690915F
:105830003C1794FD04C090913E1797FF23C0BCEB2A
:105840002B2EB2E03B2E17E1A12E1EE0B12E18A6A2
:105850008D5F082F10E0C801880F991F880F991FCE
:10586000FC01ED5CF14F4F01C801880F991F880FB3
:10587000991F9C01255B314F3DA72CA78C010F5729
:10588000184F09C090913F179370C9F6682F81E0B7
:105890000F942931CBC6D1018D911D010E94B870A2
:1058A000882309F44BC0B8A5B33009F040C00E946A
:1058B00033702B013C0120E030E040EA51E40F94CA
:1058C000467887FF2DC0A3019201F40160817181A8
:1058D000828193810F9456806B017C019B01AC0106
:1058E000ACA5BDA56D917D918D919C910F94AC78E7
:1058F000ECA5FDA56083718382839383D8016D91AC
:105900007D918D919C910F944B78A70196010F94F6
:10591000AC780F94CF80F801608371838283938386
:10592000D4014D925D926D927C92139707C00E94B4
:105930003370F501648F758F868F978FF8A5FF5FA1
:10594000F8A724E0A20EB11CF43009F0A4CF0F9404
:1059500097436CC60E940AE28BE993E10E94FD9393
:1059600065C68091361790913717009709F41BCCC4
:10597000DC012C91222309F416CC60E00E947C6C9F
:1059800055C6009136171091371794E0F12C40E07E
:10599000915021F1F8018081282F2B7F213421F4AF
:1059A00021812133D9F407C08035C1F4818180532E
:1059B0008A3048F013C0813421F0853421F441E06D
:1059C00002C0FF24F39498012E5F3F4F89012F5F9F
:1059D0003F4FF80180818032C9F3DACF41110F9433
:1059E0004803FF2021F084E698E00F946D02C8017F
:1059F0000E94373C1BC681E08093130580931205FB
:105A00000F94D32013C610921305109212050F9411
:105A1000D3200CC660E070E083E50E94C570823040
:105A200038F00F94440387E698E00F946D02FEC5AA
:105A30008C01112788E40E94B8708823E1F00E944D
:105A40002F708A3A910544F00E942F708530914062
:105A500034F40E942F7005C08AEA90E002C084E00E
:105A600091E026E0209FF001219FF00D1124E65ED9
:105A7000F64E9183808382E40E94B8708823D9F027
:105A80000E942F7097FD08C00E942F708F369105DD
:105A900034F40E942F7005C080E090E002C08EE6D2
:105AA00090E026E0209FF001219FF00D1124E65E9A
:105AB000F64E9383828386E40E94B870882309F4AB
:105AC000B5C50E942F7097FD09C00E942F708F3FAF
:105AD000910509F034F40E942F7005C080E090E039
