:100000000C9456220C9487220C9487220C948722FD
:100010000C9487220C9487220C9487220C948722BC
:100020000C9487220C9487220C9487220C948722AC
:100030000C9487220C94C9BC0C9487220C948722C0
:100040000C9487220D942E5D0C9487220C948722A9
:100050000C9487220C9487220C942E780C9465BC07
:100060000C9487220C94D4420C94CA420C9487229C
:100070000C9487220C9487220C9487220C9487225C
:100080000C94713B0C9487220C9487220C94872249
:100090000C9487220C9487220C9487220C9487223C
:1000A0000C9487220C9487220C94433B0C94872257
:1000B0000C9487220C9487220C9487220C9487221C
:1000C0000C9487220C9487220C9487220C9487220C
:1000D0000C9487220C9487220C9487220C948722FC
:1000E0000C9487223E45FB4334447A4534443444DF
:1000F0003444344434443444344434443444344440
:10010000344434443444344434443444344434442F
:10011000344434443444344434443444344434441F
:1001200074453444344434443444344434443444CE
:1001300034444D45344434443444344434443444E5
:1001400034443444344434449145314450027A01B7
:10015000080168014C02F201120104025E0252021F
:10016000FC008401E8015801F2016002D20144015F
:100170007A023601320138018A026601A201A00129
:10018000A401EA01D4015001084AD73B3BCE016EDD
:1001900084BCBFFDC12F3D6C74319ABD56833DDADE
:1001A0003D00C77F11BED9E4BB4C3E916BAAAABEED
:1001B000000000803F05A84CCDB2D44EB93836A916
:1001C000020C50B9918688083CA6AAAA2ABE000053
:1001D00000803F000C94E74A0C9431440D94BD53C9
:1001E0000D94BA3E0C9490430C94885B0C9427FABF
:1001F0000D94803E0C94E54A0D94685A0D94192490
:100200000D9413240C9480540C9466710C9408BCC7
:100210000D94415A0D9401240D94023F0C94DE4A32
:100220000C940E6E0D94565A0D947C100C94E19122
:100230000C94F96D0C944B730C942F6E0C94E5593F
:100240000C94736E0D949B3E0D947E220C94D29070
:100250000C94E6900C94AB740C94B6540C9401512D
:100260000C9470EE0D94B9630C9422D10D94B36389
:100270000D94B6630D94D93E0C9491D40D94FB2348
:100280000C941AF80D9450220D94845A0C942196D3
:100290000D94BD220C9448F80C9405510C94385BD5
:1002A0000D94CB630C94F4910D94AA220D947723B2
:1002B0000D94765A0D94D6220D942B240D949523EB
:1002C0000C94ECF70C94E2900D9469010D94BF63CB
:1002D0000D94455A0D947B410C946ED00D94C575C8
:1002E0000C941DD70C9434440C94066E0C94DA9044
:1002F0000C9400920D94525A0C94AE750D94D32622
:100300000C94A8920C94C28E0D946E5A0D943E4497
:100310000D948C3E0D94BE360D948A410D940724A5
:100320000D9437240D94BE420C94EB4A0C943E4538
:100330000C9403F80D9481410C94F2900D94E623F3
:100340000D94CE630D94C2630D94C5630D94A7758F
:100350000D94FB280D94F5290C9474450C94D5F755
:100360000D94963E0C94DC4A0C94CED00D9431241E
:100370000D94FC3E0D94CE230D94F5230D94083F6F
:100380000C9419550C9494430D9424500C9491435F
:100390000D9448500C94968E0D94EF220C940946BF
:1003A0000C949ADB0D94805A0D94C8630D947A3E98
:1003B0000D94DD230C94645B0D946B220C94E14549
:1003C0000C94D3590D94123E0D94F4390C9436FAD2
:1003D0000D94725A0D94E0630D9437220D941C29EC
:1003E0000C9493AF0D94895A0D94BF230D94C4427D
:1003F0000D9429530C94DF590C94595B0C947A6F2B
:100400000D94A8250D942D530D945A5A0D941853FC
:100410000C9499930D940E3F0D941E220C9431F878
:100420000C9496560C947A6E0C94FA910D940E23BB
:100430000C94D6900D946F410C94DE900D94AA42CA
:100440000C94FB430D94C1420C942D960D94913E57
:100450000C94086E0C94A98E0C94046E0C947A453E
:100460000C94CA900C94175B0C944D450D9410534A
:100470000D94A4230C9491450D9465410C946B4606
:100480000D9405220C943ED10C94D1540D948623E6
:100490000C949B540D9487010D944B5A0C94D66D7B
:1004A0000D944F5A0D94645A0D94F63E0C94F2D16B
:1004B0000C9429D30C9499EE0D94042A0D94605A4F
:1004C0000D947C5A0C9432BC0C94114D0D94492916
:1004D0000C94695B0D9460410D9491220C946CD046
:1004E0000C94AFD00C9490D20D941E370C941E43F4
:1004F0000D9447290D94D3630C94D5910C94E94A3B
:100500000C94EE900C9472540C9459580D948F5393
:100510000C94EA900D94BC630C9433D10D94082391
:100520000D9490410C941B430D941A290C94CE9079
:100530000D9414530D946A410C9447970D941F2405
:100540000D940D240D94B0230C942BD10D94003EEA
:100550000C9407550D9425240C94EC544E414E49AF
:100560004E495459494E46CDCCCC3D0AD7233C1771
:10057000B7D13877CC2B329595E6241FB14F0A00BE
:100580000020410000C84200401C4620BCBE4CCAAE
:100590001B0E5AAEC59D7400407A10F35A00A0722B
:1005A0004E18090010A5D4E80000E87648170000AE
:1005B000E40B54020000CA9A3B000000E1F505007C
:1005C0000080969800000040420F000000A08601C5
:1005D000000000102700000000E803000000006495
:1005E00000000000000A0000000000010000000000
:1005F000002C76D888DC674F0823DFC1DFAE59E1D5
:10060000B1B796E5E3E453C63AE651997696E8E643
:10061000C28426EB898C9B62ED407C6FFCEFBC9C16
:100620009F40F2BAA56FA5F490055A2AF75C936B28
:100630006CF9676DC11BFCE0E40D47FEF520E6B5E3
:1006400000D0ED902E0300943577050080841E08BD
:100650000000204E0A000000C80C333333330F98DB
:100660006E12831141EF8D2114893BE65516CFFEA2
:10067000E6DB18D1844B381BF77C1D901DA4BBE42E
:1006800024203284725E228100C9F124ECA1E53D70
:1006900027434F4D4D554E49434154494F4E004419
:1006A000525952554E004552524F525300494E46F0
:1006B0004F004543484F0047322F47332062616463
:1006C00020706172616D65746572730A00536C65A8
:1006D00065702E2E2E005A2050726F626520506178
:1006E0007374204265640A005A2050726F6265205C
:1006F000506173742042656400205A3A20002059EA
:100700003A200042656420583A2000496E76616CB8
:10071000696420736C6F742E20546F74616C3A207E
:10072000330A00526573746F72696E6720706F735D
:100730006974696F6E205300496E76616C6964203C
:10074000736C6F742E20546F74616C3A20330A00FE
:100750004D65736820706F696E74206F7574206FBB
:10076000662072616E67650A00436C69636B207472
:100770006F20526573756D652E2E2E004E6F204DC5
:100780006F76652E00456E642066696C65206C6925
:1007900073740A00426567696E2066696C65206C37
:1007A0006973740A004E6F206D656469610A0028E0
:1007B0006E6F2066696C65290043757272656E7490
:1007C0002066696C653A20005344207072696E742B
:1007D000696E67206279746520004E6F74205344FF
:1007E000207072696E74696E670A0025697300254E
:1007F000696D20256973002569682025696D2025AC
:10080000697300256964202569682025696D2025A4
:100810006973002569792025696420256968202588
:10082000696D20256973005072696E742074696D5A
:10083000653A20006F6B006F666600B206AD06A6D3
:10084000069F06910644454255473A004D313132E4
:100850002053687574646F776E004D3131332053C7
:100860000042656420436F6F6C696E672E2E2E0008
:100870004265642048656174696E672E2E2E0047BC
:10088000656565746563682041323054204F464683
:100890002E002F2F004D31343520533C696E646596
:1008A000783E206F7574206F662072616E676520D8
:1008B00028302D31290A003F4A206F7574206F6659
:1008C0002072616E67652028302E303120746F20D1
:1008D000302E33290A004D32303620580046523A25
:1008E0000020466C6F773A2000206F7574206F6689
:1008F0002072616E67650A00536572766F20003A58
:10090000200020536572766F200020643A00206931
:100910003A0020703A0064697300656E0043290A4A
:100920000061626C656420286D696E2074656D706D
:100930002000436F6C642065787472756465732061
:10094000617265200046696C616D656E7420727518
:100950006E6F75742064697374616E636520286DB1
:100960006D293A200046696C616D656E7420727560
:100970006E6F757420004D34323120696E636F7272
:100980007265637420706172616D65746572207543
:10099000736167650A004D65736820706F696E74D6
:1009A000206F7574206F662072616E67650A00455E
:1009B0004550524F4D204F4B0A00506F7765722DB6
:1009C0006C6F7373207265636F7665727920004D6A
:1009D000383400446F6E65207072696E74696E679A
:1009E0002066696C650A004D3737004D333100458C
:1009F00072726F722077726974696E6720746F20EB
:100A0000454550524F4D210A0053544F50504544D4
:100A10002E20005072696E7465722073746F70704E
:100A200065642064756520746F206572726F7273DF
:100A30002E2046697820746865206572726F722076
:100A4000616E6420757365204D39393920746F20CB
:100A5000726573746172742E202854656D706572AE
:100A600061747572652069732072657365742E20D8
:100A700053657420697420616674657220726573B1
:100A800074617274696E67290A004E6F204368654D
:100A9000636B73756D2077697468206C696E65206F
:100AA0006E756D6265722C204C617374204C696E9A
:100AB000653A20004E6F20436865636B73756D2047
:100AC00077697468206C696E65206E756D626572F9
:100AD0002C204C617374204C696E653A2000636869
:100AE00065636B73756D206D69736D617463682CDC
:100AF000204C617374204C696E653A20004C696E1D
:100B000065204E756D626572206973206E6F74206A
:100B10004C617374204C696E65204E756D62657210
:100B20002B312C204C617374204C696E653A200087
:100B30004D3131300053442072656164206572721A
:100B40006F720A002121204B494C4C206361757360
:100B5000656420627920746F6F206D756368206909
:100B60006E6163746976652074696D65202D2063FC
:100B7000757272656E7420636F6D6D616E643A207C
:100B800000627573793A2070617573656420666FD1
:100B90007220696E7075740A00627573793A2070FC
:100BA000617573656420666F7220757365720A00E3
:100BB000627573793A2070726F63657373696E67DB
:100BC0000A004D656469612052656D6F7665640049
:100BD0004D6564696120496E736572746564004D8A
:100BE000313030305300506F776572204F7574612B
:100BF0006765004D363030004572723A2075746674
:100C00003820666F6E74206E6F7420696E69746927
:100C1000616C697A65642E004572723A207574665B
:100C20003820666F6E74206E6F7420696E69746907
:100C3000616C697A65642E004572723A207574663B
:100C40003820666F6E74206E6F7420696E697469E7
:100C5000616C697A65642E00000C0F00FE070225A6
:100C600003BB017FFE08FE08FE05080806000040E1
:100C7000F0C88888987810050808060000C0F88831
:100C800088888888F80505050600012030F830209E
:100C90000508080600002070F820202020E0050943
:100CA000090600FF2070A8A8B888887020070505ED
:100CB000070001D86C366CD80509090600FFF8A8B2
:100CC0008888888888A8F8050A0A0600FE205050FF
:100CD000505088A8A8887003030306000340A04072
:100CE000FFFFFFFFFFFFFFFFFFFFFFFFFFFFFFFF14
:100CF000FFFFFFFFFFFF0000000605FF01070706DB
:100D0000020080808080800080030303060105A02C
:100D1000A0A005060606000050F85050F85005093E
:100D2000090600FF2070A8A07028A87020050707FA
:100D3000060000C8C8102040989805070706000064
:100D400040A0A040A89068010303060205808080AF
:100D50000309090601FF20404080808040402003B5
:100D600009090601FF8040402020204040800507FF
:100D70000706000020A8702070A8200505050600C1
:100D8000012020F820200203030601FFC040800557
:100D90000101060003F8020202060100C0C00507B7
:100DA00007060000081010204040800507070600D5
:100DB00000708898A8C8887003070706010040C023
:100DC00040404040E00507070600007088081020FA
:100DD00040F8050707060000F8081030088870057D
:100DE000070706000010305090F81010050707069E
:100DF0000000F880F008088870050707060000303A
:100E00004080F0888870050707060000F808101079
:100E100020202005070706000070888870888870E9
:100E2000050707060000708888780810600205052D
:100E3000060100C0C000C0C00206060601FFC0C017
:100E400000C04080030505060101204080402005C8
:100E50000303060002F800F80305050601018040BF
:100E60002040800507070600007088102020002021
:100E70000507070600007088B8A8B8807005070746
:100E8000060000708888F888888805070706000033
:100E9000F04848704848F005070706000070888051
:100EA00080808870050707060000F04848484848D9
:100EB000F0050707060000F88080F08080F805073D
:100EC00007060000F88080F0808080050707060094
:100ED0000070888080988870050707060000888861
:100EE00088F8888888030707060100E040404040F2
:100EF00040E005070706000038101010109060054C
:100F000007070600008890A0C0A090880507070684
:100F10000000808080808080F80507070600008838
:100F2000D8A8888888880507070600008888C8A888
:100F30009888880507070600007088888888887068
:100F4000050707060000F08888F080808005070705
:100F500006000070888888A89068050707060000CA
:100F6000F08888F0A0908805070706000070888048
:100F700070088870050707060000F8202020202050
:100F8000200507070600008888888888887005077C
:100F9000070600008888888850502005070706004B
:100FA0000088888888A8A850050707060000888858
:100FB00050205088880507070600008888502020A8
:100FC0002020050707060000F80810204080F803DD
:100FD00009090601FFE080808080808080E00507AD
:100FE0000706000080404020101008030909060190
:100FF000FFE020202020202020E00503030600053C
:101000002050880501010600FEF8030303060105D0
:1010100080402005050506000070087888780507DF
:10102000070600008080F0888888F0050505060026
:10103000007080808870050707060000080878881F
:101040008888780505050600007088F0807005071F
:1010500007060000304840E0404040050707060012
:10106000FE70888888780870050707060000808071
:10107000F0888888880307070601004000C04040C8
:1010800040E00409090601FE100030101010109015
:101090006005070706000080808890E090880307BD
:1010A00007060100C04040404040E005050506003D
:1010B00000D0A8A8A8A8050505060000B0C8888823
:1010C00088050505060000708888887005070706F2
:1010D00000FEF0888888F080800507070600FE780B
:1010E000888888780808050505060000B0C8808053
:1010F0008005050506000078807008F005070706E2
:1011000000002020F8202020180505050600008892
:10111000888898680505050600008888885020059D
:1011200005050600008888A8A850050505060000EA
:1011300088502050880507070600FE8888885020C0
:101140004080050505060000F8102040F803090955
:101150000601FF2040404080404040200109090630
:1011600002FF8080808080808080800309090601E2
:10117000FF804040402040404080050303060002BD
:1011800048A890FF504944204175746F74756E658E
:10119000202A005049442D44202A005049442D491A
:1011A000202A005049442D50202A00200820466162
:1011B0006374002008204D6178002008204D696E7E
:1011C000004F6666004F6E004175746F74656D70F8
:1011D000005654726176204D696E00566D696E003E
:1011E000566D6178202A00566D6178204500566D55
:1011F0006178205A00566D6178205900566D6178EB
:10120000205800416D6178202A00416D61782045A9
:1012100000416D6178205A00416D6178205900418C
:101220006D6178205800412D54726176656C0041E3
:101230002D5265747261637400416363656C003F95
:10124000004E65787420506F696E7400446F6E654F
:10125000004E65787400486F6D696E672058595A62
:10126000005A2056616C756500496E646578205996
:1012700000496E64657820580053746F726520537E
:10128000657474696E6773004C6F61642053657494
:1012900074696E6773004C6576656C20436F726E7F
:1012A0006572730050726F6265205A204F666673D4
:1012B0006574004661646520486569676874004F1D
:1012C0006666004F6E00426564204C6576656C6909
:1012D0006E670045646974204D657368004C6576DF
:1012E000656C20426564004732380A47323900474E
:1012F0003239004175746F20486F6D65004D6F7411
:10130000696F6E0053746F77004465706C6F79007D
:1013100053656C662D546573740052657365740073
:1013200053572D4D6F646500556E7265747261631D
:1013300074205600556E726574722E206D6D0048D3
:101340006F70206D6D005265747261637420560079
:1013500052657472616374206D6D00426564004E65
:101360006F7A7A6C650046616E2053706565640023
:10137000436F6E66696775726174696F6E0047329C
:10138000362043616E63656C6564004732362048E1
:10139000656174696E67204E6F7A7A6C65004732BA
:1013A000362048656174696E672042656400576144
:1013B0006974696E6720666F722068656174757004
:1013C0002E0A004669786564204C656E6774682053
:1013D0005072696D6500446F6E65205072696D6969
:1013E0006E67004D616E75616C207072696D696E1B
:1013F000672E2E2E004C656176696E672047323667
:10140000003F53706563696669656420582C5920F4
:10141000636F6F7264696E617465206F7574206F9D
:101420006620626F756E64732E0A003F285229652C
:10143000706561742076616C7565206E6F742070C4
:101440006C61757369626C653B206D7573742062A5
:1014500065206174206C6561737420312E0A003F31
:10146000537065636966696564206E6F7A7A6C652E
:101470002074656D7065726174757265206E6F742D
:1014800020706C61757369626C652E0A003F537041
:10149000656369666965642066696C616D656E7413
:1014A0002073697A65206E6F7420706C6175736942
:1014B000626C652E0A003F537065636966696564F6
:1014C000207072696D65206C656E677468206E6F40
:1014D0007420706C61757369626C652E0A003F53ED
:1014E0007065636966696564206E6F7A7A6C6520E1
:1014F00073697A65206E6F7420706C6175736962B0
:101500006C652E0A003F52657472616374696F6E78
:10151000204D756C7469706C696572206D7573749B
:10152000206265207370656369666965642E0A00D0
:101530003F537065636966696564205265747261C2
:101540006374696F6E204D756C7469706C69657237
:10155000206E6F7420706C61757369626C652E0A01
:10156000003F537065636966696564206C617965E5
:101570007220686569676874206E6F7420706C6192
:10158000757369626C652E0A0043292E0A003F5369
:101590007065636966696564206265642074656D61
:1015A0007065726174757265206E6F7420706C6105
:1015B000757369626C65202834302D0047323620FF
:1015C0007374617274696E672E2E2E0A0041425345
:1015D00000504C41004F6666004F6E00536F6674BA
:1015E00020456E6473746F7073004D6F74696F6E15
:1015F0000044697361626C65205374657070657234
:1016000073004D383400426564204C6576656C6922
:101610006E6700486F6D65205A004732385A00489F
:101620006F6D652059004732385900486F6D65204D
:10163000580047323858004175746F20486F6D6507
:1016400000473238004D61696E005072656865610F
:1016500074202420456E64005072656865617420B2
:1016600024204265640054656D7065726174757202
:101670006500D115CD15436F6F6C646F776E0050A8
:1016800072656865617420240046616E2053706540
:101690006564207E00426564004E6F7A7A6C650056
:1016A0004D61696E0050726F6265205A204F666608
:1016B00073657400466C6F770046616E20537065E9
:1016C0006564207E00426564004E6F7A7A6C650026
:1016D0005370656564004D61696E0020436F756EDF
:1016E0007420583A00426564004531006265640028
:1016F0002C2073797374656D2073746F70706564DA
:1017000021204865617465725F49443A200048654C
:101710006174696E67204661696C65640048656143
:1017200074696E67206661696C656400202D2049CC
:101730006E76616C69642065787472756465722078
:101740006E756D62657220210A00544845524D4104
:101750004C2052554E4157415900546865726D6195
:101760006C2052756E61776179004572723A204D36
:10177000415854454D50004D415854454D502074EA
:101780007269676765726564004572723A204D49F7
:101790004E54454D50004D494E54454D50207472A5
:1017A0006967676572656400202F002042403A0037
:1017B00020403A0020573A00FFFDFCFAF8F6F4F218
:1017C000F0EEECEAE9E7E5E3E1E0DEDCDAD9D7D5F3
:1017D000D4D2D0CFCDCBCAC8C7C5C3C2C0BFBDBC91
:1017E000BAB9B7B6B4B3B2B0AFADACAAA9A8A6A502
:1017F000A4A2A1A09E9D9C9A99989795949392904B
:101800008F8E8D8B8A8988878684838281807F7E74
:101810007D7B7A797877767574737271706F6E6D7F
:101820006C6B6A696867666564636261605F5E5D70
:101830005C5B5A5958585756555453525150504F53
:101840004E4D4C4B4A4A494847464645444342421E
:1018500041403F3E3E3D3C3B3B3A393838373635D8
:1018600035343332323130302F2E2E2D2C2B2B2A83
:101870002929282727262525242323222121202022
:101880001F1E1E1D1C1C1B1B1A19191818171616B3
:10189000151514131312121111100F0F0E0E0D0D3A
:1018A0000C0C0B0A0A0909080807070606050504B7
:1018B000040303020201000000007F4300007F4395
:1018C00000007A430000A0C00000000000000000FB
:1018D00053657474696E67732053746F7265640026
:1018E000554E4C4F41442046494C414D454E5400C5
:1018F0004C4F41442046494C414D454E54004649C9
:101900004C414D454E54204348414E474500526599
:1019100073746F72652044656661756C7473004CF6
:101920006F61642053657474696E67730053746FDC
:1019300072652053657474696E67730050726568D0
:10194000656174202420436F6E6600506F77657266
:10195000204F7574616765004F6666004F6E0052D8
:10196000756E6F75742053656E736F720052657477
:101970007261637400424C546F7563680050726FFB
:101980006265205A204F6666736574004164766113
:101990006E6365642053657474696E6773004D618E
:1019A000696E004D37303220542564004D3630309A
:1019B00020423020542564004D373032203B2564CE
:1019C000004D37303120542564004368616E6765EF
:1019D0002046696C616D656E740050726568656162
:1019E0007420437573746F6D00507265686561741F
:1019F0002024004261636B004D363030204230209D
:101A0000542569004368616E67652046696C616DA5
:101A1000656E74202A004D61696E004F6666004F46
:101A20006E0052756E6F75742053656E736F720021
:101A30005075726765206D6F726500436F6E7469D3
:101A40006E756500524553554D45204F5054494FD2
:101A50004E533A005052494E54205041555345443C
:101A60000020204E6F7A7A6C653A20005061726BCC
:101A7000696E672E2E2E0000005761697420666F14
:101A8000720066696C616D656E74206368616E6773
:101A90006500746F207374617274005761697420FB
:101AA000666F720066696C616D656E7420756E6C30
:101AB0006F616400004E6F7A7A6C652068656174AE
:101AC000696E6700506C6561736520776169742E7B
:101AD0002E2E0000507265737320627574746F6EE1
:101AE00000746F2068656174206E6F7A7A6C65008F
:101AF00000496E736572742066696C616D656E7401
:101B000000616E6420707265737320627574746F07
:101B10006E00746F20636F6E74696E756500576137
:101B2000697420666F720066696C616D656E742001
:101B30006C6F616400005072657373204275747439
:101B40006F6E00746F20726573756D6520707269B9
:101B50006E7400005761697420666F72207072693C
:101B60006E7400746F20726573756D652E2E2E0075
:101B7000005761697420666F720066696C616D65FB
:101B80006E742070757267650000536E346B33009D
:101B9000496E76616465727300427269636B6F753A
:101BA000740041626F7574205072696E74657200C2
:101BB00028323630202F2032202D2031302900309D
:101BC000004245443A204550434F53203130304B7A
:101BD0000052756E617761792057617463683A20AD
:101BE0004F4E004D61782054656D700028323630BC
:101BF000202B20313529004D696E2054656D700011
:101C0000300045313A204550434F53203130304B5E
:101C1000007C3C3E5E2B3D3F2F5B5D3B2C2A225CD3
:101C2000004F666673657473204170706C696564FB
:101C3000004572723A20546F6F2066617221005421
:101C40006F6F206661722066726F6D2072656665C7
:101C500072656E636520706F696E740A004361700F
:101C60003A004348414D4245525F54454D5045521C
:101C700041545552450042414259535445505049F0
:101C80004E470041524353004D4F54494F4E5F4D14
:101C90004F44455300544845524D414C5F50524FBC
:101CA00054454354494F4E004C4F4E475F46494CB4
:101CB000454E414D45004155544F5245504F5254A9
:101CC0005F53445F5354415455530052455045416E
:101CD00054005344434152440050524F4D50545FBE
:101CE000535550504F525400454D455247454E4371
:101CF000595F50415253455200434153455F4C494F
:101D00004748545F4252494748544E455353005444
:101D10004F47474C455F4C494748545300534F4643
:101D200054574152455F504F574552004255494C18
:101D3000445F50455243454E54004C4556454C492E
:101D40004E475F44415441005A5F50524F42450054
:101D500052554E4F5554004155544F4C4556454CE5
:101D6000005052494E545F4A4F420050524F475222
:101D7000455353004155544F5245504F52545F54B0
:101D8000454D5000564F4C554D4554524943004522
:101D90004550524F4D0042494E4152595F46494CC1
:101DA000455F5452414E53464552005345524941B6
:101DB0004C5F584F4E5F584F4646004649524D576C
:101DC0004152455F4E414D453A4D61726C696E20FE
:101DD0006275676669782D322E302E7820284A6128
:101DE0006E20313820323032312030303A30363ABD
:101DF00034302920534F555243455F434F44455F8C
:101E000055524C3A6769746875622E636F6D2F4D39
:101E100061726C696E4669726D776172652F4D6192
:101E2000726C696E2050524F544F434F4C5F564571
:101E30005253494F4E3A312E30204D414348494E7E
:101E4000455F545950453A47656565746563682038
:101E5000413230542045585452554445525F434F07
:101E6000554E543A3120555549443A393939333071
:101E70003532372D356130302D343237382D3863D7
:101E800032352D3763303938616464633332320A56
:101E9000004261627973746570205A0050726F62FB
:101EA00065204F6666736574205A0050726F6265D4
:101EB000204F6666736574205A00290A0020746FEB
:101EC00020003F5A206F7574206F662072616E6724
:101ED00065202800290A0020746F20003F59206FD8
:101EE0007574206F662072616E676520282D002949
:101EF0000A0020746F20003F58206F7574206F66B1
:101F00002072616E676520282D0050726F62652017
:101F10004F66667365742058006F6B005265736579
:101F20006E643A2000436F6F6C696E672E2E2E0030
:101F300048656174696E672E2E2E0045202553007A
:101F400023646566696E652044454641554C545F7F
:101F500000626564004B6420004B6920004B7020D8
:101F600000504944204175746F74756E6520666930
:101F70006E697368656421205075742074686520EB
:101F80006C617374204B702C204B6920616E64204F
:101F90004B6420636F6E7374616E74732066726F2E
:101FA0006D2062656C6F7720696E746F20436F6E71
:101FB00066696775726174696F6E2E680A005049B0
:101FC00044204175746F74756E65206661696C6537
:101FD00064212074696D656F75740A00504944204E
:101FE0004175746F74756E65206661696C656421F6
:101FF0002054656D706572617475726520746F6FC1
:1020000020686967680A00204B643A2000204B6909
:102010003A2000204B703A20000A20436C61737311
:10202000696320504944200A00204B643A20002074
:102030004B693A2000204B703A20000A204E6F2056
:102040006F76657273686F6F740A002054753A205A
:1020500000204B753A2000206D61783A2000206DF9
:10206000696E3A200020643A200020626961733A68
:102070002000504944204175746F74756E6520735B
:10208000746172740A00504944204175746F74750C
:102090006E65206661696C6564212054656D7065AC
:1020A00072617475726520746F6F20686967680A61
:1020B00000504944204175746F74756E6500504935
:1020C00044204175746F74756E65206661696C6536
:1020D00064212042616420657874727564657220A1
:1020E0006E756D6265720A0020746F6F206C6F6E82
:1020F0006720657874727573696F6E20707265768B
:10210000656E7465640A0020636F6C642065787482
:10211000727573696F6E2070726576656E74656432
:102120000A00486F6D652025732573257320466965
:10213000727374000000A0C00000000000000000E6
:102140005761726E696E673A20486F6D696E6720DD
:1021500042756D702044697669736F72203C20313E
:102160000A000202040000824300007F4300007A5C
:10217000430000A0400000A04000000040FFFFFF1F
:1021800000000001000000010000800055555500CE
:102190000000400033333300AAAA2A0049922400E9
:1021A00000002000C7711C0099991900D145170043
:1021B000555515003BB113002449120011111100AF
:1021C000000010000F0F0F00E3380E0043790D00E0
:1021D000CCCC0C00C3300C00E8A20B0064210B0037
:1021E000AAAA0A00703D0A009DD80900427B090096
:1021F00092240900DCD308008888080010420800F7
:1022000000000800F0C1070087870700755007002D
:10221000711C07003EEB0600A1BC06006990060099
:1022200066660600703E06006118060017F4050099
:1022300074D105005BB00500B29005006272050024
:102240005555050078390500B81E0500050505003F
:102250004EEC040087D40400A1BD040090A7040044
:1022600049920400C17D0400EE690400C7560400D1
:10227000444404005C3204000821040041100400BE
:10228000000004003FF00300F8E0030026D2030042
:10229000C3C30300CCB503003AA803000A9B0300A4
:1022A000388E0300C08103009F750300D0690300CE
:1022B000505E03001D53030034480300913D0300AA
:1022C0003333030016290300381F0300971503005A
:1022D000300C0300030303000BFA020049F1020073
:1022E000BAE802005CE002002DD802002DD0020006
:1022F00059C80200B0C0020031B90200DAB10200D0
:10230000AAAA0200A0A30200BC9C0200FA95020047
:102310005C8F0200DF88020082820200457C02009E
:102320002776020027700200436A02007C640200E4
:10233000D05E02003F590200C85302001FFFFFFF9A
:10234000FFFFFF600000000001FF400000000000F0
:10235000FF8000000000007F83CF00000C303F872B
:10236000FF80000C301F867980000C000F8C30C776
:10237000838C30E78C30CFC7CC31F38C30DCECEC85
:1023800033B98C30D86C6C33198C30D06C0C331959
:102390008C30D86C0C33198C30DC6C0E3B198C30C3
:1023A000CF7C079F198C30C77C038F194000000039
:1023B000000002600000000000061FFFFFFFFFFF9B
:1023C000F81FFFFFFFFFFFFF600000000001FF405C
:1023D0000000000000FF8000000000007F83CF00AD
:1023E000000C303F87FF80000C301F867980000C86
:1023F000000F8C30C7838C30078C30CFC7CC3003B4
:102400008C30DCECEC30018C30D86C6C30018C30D2
:10241000D06C0C30018C30D86C0C30018C30DC6C02
:102420000E38018C30CF7C079C018C30C77C038C2C
:102430000140000000000002600000000000061FD4
:10244000FFFFFFFFFFF81FFFFFFFFFFFFF60000020
:10245000000001FF400000000000FF8000000000BD
:10246000007F83CF00000C003F87FF80000C001F1F
:10247000867980000C000F8C30C7838C00078C306D
:10248000CFC7CC00038C30DCECEC00018C30D86C76
:102490006C00018C30D06C0C00018C30D86C0C00BE
:1024A000018C30DC6C0E00018C30CF7C0780018CFD
:1024B00030C77C0380014000000000000260000083
:1024C000000000061FFFFFFFFFFFF81FFFFFFFFFD9
:1024D000FFFF600000000001FF400000000000FF5F
:1024E0008000000000007F83CF000000003F87FFD6
:1024F000800000001F8679800000000F8C30C783A9
:102500008000078C30CFC7C000038C30DCECE000CB
:10251000018C30D86C6000018C30D06C0000018CD4
:1025200030D86C0000018C30DC6C0000018C30CFA6
:102530007C0000018C30C77C0000014000000000DE
:102540000002600000000000061FFFFFFFFFFFF811
:102550001FFFFFFFFFFFFF600000000001FF4000C2
:1025600000000000FF8000000000007F83CF00001B
:1025700000003F87FF800000001F86798000000078
:102580000F8C30C7800000078C30CFC00000038C58
:1025900030DCE00000018C30D8600000018C30D0CD
:1025A000600000018C30D8600000018C30DC6000DD
:1025B00000018C30CF700000018C30C7700000012A
:1025C00040000000000002600000000000061FFF45
:1025D000FFFFFFFFF81FFFFFFFFFFFFF600000008E
:1025E0000001FF400000000000FF8000000000002C
:1025F0007F83CF000000003F87FF800000001F8620
:1026000079800000000F8C30C0000000078C30C0C3
:10261000000000038C30C0000000018C30C00000BE
:1026200000018C30C0000000018C30C000000001AF
:102630008C30C0000000018C30C0000000018C30E4
:10264000C000000001400000000000026000000027
:102650000000061FFFFFFFFFFFF81FFFFFFFFFFF48
:10266000FF600000000001FF400000000000FF804C
:1026700000000000007F8000000000003F8000009C
:102680000000001F8000000000000F80000000001C
:10269000000780000000000003800000000000012F
:1026A00080000000000001800000000000018000A8
:1026B0000000000001800000000000018000000018
:1026C0000000018000000000000140000000000048
:1026D00002600000000000061FFFFFFFFFFFF8027E
:1026E0006D61726C696E66772E6F726700627567D6
:1026F0006669782D322E302E78005A26D525502541
:10270000CB244624C1233C2370012C0190012701D6
:10271000B0012201C0011D01F001180110021301D6
:1027200030020E016002090190020401C002FF00A4
:102730000003FA004003F5008003F000D003EB0033
:102740002004E6007004E100E004DC004005D7004E
:10275000C005D2004006CD00D006C8008007C300E7
:102760003008BE00F008B900C009B400B00AAF00DC
:10277000B00BAA00D00CA500000EA000500F9B00CB
:10278000C01096005012910000148C00C0158700F4
:10279000B0178200B0197D00D01B7800001E7300B6
:1027A00040206E0090226900F024640040275F0002
:1027B00090295A00E02B5500102E500020304B007D
:1027C00010324600E033410090353C0010373700AE
:1027D00070383200A0392D00B03A2800A03B230009
:1027E000603C1E00103D1900903D1400103E0F008B
:1027F000703E0A00C03E0500003F0000403FFBFF66
:10280000803FF6FFC03FF1FF2020506C616E6E6587
:102810007242756666657242797465733A2000206B
:1028200046726565204D656D6F72793A2000436F81
:102830006D70696C65643A204A616E2031382032CF
:102840003032310A00204C61737420557064617419
:1028500065643A20323032312D30312D3130207CD8
:1028600020417574686F723A20546F6D204C7578F2
:10287000746F6E0A006275676669782D322E302E8D
:10288000780A004D61726C696E0020536F66747730
:102890006172652052657365740A00205761746324
:1028A00068646F672052657365740A002042726F16
:1028B000776E206F75742052657365740A00204529
:1028C000787465726E616C2052657365740A00508D
:1028D0006F77657255700A0073746172740A0047ED
:1028E0003237004D31303031006572726F722077AF
:1028F000726974696E6720746F2066696C650A007E
:10290000446F6E6520736176696E672066696C65D9
:102910002E0A004D323900456E6473746F70730077
:10292000255320256320256320256320256300206F
:102930005A3A0020593A0020583A00656E64737480
:102940006F7073206869743A2000496E76616C6913
:10295000642065787472756465720A00220A0055F5
:102960006E6B6E6F776E20636F6D6D616E643A2073
:102970002200DB0FC93F45BCDA3F8FB30240FCF0B9
:10298000274056946140FE4B9B4084A5D840E023ED
:102990001841346A5641E859974164DBD5416E27A6
:1029A0001742B4B75542CE1A9742C8AED542B58841
:1029B0005A43D40684BFA65FA7BF7443E0BF10B1DB
:1029C0001AC01C2C58C0E8F697C0B849D6C04E4E65
:1029D00017C124D355C1802497C1A0B5D5C1121AFF
:1029E00017C244AE55C2781797C26CACD5C267887F
:1029F0005AC320746F6F206C6F6E67206578747295
:102A00007573696F6E2070726576656E7465640AA1
:102A10000020636F6C6420657874727573696F6EE3
:102A20002070726576656E7465640A0050535500B7
:102A300047656E657269630050726F746F636F6C87
:102A400000312E3000426175640032353030303054
:102A5000004754323536302056332E300042696CF0
:102A6000696E656172204C6576656C696E670045BC
:102A700078747275646572730031006D61726C698F
:102A80006E66772E6F72670047656565746563686B
:102A9000204132305400323032312D30312D31303E
:102AA000006275676669782D322E302E78004D6190
:102AB000726C696E0047616D657300546865726D74
:102AC0006973746F727300426F61726420496E663D
:102AD0006F005072696E74657220496E666F004DAA
:102AE00061696E004D313030300053746F7020508A
:102AF00072696E7400526573756D65205072696EEF
:102B00007400506F776572204F7574616765003F80
:102B1000004261636B0053746F70005072696E7491
:102B20002066726F6D204D65646961004368616E57
:102B30006765204D65646961004D32310041626F07
:102B40007574205072696E746572004368616E67B7
:102B5000652046696C616D656E7400436F6E6669D1
:102B60006775726174696F6E004D697865720054A3
:102B7000656D7065726174757265004D6F74696F13
:102B80006E00526573756D65205072696E74004EEB
:102B90006F204D656469610054756E650053746FF4
:102BA00070205072696E74005061757365205072A8
:102BB000696E7400496E666F2053637265656E00BE
:102BC0003F005374617274205072696E74004361E7
:102BD0006E63656C005072696E740043616E6E6F57
:102BE0007420656E746572207375626469723A2030
:102BF00000022E2E004D61696E002534642E25647E
:102C0000206D6D00506C656173652052657365744D
:102C1000005052494E5445522048414C54454400BE
:102C200025533A202553004B494C4C45442E200057
:102C30005072696E7465722068616C7465642E20D0
:102C40006B696C6C28292063616C6C6564210A00D7
:102C500053544F505045442E20005072696E746595
:102C6000722073746F707065642064756520746F72
:102C7000206572726F72732E2046697820746865C1
:102C8000206572726F7220616E6420757365204DCD
:102C900039393920746F20726573746172742E2013
:102CA0002854656D70657261747572652069732052
:102CB00072657365742E2053657420697420616693
:102CC0007465722072657374617274696E67290A23
:102CD000006563686F3A004572726F723A0042692C
:102CE0006C696E656172204C6576656C696E6720F3
:102CF000477269643A0A0021212053544F502063DF
:102D0000616C6C65642062656361757365206F66D4
:102D100020424C546F756368206572726F72202D6B
:102D200020726573746172742077697468204D39FC
:102D300039390A0021212053544F502063616C6CB3
:102D400065642062656361757365206F6620424C1F
:102D5000546F756368206572726F72202D207265E2
:102D600073746172742077697468204D3939390A37
:102D700000486F74656E6420746F6F20636F6C64BD
:102D80000A0020453A00205A3A0020593A00583AA1
:102D90000000002200250028002B002E0031003406
:102DA0000002010000050108010B010000210024C0
:102DB0000027002A002D003000330001010000042C
:102DC0000107010A010505050507050808080802AD
:102DD0000202020A0A0808040404040101010101B4
:102DE0000101010303030303030303040707070CA3
:102DF0000C0C0C0C0C0C0C02020202060606060659
:102E00000606060B0B0B0B0B0B0B0B010210202005
:102E1000080810204010204080020102010804022E
:102E200001010204081020408080402010080402A4
:102E300001800402018040201008040201080402FD
:102E40000101020408102040800102040810204003
:102E50008043616E6E6F74206F70656E2073756253
:102E60006469722000534420496E69742046616988
:102E70006C0053442063617264206F6B0A006F70B2
:102E8000656E526F6F74206661696C65640A0076C6
:102E90006F6C756D652E696E6974206661696C650D
:102EA000640A004E6F20534420636172640A000A72
:102EB0004D3234004D3233202573002E0A006F70DE
:102EC000656E206661696C65642C2046696C653AA4
:102ED000200046696C652073656C65637465640ADF
:102EE000002053697A653A200046696C65206F704E
:102EF000656E65643A2000454E4420535542524F5A
:102F00005554494E450A002220706F7300222070EC
:102F10006172656E743A2200535542524F555449BE
:102F20004E452043414C4C207461726765743A22CF
:102F30000053756263616C6C204F766572666C6FCE
:102F400077004578636565646564206D617820531A
:102F50005542524F5554494E452064657074683A45
:102F6000002E0A0044656C6574696F6E20666169A5
:102F70006C65642C2046696C653A200046696C6576
:102F80002064656C657465643A002F6175746F2503
:102F9000632E670057726974696E6720746F2066CC
:102FA000696C653A2000667265736800646F696ECB
:102FB00067002066696C653A20004E6F772000003C
:102FC000FE0003FF8007C7C00701E00000E000002B
:102FD000F00000700400700E00701F00703F80F061
:102FE0000E00E00F01E007C7C003FF8000FE0000F5
:102FF000FE0003FF8007C7C00F01E00E00E03F8026
:10300000F01F00700E00700400700000700000F0EF
:103010000000E00701E007C7C003FF8000FE000ECC
:10302000000E000E000E000E000E000E000E007FBF
:10303000C03F801F000E00040004000E001F003F70
:10304000807FC00E000E000E000E000E000E000E5F
:10305000000E00FFFFFF7F80FFC0FFC0FFC07F802A
:103060007F80FFC0FFC0FFC03F001E000C005072F9
:103070006F6265205A204F66667365740052756EE4
:103080006F75742044697374206D6D004C6F6164BA
:10309000206D6D00556E6C6F6164206D6D0046692A
:1030A0006C2E204469612E004520696E206D6D5E96
:1030B00033004D33303320553120452569205325C9
:1030C0006900252900257C002028004F4646004F36
:1030D0004E00203B2043757272656E74205A0020AA
:1030E0003B20456E6400203B2053746172740020C5
:1030F0002854004772616469656E74204D697820B8
:103100000020496E76616C69642045207374657097
:1031100070657220002045207374657070657220A0
:103120006E6F74207370656369666965640A00492F
:103130006E736572742066696C616D656E74206172
:103140006E6420707265737320627574746F6E0A9A
:1031500000507265737320627574746F6E20746FA3
:103160002068656174206E6F7A7A6C650A00496E1A
:10317000736572742066696C616D656E7420616E32
:103180006420707265737320627574746F6E0A00C8
:103190004D32342053256C642054256C640047392B
:1031A000322E3920452573004731204625640047DB
:1031B00039322E39205A2573004731205A302046A3
:1031C000323030004731205825732059257320466E
:1031D00033303030004D34323020532569205A25A9
:1031E00073004D3130362050256920532569004D3C
:1031F000323030204425730047323852305859005D
:103200004739322E39204530205A300A47315A2565
:1032100073004D31303920532569004D313930204C
:10322000532569004D343230205330205A3000206D
:10323000496E76616C696420657874727564657234
:10324000200042656400456E636C6F7375726500A3
:103250002568753A25303268750025303268753A30
:1032600025303268750020202020202020002020DA
:103270002020001FE03FF03FF03FF01FE01FE03F45
:10328000F03FF03FF00FC0078003001FE020102048
:103290001020101020102020102010303008400482
:1032A00080030001FF000618C0081F20101F9014A3
:1032B0001F102E1E082F1C082FB8083FFC083FFFC8
:1032C000F8207FF8203BE82071E820F0E811F0506A
:1032D00013F01009F0200630C001FF0001FF0006C6
:1032E00030C009F02011F01010F01020F0682031EB
:1032F000E82039E8207FF83FFFF83FFC082F380826
:103300002E18082C1E08101E10101F10081F200653
:1033100018C001FF0001FF000600C009012017834B
:10332000D01783D02FC7E827C7C821FF08207C0803
:10333000207C08207C0821FF0827C7C82FC7E81772
:1033400083D01783D00901200600C001FF00FFFFD2
:10335000C0400020200010100008080004040002F3
:1033600003FFFF0222000444000444000222000183
:103370001100FFFFC04088A0211110122208080090
:103380000404000203FFFF24F4D43050C38E20C293
:10339000A24017828B7011127A910D816CD90AA804
:1033A00061E108C7586607615143061E4B5D05C1C0
:1033B00045A7041A411104093D98037139310340AE
:1033C00036DB0265339102D4305402802E1D026335
:1033D0002CEE01752AC501B028A001102781018FAC
:1033E0002564012B244B01E0223401AC211F018D07
:1033F000200D01801FFC00841EED00971DDF00B82A
:103400001CD200E61BC600201BBC00641AB200B22E
:1034100019A8000A19A0006A189900D11791004054
:10342000178B00B516840031167E00B31579003A6B
:10343000157300C7146F0058146A00EE13660088F5
:1034400013630025135E00C7125B006C1257001552
:10345000125400C111510070114F0021114B00D6C0
:103460001049008D1047004610440002104200C071
:103470000F4000800F3E00420F3C00060F3B00CB88
:103480000E3800930E37005C0E3500270E3400F323
:103490000D3200C10D3100900D3000600D2E003254
:1034A0000D2D00050D2C00D90C2B00AE0C2900852C
:1034B0000C29005C0C2700350C27000E0C2600E8B8
:1034C0000B2400C40B2400A00B23007D0B23005A07
:1034D0000B2100390B2100180B2000F80A1F00D91E
:1034E0000A1E00BB0A1E009D0A1D00800A1D006303
:1034F0000A1C00470A1B002C0A1B00110A1A00F7BD
:10350000091A00DD091900C4091900AB0919009254
:103510000917007B091800630917004C09160036CB
:10352000091600200916000A091500F5081500E023
:10353000081400CC081400B8081400A40814009063
:103540000813007D0812006B08130058081200468B
:10355000081200340811002308110012081100019C
:10356000081100F0071000E0071000D0071000C09D
:10357000071000B0070F00A107100091070E00838D
:10358000070F0074070F0065070E0057070E00496C
:10359000070E003B070D002E070E0020070D00133D
:1035A000070D0006070D00F9060C00ED060D00E002
:1035B000060C00D4060C00C8060C00BC060C00B0BB
:1035C000060C00A4060B0099060C008D060B008269
:1035D000060B0077060B006C060B0061060A00570D
:1035E000060B004C060A0042060A0038060A002EA6
:1035F000060A0024060A001A060A00100609000737
:10360000060A00FD050900F4050900EB050900E2C2
:10361000050900D9050900D0050900C7050900BE44
:10362000050900B5050800AD050800A50509009CC1
:10363000050800940508008C050800840508007C36
:10364000050800740508006C050700650508005DA5
:10365000050700560508004E05070047050700400E
:1036600005080038050700310507002A0507002373
:103670000507001C050600160507000F05070008D2
:1036800005060002050700FB040600F5040700EE2E
:10369000040600E8040600E2040700DB040600D587
:1036A000040600CF040600C9040600C3040600BDDA
:1036B000040600B7040600B1040500AC040600A629
:1036C000040600A00405009B040600950405009074
:1036D0000406008A04050085040500800406007ABB
:1036E00004050075040500700405006B0405006600
:1036F000040500610405005C040500570405005240
:103700000405004D04050048040500430405003E7F
:103710000404003A04050035040500300404002CBC
:1037200004050027040400230405001E0404001AF5
:1037300004040016040500110404000D040400092B
:103740000405000404040000040400FC030400F861
:10375000030400F4030400F0030400EC030400E895
:10376000030400E4030400E0030400DC030400D8C5
:10377000030400D4030400D0030400CC030400C8F5
:10378000030300C503030024F404D9201BC40C5C0C
:103790000E9804C4095F0265077101F405F900FB86
:1037A00004B30048048700C10369005803550003AF
:1037B000034500BE023A008402310053022A002968
:1037C00002250004022000E4011C00C8011900AF1A
:1037D00001170098011400840113007101100061A9
:1037E00001100051010E0043010D0036010B002BAA
:1037F000010B0020010B00150109000C0109000359
:10380000010800FB000800F3000800EB000700E4DB
:10381000000600DE000600D8000600D2000600CC3C
:10382000000500C7000500C2000500BD000400B986
:10383000000400B5000400B1000400AD000400A9BC
:10384000000400A5000300A20003009F0004009BE9
:10385000000300980003009500020093000300900D
:103860000003008D0002008B000300880002008628
:1038700000020084000300810002007F0002007D3E
:103880000002007B00020079000200770001007650
:103890000002007400020072000100710002006F5B
:1038A0000002006D0001006C0002006A0001006966
:1038B000000200670001006600010065000100646D
:1038C0000002006200010061000100600001005F71
:1038D0000002005D0001005C0001005B0001005A75
:1038E0000001005900010058000100570001005676
:1038F0000001005500010054000100530000005376
:103900000001005200010051000100500001004F71
:103910000001004E0000004E0001004D0001004C6F
:103920000001004B0000004B0001004A000100496B
:103930000001004800000048000100470001004667
:103940000000004600010045000000450001004461
:10395000000100430000004300010042000000425B
:103960000001004100000041000100400001003F53
:103970000000003F0001003E0000003E0001003D4D
:103980000000003D0001003C0000003C0000003C45
:103990000001003B0000003B0001003A0000003A3B
:1039A0000001003900000039000100380000003833
:1039B0000000003800010037000000370001003629
:1039C0000000003600000036000100350000003520
:1039D0000000003500010034000000340000003415
:1039E000000100330000003300000033000100320A
:1039F0000000003200000032000100310000003100
:103A000000000031000100300000003000000030F4
:103A10000001002F0000002F0000002F0000002FE9
:103A20000001002E0000002E0000002E0001002DDD
:103A30000000002D0000002D0000002D0001002CD2
:103A40000000002C0000002C0000002C0001002BC6
:103A50000000002B0000002B0000002B0001002ABA
:103A60000000002A0000002A0000002A00010029AE
:103A700000000029000000290000002900000029A2
:103A80000001002800000028000000280000002895
:103A90000000002800010027000000270000002788
:103AA000000000270000002700010026000000267B
:103AB000000000260000002600000026000100256E
:103AC0000000002500000025000000250000002562
:103AD0000000002500010024000000240000002454
:103AE0000000002400000024000100230000002347
:103AF000000000230000002300000023000000233A
:103B0000000000230001002200000022000000222B
:103B1000000000220000002200000022000100211D
:103B20000000002100000021000000210000002111
:103B30000000002100000021000100200000002002
:103B400000000020000000200000002000000020F5
:103B500000000020000000200001001F0000001FE6
:103B60000000001F0000001F0000001F0000001FD9
:103B70000000001F0001001E0000001E0000001ECB
:103B80000000001E000000102800004E1C0000D69F
:103B9000110000400A00008A050000E302000079DD
:103BA000010000BE00000050726F6265205A204F75
:103BB00066667365740050726F62652059204F66A7
:103BC000667365740050726F62652058204F666698
:103BD000736574002A2053746570732F6D6D005ADD
:103BE0002053746570732F6D6D0059205374657088
:103BF000732F6D6D00582053746570732F6D6D00B9
:103C0000416476616E6365642053657474696E67A0
:103C100073003F0043616E63656C00496E69740018
:103C20004D34323800496E697469616C697A652077
:103C3000454550524F4D0046696C616D656E74008C
:103C400054656D706572617475726500537465704A
:103C5000732F6D6D0050726F6265204F66667365DD
:103C60007473004A756E6374696F6E2044657600E4
:103C7000416363656C65726174696F6E0056656C53
:103C80006F636974790053657420486F6D65204FC8
:103C900066667365747300436F6E666967757261FB
:103CA00074696F6E004F46460A004661646520489D
:103CB00065696768742000426564204C6576656CB0
:103CC000696E6720004661696C656420746F2065C9
:103CD0006E61626C6520426564204C6576656C6936
:103CE0006E670A00496E76616C6964206D65736861
:103CF0002E0A0050726F62696E6720506F696E7491
:103D00000025532025692F2569002E0A002F005019
:103D1000726F62696E67206D65736820706F696E7F
:103D2000742000202844525952554E2900473239F8
:103D3000204175746F20426564204C6576656C691E
:103D40006E67003F20284C2C522C462C4229206FB5
:103D50007574206F6620626F756E64732E0A003F63
:103D60002856296572626F7365206C6576656C20D4
:103D7000696D706C61757369626C652028302D34D3
:103D8000292E0A00426164205A2076616C75650A0A
:103D9000004E6F2062696C696E656172206772699E
:103DA000640A00205200416363656C657261746946
:103DB0006F6E3A20500020643A0020693A0020706B
:103DC0003A00496E76616C69642065787472756436
:103DD00065720A00204D3932205400204D393220BE
:103DE000580020580020204D61783A200020002003
:103DF000204D696E3A2000536F667420656E6473BF
:103E0000746F70733A200047414D45204F5645521C
:103E100000107CFEFEFE4440248000003180000043
:103E20002480444004000E000E007FC0FFE0FFE04D
:103E3000FFE0FFE01FC07FF0DDD8FFF87FF0060055
:103E40000F001F8036C03FC00900168029400600C1
:103E50000F001F8036C03FC01680204010801040E9
:103E600008801FC037607FF05FD050500D80104039
:103E700048905FD077707FF01FC0104020200F0067
:103E80007FE0FFF0E670FFF0198036C0C0300F0011
:103E90007FE0FFF0E670FFF0198036C0198025340E
:103EA000642E2564206D6D002020456E64205A3AF2
:103EB000002534642E2564206D6D00537461727486
:103EC000205A3A00416C69617320562D746F6F6CF3
:103ED000002020456E6420562D746F6F6C00537463
:103EE00061727420562D746F6F6C00436F6D6D6935
:103EF0007420562D746F6F6C204D69780043796380
:103F00006C65204D697800436F6D706F6E656E74DF
:103F1000203D004D6978657200562D746F6F6C738B
:103F20002057657265205265736574003F004361D8
:103F30006E63656C005265736574005265766572D8
:103F40007365204772616469656E74005425692D3C
:103F50003E542569004772616469656E740052655C
:103F600073657420562D746F6F6C73004D69780003
:103F700041637469766520562D746F6F6C004D61D6
:103F8000696E002100486F74656E6420746F6F2045
:103F9000636F6C64004261636B0050726F636565B0
:103FA0006400486F6D696E67204661696C656400E6
:103FB0006F70656E00545249474745524544003A78
:103FC0002000000020002300260029002C002F00E4
:103FD00032000001000003010601090166696C61FD
:103FE0006D656E74007A5F6D696E00795F6D696EE4
:103FF00000785F6D696E005265706F7274696E67EC
:1040000020656E6473746F70207374617475730AC5
:10401000005072696E742041626F72746564004D65
:1040200032350050617573696E672E2E2E004D3249
:1040300034006F6F6F00000000000A0B02090C0DC6
:104040000E0807030401000000000000000000004B
:104050000000000000000000000000000000000060
:10406000000000001211100000000000000000001D
:104070000000000000000000000000000000004DF3
:104080006F76652025736D6D004D6F766520302E3F
:10409000316D6D004D6F766520316D6D004D6F7621
:1040A000652031306D6D004D6F7665204178697304
:1040B000004578747275646572004D6F7665205A9C
:1040C000004D6F76652059004D6F76652058005081
:1040D00072696E742066726F6D204D65646961004F
:1040E000454550524F4D20496E697469616C697A3B
:1040F00065640A000000FA430000FA430000F04142
:104100000000F0420000A0420000A0420000C843AE
:104110000000D743E8030000E80300009600000019
:10412000401F00003B20003A0A0020204D3630336B
:10413000200020440020204D3431322053004669B5
:104140006C616D656E742072756E6F757420736529
:104150006E736F723A002055004C0046696C616DB9
:10416000656E74206C6F61642F756E6C6F61642076
:104170006C656E677468733A0020204D38353120C5
:1041800058005A2D50726F6265204F6666736574D1
:104190000020460020570020204D323038205300A8
:1041A0005265636F7665723A20533C6C656E677436
:1041B000683E20463C756E6974732F6D3E00204644
:1041C0000020570020204D323037205300526574B4
:1041D000726163743A20533C6C656E6774683E206C
:1041E000463C756E6974732F6D3E205A3C6C69664F
:1041F000743E0020204D343133205300506F7765DA
:10420000722D4C6F7373205265636F766572793AC5
:104210000020440020490020204D3330342050003D
:1042200020440020490020204D33303120500050E0
:1042300049442073657474696E67733A00204600C0
:1042400020420020480020204D3134352053004DBD
:104250006174657269616C20686561747570207045
:104260006172616D65746572733A00204A002020A6
:10427000473239205720490020204D343230205316
:10428000004175746F20426564204C6576656C69E9
:104290006E673A0020204D323036205800486F6D4E
:1042A00065206F66667365743A00204A00205300EB
:1042B00020204D323035204200416476616E6365C6
:1042C000643A20423C6D696E5F7365676D656E741C
:1042D0005F74696D655F75733E20533C6D696E5FF9
:1042E00066656564726174653E20543C6D696E5FFD
:1042F00074726176656C5F66656564726174653E53
:10430000204A3C6A756E635F6465763E0020540007
:1043100020520020204D323034205000416363652C
:104320006C65726174696F6E2028756E6974732F85
:104330007332293A20503C7072696E745F61636316
:10434000656C3E20523C726574726163745F616398
:1043500063656C3E20543C74726176656C5F61638A
:1043600063656C3E0020204D323031205400202007
:104370004D3230312058004D6178696D756D2041A6
:104380006363656C65726174696F6E2028756E6910
:1043900074732F7332293A0020450020204D3230AB
:1043A00033205400205A0020590020204D32303351
:1043B0002058004D6178696D756D20666565647281
:1043C000617465732028756E6974732F73293A00C0
:1043D00053746570732070657220756E69743A004D
:1043E00020440020204D3230302053002044697397
:1043F00061626C65640A0046696C616D656E74206B
:1044000073657474696E67733A0020204D313439D6
:104410002043203B20556E69747320696E204365EC
:104420006C736975730A0020286D6D290020204780
:104430003231202020203B20556E69747320696E34
:10444000206D6D0050726F62696E67204661696C05
:1044500065640A0050726F62696E67204661696C1C
:10446000656400205A3A200020593A2000426564D1
:1044700020583A200020573A004765656574656307
:104480006820413230542052656164792E005072A8
:10449000696E74696E672E2E2E005072696E7420DC
:1044A00050617573656400006E01A60111241FBE82
:1044B000CFEFD1E2DEBFCDBF00E00CBF13E0A0E044
:1044C000B2E0E4EDF3E103E00BBF02C007900D9210
:1044D000A835B107D9F729E1A8E5B3E001C01D92DD
:1044E000A93BB207E1F712E2C5E5D2E200E006C05F
:1044F00021970109802FFE010F942986C435D10729
:1045000080E00807A9F70F94EE6F0D94D8890C94FA
:1045100000002F923F924F925F926F927F928F9204
:104520009F92AF92BF92CF92DF92EF92FF920F9342
:104530001F93CF93DF93CDB7DEB7E5970FB6F8940F
:10454000DEBF0FBECDBF8DAB209161032CAB81E0F0
:10455000809361038091E4048D3409F498C4843518
:1045600011F40C942534873411F00C943534809177
:10457000E2049091E3048B31910509F42AC128F5F6
:104580008430910509F4E1C038F420916A07823043
:10459000910508F049C03EC08B30910509F414C163
:1045A00040F40A9709F06FC481E00E946ADC0C9421
:1045B00037348531910511F40C9437344A9709F05A
:1045C00062C40E94C5610C9437348C33910509F4A0
:1045D000C6C170F48D31910509F425C108F414C1E8
:1045E0008E31910509F43EC18A9709F46CC34BC41E
:1045F0008A35910509F4ADC220F4CD9709F4F7C1CD
:1046000042C48B35910509F4A8C28C35910509F493
:10461000A9C239C4213011F00C9437340F94800DA5
:104620000E9439B70C943734213011F00C94373490
:1046300011E0029709F010E00F94800D19821A82A0
:104640001B821C821D821E821F82188682E50E94A8
:104650009461882309F449C00E940F616B017C01B9
:1046600020E030E0A9010F942E7F882309F453C085
:104670008091750290917602A0917702B0917802B4
:1046800088A799A7AAA7BBA72091790230917A029F
:1046900040917B0250917C0228AB39AB4AAB5BABBB
:1046A0008090881990908919A0908A19B0908B19E0
:1046B00040908C1950908D1960908E1970908F19C0
:1046C000A5019401BC01CD010F942E7F81110C94A2
:1046D0004034A301920168A979A98AA99BA90F94E2
:1046E0002E7F8823C1F00C94403489E40E949461A9
:1046F000882331F00E940F6169837A838B839C83C6
:104700008AE40E949461882331F00E940F616D83D6
:104710007E838F83988720E030E0A90169817A81C8
:104720008B819C810F942E7F81110C94F43420E0B6
:1047300030E0A9016D817E818F8198850F942E7F55
:1047400081110C94F4340C94073580E50E94946137
:10475000882329F00F94682A6B017C0103C0C12CC7
:10476000D12C760183E50E949461882361F00E9438
:104770000F6120E030E04AE754E40F94947F0F94F7
:10478000B7876B017C010E94ABB080911D1881112D
:1047900005C060E08DEC96E00F9458530F94F35AE7
:1047A000C60ED71EE81EF91E0F94F35ADC01CB018A
:1047B0008C199D09AE09BF09B7FD02C00C943734AE
:1047C00080E00E94CB3CF0CF80E00E946ADC0C9439
:1047D000373487E00E942BB681110C9437348CE07B
:1047E000E0EBF2E0DE01119601900D928A95E1F77F
:1047F00060E070E080E50F94C90BBE016F5F7F4FF2
:104800000F945C4B0C94373487E00E940FB68111F3
:104810000C940E3560E08FE40E94B06181110C941D
:1048200037340C940E350F94F35A60939C1970939F
:104830009D1980939E1990939F1987E00E942BB633
:1048400081110C94373480912A11882311F40C942F
:10485000E33660E08FE40E94B06181110C9437343C
:104860000C94E3360091EC121091ED12D8012D91C9
:104870003D914D915C9160917502709176028091AD
:104880007702909178020F944486AB01BC0188E5D1
:104890000E94E8A269837A838B839C83F801248138
:1048A0003581468157816091790270917A028091B9
:1048B0007B0290917C020F944486AB01BC0189E598
:1048C0000E94E8A26D837E838F839887BE016B5F11
:1048D0007F4FCE0101960F94A22A882311F40C94E5
:1048E000373480E00E949CDF0E943BBA61E085E49F
:1048F0000E94B061182F21E0482FBE016B5F7F4FEF
:10490000CE0101960F9405666B017C019B01AC0101
:104910000F943689811119C049815A816B817C813C
:1049200083E097E00E948EE44D815E816F817885FF
:104930008EEF96E00E948EE4B701A60189EF96E023
:104940000E948EE48AE00E949F3B0E9422BA1130AE
:1049500011F40F94872A0F94CD460C94373460E0FD
:1049600083E50F94512C833040F00E94BFE48BE02C
:1049700097E00E94E8E30C94373440917D02509117
:104980007E0260917F027091800200917902109105
:104990007A0220917B0230917C029CE0899FF00199
:1049A0001124EE59FC4FC0907502D0907602E09031
:1049B0007702F0907802C082D182E282F38204838F
:1049C000158326833783408751876287738721E069
:1049D00030E0D90102C0AA0FBB1F8A95E2F7CD01D2
:1049E00090918603892B809386030C94373460E082
:1049F00083E50F94512C082F833040F00E94BFE4D0
:104A000088E397E00E94E8E30C943734682F70E065
:104A10008091860390E0A0E0B0E0002E04C0B6953F
:104A2000A795979587950A94D2F780FD02C00C94BC
:104A300037348091E70487FD06C08091E8048370D5
:104A400011F40C94373483E297E00E949FE4B8E8B5
:104A50008B2EB9E19B2E15E7C12E12E0D12EBCE0C2
:104A60000B9F80011124E12CF12C88E5782E872DF5
:104A70000E944661882391F0F801EE0DFF1DEE596A
:104A8000FC4F20803180428053800E940F619B0147
:104A9000AC01C201B1010F94448605C0F6016081EA
:104AA0007181828193815401D4016D937D938D93A3
:104AB0009D934D0180E20E949F3B872D0E949F3B6A
:104AC000F501608171818281938142E00E942F3CD7
:104AD0007394F4E0EF0EF11C24E0C20ED11C3CE014
:104AE000E316F10421F68AE00E949F3B8090710258
:104AF00090907202A0907302B090740240E050E077
:104B0000BA0186E40E94E8A26B017C0120E030E05B
:104B1000A9010F94A488181684F420E030E040E73F
:104B200052E4C701B6010F943E87609371027093FF
:104B3000720280937302909374020E9439B780923C
:104B4000710290927202A0927302B09274020C945D
:104B5000373410921D110C9437348FE080931D115F
:104B60000C9437348091E104882349F1893009F0AD
:104B7000A6C0FCEBAF2EF2E0BF2EA5E7EA2EA2E026
:104B8000FA2ED12C00E010E0D5018D915D010E943C
:104B90009461882369F00E940F61F701608371833B
:104BA00082839383133011F401E002C0DD24D39497
:104BB0001F5FF4E0EF0EF11C143031F775C06CEBA1
:104BC000262E62E0362E7AE4E72E71E1F72E25E7F5
:104BD00032E039A728A7E2E3CE2EE2E1DE2E00E0A4
:104BE00010E0D1018D911D010E949461882309F488
:104BF0004BC00E940F612B013C01133049F0F601BC
:104C000020813181428153810F9443862B013C01E5
:104C1000A8A5B9A52D913D914D915C91C301B2011B
:104C20000F9443864B015C012DEB37E346E855EBCF
:104C30000F94A48887FD0AC02DEB37E346E855E3BF
:104C4000C501B4010F942E7F1816F4F4133051F4FB
:104C5000409281025092820260928302709284029A
:104C600001E012C0A5019401F70160817181828188
:104C700093810F944486D7016D937D938D939C937C
:104C80001397812F0E94EFB51F5FB4E0EB0EF11C6C
:104C9000E8A5F9A53496F9A7E8A7F4E0CF0ED11C52
:104CA000143009F09ECF05C0DD2019F00F94CB46DB
:104CB00006C0002321F081E892E00E9458B40F94CE
:104CC000CD460C94373480916A07813011F00C94F2
:104CD000373489E40E949461E82E882321F00E94F1
:104CE0000B61082F01C000E08AE40E949461F82E55
:104CF000882321F00E940B61182F01C010E0EE20E4
:104D000011F0033020F4FF2041F0133030F080E543
:104D100097E00E94E8E30C94373480E1E5E7F2E0A5
:104D2000A8E8B9E101900D928A95E1F7EE2019F11A
:104D3000602F000F770B880B990B0F94357F209114
:104D40001F193091201940912119509122190F9467
:104D5000947F2091A1043091A2044091A30450912A
:104D6000A4040F94448660938819709389198093E2
:104D70008A1990938B19FF2019F1612F110F770B6E
:104D8000880B990B0F94357F2091231930912419AA
:104D900040912519509126190F94947F2091A504D4
:104DA0003091A6044091A7045091A8040F94448622
:104DB00060938C1970938D1980938E1990938F192D
:104DC00060E080E50E94B0618823C1F1EE20D1F05F
:104DD000E091EC12F091ED122081318142815381FA
:104DE000609188197091891980918A1990918B1915
:104DF0000F944386609388197093891980938A1958
:104E000090938B19FF20D1F0E091EC12F091ED120C
:104E1000248135814681578160918C1970918D195B
:104E200080918E1990918F190F94438660938C19FD
:104E300070938D1980938E1990938F1940E050E0F4
:104E4000BA0186E40E94E8A26B017C0120E030E018
:104E5000A9010F94A48818164CF420E030E040E734
:104E600052E4C701B6010F943E8703C060E070E0D2
:104E7000CB0169837A838B839C83CE0101960E9448
:104E80005ABA0C9437340E9442D00C943734809133
:104E9000E2049091E3048B39910509F4BFC508F051
:104EA000F1C08335910509F4FEC508F079C08A3157
:104EB000910509F408C370F58431910509F468C2BD
:104EC00078F48131910509F44FC228F4029708F46F
:104ED00013C20C942234429709F4ECC50C9422348A
:104EE0008731910509F489C260F48531910509F48F
:104EF00080C2469711F00C9422340E945BF10C940E
:104F000037348831910509F48DC2499709F4C5C237
:104F10000C9422348032910509F44FC3F0F48D31A2
:104F2000910509F433C380F48B31910509F4D9C29A
:104F30004C9711F00C9422348091DF049091E0049E
:104F40000E9425F20C9437348E31910509F425C363
:104F50004F9709F45BC30C9422348D34910509F406
:104F600004C468F48B34910509F4FBC38C349105B7
:104F700011F00C9422340F94A3480C9437348135EB
:104F8000910509F471C58235910511F00C94223414
:104F900080911D118F7D806180931D110C94373499
:104FA0008F36910509F483C470F58936910509F4AB
:104FB00005C480F48535910509F47FC508F47AC5E8
:104FC0008C35910509F49CC58836910509F4D1C347
:104FD0000C9422348C36910509F4AEC450F48A3610
:104FE000910509F4FFC38B36910509F43FC40C9475
:104FF00022348D36910509F4DDC38E36910509F40E
:1050000044C40C9422348637910509F42AC6C8F4A6
:105010008237910509F40BC650F48037910509F4E5
:1050200090C48137910509F493C40C9422348337DA
:10503000910509F403C68537910509F402C60C945D
:1050400022348937910509F449C690F487379105D0
:1050500009F441C68837910511F00C94223481E09F
:1050600080939605809395050F9421480C943734CE
:105070008C38910509F493C48139910509F435C63A
:105080000C942234803321E0920711F40C94D73130
:1050900008F080C08E3C910509F489C7B0F58E3BBD
:1050A000910509F49BC4C0F4843A910509F4B9C68A
:1050B00030F4833A910509F48CC60C942234853A75
:1050C000910509F4C1C6863A910511F00C94223479
:1050D0000F94DC0B0C9437348B3C910509F42EC7EC
:1050E00050F4883C910509F4B2C6893C910509F455
:1050F000F5C60C9422348C3C910509F447C78D3CCD
:10510000910509F446C70C942234883141E0940794
:1051100011F40C942531D8F4833D910511F40C94CD
:105120008B3050F48F3C910509F467C7803D9105A1
:1051300009F4A7C70C9422348C3D910509F4EEC7FD
:105140008D3D910511F40C94CF300C9422348D32A6
:10515000A1E09A0711F40C94D43168F48232E1E0B2
:105160009E0711F40C94BC318C32914011F40C94D4
:10517000BF310C9422348E3221E0920711F40C944A
:105180004A328F32914011F00C9422340E94FFA2D7
:105190000C943734853F41E0940711F40C943C3370
:1051A00008F04BC08C39A1E09A0711F40C949F329F
:1051B000F8F48139E1E09E0711F40C948E3248F442
:1051C0008039914011F00C9422340E94ABB00C94C1
:1051D0003734823931E0930711F40C9498328A39CC
:1051E000914011F00C9422340E9444390C943734CD
:1051F000853A51E0950711F40C94C23278F48D3958
:10520000B1E09B0711F40C94E833843A914011F01B
:105210000C9422340F9415310C9437348C3AF1E00D
:105220009F0711F40C943933843F914011F00C9492
:1052300022340E94C9810C9437348B3532E09307B5
:1052400011F40C94603358F5883F51E0950711F440
:105250000C944233A8F4863FB1E09B0711F40C9400
:105260003F33873F914011F00C94223461E083E595
:105270000E94B06191E089270F94A65F0C943734A7
:105280008C30F2E09F0711F40C9453338835924030
:1052900011F00C9422340F947B070C943734873E22
:1052A00033E0930711F40C94DA33C8F4833553E0F8
:1052B000950711F40C94D733803A934011F00C9475
:1052C00022342091DF043091E00490918A1392609F
:1052D00090938A13C9010E9425F20C943734883EBA
:1052E000B3E09B0711F40C94FF33893E934011F413
:1052F0000C9402340C94223480E50E94946188233B
:1053000029F00F94682A6B017C0103C0C12CD12CB9
:10531000760183E50E949461882361F00E940F6109
:1053200020E030E04AE754E40F94947F0F94B7876D
:105330006B017C010E94ABB08091DF049091E0048E
:10534000009721F061E00F94CF5305C060E089E63B
:1053500097E00F94585340E0C701B6010E948C4279
:105360000F94E2630C9437348091E50484FF02C00B
:105370000C94E6368091E70487FF02C00C94E63671
:105380008091E804837011F00C94E6360C94FE369C
:1053900080918A1383FF25C084E997E00E94E8E3A7
:1053A00080918A1383FF17C089EA93E10E94809B52
:1053B0008BE1E9EAF3E1DE01119601900D928A9505
:1053C000E1F760E070E0CE0101960E94E3F6CE01C5
:1053D00001960E940ED985E897E00E94E8E30C94BC
:1053E00037340E94C3E485EA97E00E94E8E30C9416
:1053F00037340E94F1F40C943734E091DF04F091DB
:10540000E0048081882329F0803209F410823196EB
:10541000F8CF60E08091DF049091E0040E946DF28B
:105420000C94373483E50E949461882321F00E9414
:10543000D7600E9468A884E50E9494618823A9F03F
:105440000E94D7606B017C010F946448C092E21700
:10545000D092E317E092E417F092E517CD28CE281A
:10546000CF2819F081E08093AE190E946939882312
:1054700081F00E94FAF00F947F488EEB91E10E9438
:105480009FF01092E9041092EA041092EB0410923B
:10549000EC040F94E2630C94373480918A1382FFFA
:1054A00003C08B7F80938A1380914F19882329F042
:1054B00060E070E0CB010E945AEA0F94A3480F9479
:1054C000E2630C94373480918A1383FD02C00C94FC
:1054D000373483E50E94946181110C9409370C9450
:1054E000373483E40E944661882319F189EB97E001
:1054F0000E94E8E38091F014882391F0BE016F5F71
:105500007F4F8DEE94E10E94649E8E010F5F1F4FCE
:10551000D8018D918D01882339F00E949F3BF8CFEF
:105520008FEA97E00E94E8E38AE00E949F3B0C9498
:10553000373480918A1382FF23C0C0908613D090A5
:105540008713E0908813F090891388EC97E00E940D
:10555000E8E34AE0C701B6010E94A63B8FE20E9441
:105560009F3B60918213709183138091841390917B
:1055700085134AE00E94A63B0E94A43C0C94373459
:105580008AED97E00E94E8E30C94373480918A1307
:105590008E7F80938A130C94373480918A1383FD15
:1055A00002C00C9437340E942BD08091DF0490917C
:1055B000E0040E946DF60C94373480918A1382FDCA
:1055C0000E94ABB080918A1383FD02C00C943734E3
:1055D00060E080E50E94B061182F682F8091DF04A1
:1055E0009091E0040E946DF283E50E94946188230B
:1055F00021F00E94D7600E9468A80E94FAF0111161
:105600000C9437340F947F480C9437340F943048FF
:105610007B018C0120E831E541E050E00F94848566
:10562000C9016DE671E00F9401864B015C01C80170
:10563000B70120E13EE040E050E00F948485CA01CC
:10564000B90128E130E040E050E00F948485762EE7
:10565000672EC62ED72E5CE3252E312C412C512CE3
:10566000C801B701A20191010F948485F62EE72E9F
:10567000CA01B901A20191010F948485CB018E0169
:105680000F5F1F4F8114910499F0EF92FF927F9367
:105690006F936F927F92BF92AF929F928F9283E1AE
:1056A00098E09F938F931F930F930F94C67E13C020
:1056B000A114B104B1F0EF92FF927F936F936F92B8
:1056C0007F92BF92AF9283E098E09F938F931F9356
:1056D0000F930F94C67E0FB6F894DEBF0FBECDBFFA
:1056E00030C0CD2879F0EF92FF927F936F936F9245
:1056F0007F9287EF97E09F938F931F930F930F9461
:10570000C67EE9CF892B69F0EF92FF927F936F936A
:105710008FEE97E09F938F931F930F930F94C67E06
:10572000DACFEF92FF928BEE97E09F938F931F93C8
:105730000F930F94C67E0F900F900F900F900F90C5
:105740000F9060E0C8010F94CF530E94C3E4B801EA
:1057500087E298E00E94ACE48AE00E949F3B0C94B0
:1057600037340F947F480C9437340F94B8480C9416
:10577000373480911C1183FF02C00C94373489E4C4
:105780000E949461882311F40C940E370E94E76004
:1057900090E01816190614F481E090E026E0289FA6
:1057A000F001299FF00D1124E05BF64E808191817C
:1057B0000C9418370E94FFAE0C9437340F940C05EC
:1057C000182F87FD0AC084E398E00E94E8E3812F48
:1057D0000E9427768AE00E949F3B9CA990936103D8
:1057E0000C94203860E080E50F94512CF82EA2E054
:1057F000A81710F40C94373481E40E944661882382
:1058000029F060912B11062F10E002C00FEF10E07D
:1058100089E40E949461882399F00E94E76090E0F7
:105820001816190614F481E090E026E0289FF00194
:10583000299FF00D1124E05BF64E0481158108C00C
:1058400083E50E949461882319F00E94D7608B0140
:10585000EF2DF0E0E55DFE4EB8010F3F110519F0A8
:1058600010F06FEF70E060830C94373460E080E5F7
:105870000F94512C833010F00C943734E82FF0E063
:10588000E55DFE4E10820C9437348EE40E949461E4
:10589000882311F40C9437340E94D760609371050B
:1058A000709372058093730590937405E0C783E548
:1058B0000E944661882331F060E083E50F94512C0B
:1058C00080931C110E94C3E485E498E00E94E8E301
:1058D00080911C11882369F14BE3E42E48E0F42EFB
:1058E00000E010E020E080911C1190E0A0E0B0E02A
:1058F000002E04C0B695A795979587950A94D2F780
:1059000080FF0EC0DD24D394D20E222319F08CE246
:105910000E949F3BF701859194910E94E8E32D2D11
:105920000F5F1F4FB2E0EB0EF11C05301105D9F6E9
:10593000FBCD87E398E0F6CD109273181092AA027F
:1059400096C741E060E070E08CE498E00E9447E692
:1059500083E50E949461882371F00E94E760282FFC
:1059600030E02D3331051CF48093000280C78CE3B6
:10597000809300027CC70E94C3E4C0900002D12C37
:10598000E12CF12C8AE598E00E94E8E34AE0C701A7
:10599000B6010E94A63B8AE00E949F3B68C78091A7
:1059A0001C1183FD64C789E40E949461882311F46B
:1059B0000C9421370E94E76090E01816190614F441
:1059C00081E090E026E0289FF001299FF00D11244E
:1059D000E05BF64E828193810C942C3780911C11F0
:1059E00083FD45C789E40E949461882311F40C94D7
:1059F00033370E94E76090E01816190614F481E02E
:105A000090E026E0289FF001299FF00D1124E05B33
:105A1000F64E8281938110E00C94443783E50E9416
:105A20009461882309F423C70E94E760182F90E04F
:105A3000CD970CF01CE310935C030F94F35A6B01A9
:105A40007C01212F30E0A8EEB3E00F94D885C60E7C
:105A5000D71EE81EF91EC0925803D0925903E09257
:105A60005A03F0925B0303C70E949E780F94B848D4
:105A70000E94BCB00E948D3910929E0483E0EBE935
:105A8000F4E0DF011D928A95E9F768EE73E080E0AB
:105A900090E00E942AE30E94933960E08FE798E04B
:105AA0000F945853E4C680911D118F7E80628093BD
:105AB0001D11DDC60F940D2ADAC683E50E944661EA
:105AC000882309F4D4C60F94F35A60939C197093F9
:105AD0009D1980939E1990939F190E940F6120E059
